{
  "contractName": "Marketplace",
  "abi": [
    {
      "anonymous": false,
      "inputs": [
        {
          "indexed": true,
          "internalType": "uint256",
          "name": "itemId",
          "type": "uint256"
        },
        {
          "indexed": true,
          "internalType": "address",
          "name": "nftContract",
          "type": "address"
        },
        {
          "indexed": true,
          "internalType": "uint256",
          "name": "tokenId",
          "type": "uint256"
        },
        {
          "indexed": false,
          "internalType": "address",
          "name": "seller",
          "type": "address"
        },
        {
          "indexed": false,
          "internalType": "address",
          "name": "owner",
          "type": "address"
        },
        {
          "indexed": false,
          "internalType": "uint256",
          "name": "price",
          "type": "uint256"
        },
        {
          "indexed": false,
          "internalType": "bool",
          "name": "sold",
          "type": "bool"
        }
      ],
      "name": "MarketItemCreated",
      "type": "event"
    },
    {
      "anonymous": false,
      "inputs": [
        {
          "indexed": true,
          "internalType": "uint256",
          "name": "itemId",
          "type": "uint256"
        },
        {
          "indexed": false,
          "internalType": "address",
          "name": "owner",
          "type": "address"
        }
      ],
      "name": "MarketItemSold",
      "type": "event"
    },
    {
      "inputs": [
        {
          "internalType": "address",
          "name": "nftContract",
          "type": "address"
        },
        {
          "internalType": "uint256",
          "name": "tokenId",
          "type": "uint256"
        },
        {
          "internalType": "uint256",
          "name": "price",
          "type": "uint256"
        }
      ],
      "name": "createMarketItem",
      "outputs": [],
      "stateMutability": "payable",
      "type": "function"
    },
    {
      "inputs": [
        {
          "internalType": "address",
          "name": "nftContract",
          "type": "address"
        },
        {
          "internalType": "uint256",
          "name": "itemId",
          "type": "uint256"
        }
      ],
      "name": "createMarketSale",
      "outputs": [],
      "stateMutability": "payable",
      "type": "function"
    },
    {
      "inputs": [],
      "name": "fetchMarketItems",
      "outputs": [
        {
          "components": [
            {
              "internalType": "uint256",
              "name": "itemId",
              "type": "uint256"
            },
            {
              "internalType": "address",
              "name": "nftContract",
              "type": "address"
            },
            {
              "internalType": "uint256",
              "name": "tokenId",
              "type": "uint256"
            },
            {
              "internalType": "address payable",
              "name": "seller",
              "type": "address"
            },
            {
              "internalType": "address payable",
              "name": "owner",
              "type": "address"
            },
            {
              "internalType": "uint256",
              "name": "price",
              "type": "uint256"
            },
            {
              "internalType": "bool",
              "name": "sold",
              "type": "bool"
            }
          ],
          "internalType": "struct Marketplace.MarketItem[]",
          "name": "",
          "type": "tuple[]"
        }
      ],
      "stateMutability": "view",
      "type": "function"
    }
  ],
  "bytecode": "0x608060405234801561001057600080fd5b5060016000556108c5806100256000396000f3fe6080604052600436106100345760003560e01c80630f08efe01461003957806358eb2df514610064578063c23b139e14610079575b600080fd5b34801561004557600080fd5b5061004e61008c565b60405161005b9190610738565b60405180910390f35b6100776100723660046106e1565b610243565b005b6100776100873660046106b7565b610451565b6060600061009960015490565b905060006100a660025490565b6001546100b3919061081b565b9050600080826001600160401b038111156100d0576100d0610879565b60405190808252806020026020018201604052801561013757816020015b6040805160e08101825260008082526020808301829052928201819052606082018190526080820181905260a0820181905260c082015282526000199092019101816100ee5790505b50905060005b8481101561023a576000600381610155846001610803565b81526020810191909152604001600020600401546001600160a01b03161415610228576000610185826001610803565b600081815260036020818152604092839020835160e0810185528154815260018201546001600160a01b039081169382019390935260028201549481019490945291820154811660608401526004820154166080830152600581015460a0830152600681015460ff16151560c083015285519293509185908790811061020d5761020d610863565b6020908102919091010152610223600186610803565b945050505b8061023281610832565b91505061013d565b50949350505050565b6002600054141561026f5760405162461bcd60e51b8152600401610266906107cc565b60405180910390fd5b6002600055806102c05760405162461bcd60e51b815260206004820152601c60248201527b05072696365206d7573742062652067726561746572207468616e20360241b6044820152606401610266565b6102ce600180546001019055565b60006102d960015490565b6040805160e0810182528281526001600160a01b0387811660208084018281528486018a8152336060870181815260006080890181815260a08a018e815260c08b018381528d8452600398899052928c90209a518b55955160018b0180546001600160a01b0319908116928c16929092179055945160028b015591519589018054851696891696909617909555516004808901805490941691909716179091559051600586015590516006909401805460ff19169415159490941790935592516323b872dd60e01b815293945091926323b872dd926103bd92913091899101610714565b600060405180830381600087803b1580156103d757600080fd5b505af11580156103eb573d6000803e3d6000fd5b505060408051338152600060208201819052818301879052606082015290518693506001600160a01b038816925084917f045dfa01dcba2b36aba1d3dc4a874f4b0c5d2fbeb8d2c4b34a7d88c8d8f929d1919081900360800190a4505060016000555050565b600260005414156104745760405162461bcd60e51b8152600401610266906107cc565b6002600081815582815260036020526040902060058101549181015460069091015460ff16348314610510576040805162461bcd60e51b81526020600482015260248101919091527f506c65617365207375626d6974207468652061736b696e67207072696365206960448201527f6e206f7264657220746f20636f6d706c657465207468652070757263686173656064820152608401610266565b600181151514156105635760405162461bcd60e51b815260206004820152601e60248201527f546869732053616c652068617320616c726564792066696e6e697368656400006044820152606401610266565b60405133815284907f2073b2706c235effb1e3840575370a51749afd8181b4018f93bff955d50792cb9060200160405180910390a260008481526003602081905260408083209091015490516001600160a01b03909116913480156108fc02929091818181858888f193505050501580156105e2573d6000803e3d6000fd5b506040516323b872dd60e01b81526001600160a01b038616906323b872dd9061061390309033908790600401610714565b600060405180830381600087803b15801561062d57600080fd5b505af1158015610641573d6000803e3d6000fd5b505050600085815260036020526040902060040180546001600160a01b0319163317905550610674600280546001019055565b5050506000908152600360205260408120600601805460ff19166001908117909155905550565b80356001600160a01b03811681146106b257600080fd5b919050565b600080604083850312156106ca57600080fd5b6106d38361069b565b946020939093013593505050565b6000806000606084860312156106f657600080fd5b6106ff8461069b565b95602085013595506040909401359392505050565b6001600160a01b039384168152919092166020820152604081019190915260600190565b602080825282518282018190526000919060409081850190868401855b828110156107bf57815180518552868101516001600160a01b039081168887015286820151878701526060808301518216908701526080808301519091169086015260a0808201519086015260c09081015115159085015260e09093019290850190600101610755565b5091979650505050505050565b6020808252601f908201527f5265656e7472616e637947756172643a207265656e7472616e742063616c6c00604082015260600190565b600082198211156108165761081661084d565b500190565b60008282101561082d5761082d61084d565b500390565b60006000198214156108465761084661084d565b5060010190565b634e487b7160e01b600052601160045260246000fd5b634e487b7160e01b600052603260045260246000fd5b634e487b7160e01b600052604160045260246000fdfea2646970667358221220a4d38e9c459ff3f8512bb52a72472a78d9af302c8b42a992edb1e38cd8769df264736f6c63430008070033",
  "immutableReferences": {},
  "source": "// SPDX-License-Identifier: MIT\r\npragma solidity 0.8.7;\r\npragma experimental ABIEncoderV2;\r\n\r\nimport \"@openzeppelin/contracts/utils/Counters.sol\";\r\nimport \"@openzeppelin/contracts/token/ERC721/ERC721.sol\";\r\nimport \"@openzeppelin/contracts/security/ReentrancyGuard.sol\";\r\nimport \"@openzeppelin/contracts/access/Ownable.sol\";\r\n\r\ncontract Marketplace is ReentrancyGuard {\r\n    using Counters for Counters.Counter;\r\n    Counters.Counter private _itemIds;\r\n    Counters.Counter private _itemsSold;\r\n     \r\n     struct MarketItem {\r\n         uint itemId;\r\n         address nftContract;\r\n         uint256 tokenId;\r\n         address payable seller;\r\n         address payable owner;\r\n         uint256 price;\r\n         bool sold;\r\n     }\r\n     \r\n     mapping(uint256 => MarketItem) private idToMarketItem;\r\n     \r\n     event MarketItemCreated (\r\n        uint indexed itemId,\r\n        address indexed nftContract,\r\n        uint256 indexed tokenId,\r\n        address seller,\r\n        address owner,\r\n        uint256 price,\r\n        bool sold\r\n     );\r\n     \r\n     event MarketItemSold (\r\n         uint indexed itemId,\r\n         address owner\r\n         );\r\n     \r\n    \r\n    \r\n    function createMarketItem(\r\n        address nftContract,\r\n        uint256 tokenId,\r\n        uint256 price\r\n        ) public payable nonReentrant {\r\n            require(price > 0, \"Price must be greater than 0\");\r\n            \r\n            _itemIds.increment();\r\n            uint256 itemId = _itemIds.current();\r\n  \r\n            idToMarketItem[itemId] =  MarketItem(\r\n                itemId,\r\n                nftContract,\r\n                tokenId,\r\n                payable(msg.sender),\r\n                payable(address(0)),\r\n                price,\r\n                false\r\n            );\r\n            \r\n            IERC721(nftContract).transferFrom(msg.sender, address(this), tokenId);\r\n                \r\n            emit MarketItemCreated(\r\n                itemId,\r\n                nftContract,\r\n                tokenId,\r\n                msg.sender,\r\n                address(0),\r\n                price,\r\n                false\r\n            );\r\n        }\r\n        \r\n    function createMarketSale(\r\n        address nftContract,\r\n        uint256 itemId\r\n        ) public payable nonReentrant {\r\n            uint price = idToMarketItem[itemId].price;\r\n            uint tokenId = idToMarketItem[itemId].tokenId;\r\n            bool sold = idToMarketItem[itemId].sold;\r\n            require(msg.value == price, \"Please submit the asking price in order to complete the purchase\");\r\n            require(sold != true, \"This Sale has alredy finnished\");\r\n            emit MarketItemSold(\r\n                itemId,\r\n                msg.sender\r\n                );\r\n\r\n            idToMarketItem[itemId].seller.transfer(msg.value);\r\n            IERC721(nftContract).transferFrom(address(this), msg.sender, tokenId);\r\n            idToMarketItem[itemId].owner = payable(msg.sender);\r\n            _itemsSold.increment();\r\n            idToMarketItem[itemId].sold = true;\r\n        }\r\n        \r\n    function fetchMarketItems() public view returns (MarketItem[] memory) {\r\n        uint itemCount = _itemIds.current();\r\n        uint unsoldItemCount = _itemIds.current() - _itemsSold.current();\r\n        uint currentIndex = 0;\r\n\r\n        MarketItem[] memory items = new MarketItem[](unsoldItemCount);\r\n        for (uint i = 0; i < itemCount; i++) {\r\n            if (idToMarketItem[i + 1].owner == address(0)) {\r\n                uint currentId = i + 1;\r\n                MarketItem storage currentItem = idToMarketItem[currentId];\r\n                items[currentIndex] = currentItem;\r\n                currentIndex += 1;\r\n            }\r\n        }\r\n        return items;\r\n    }\r\n      \r\n}\r\n\r\n/// Thanks for inspiration: https://github.com/dabit3/polygon-ethereum-nextjs-marketplace/\r\n",
  "sourcePath": "C:\\Users\\USER\\Desktop\\Picardy\\contracts\\Marketplace.sol",
  "compiler": {
    "name": "solc",
    "version": "0.8.7+commit.e28d00a7.Emscripten.clang"
  },
  "schemaVersion": "3.4.6",
  "updatedAt": "2022-04-13T14:14:16.415Z",
  "devdoc": {
    "kind": "dev",
    "methods": {},
    "version": 1
  },
  "userdoc": {
    "kind": "user",
    "methods": {},
    "version": 1
  }
}