{
  "contractName": "NFT",
  "abi": [
    {
      "inputs": [
        {
          "internalType": "uint256",
          "name": "_maxSupply",
          "type": "uint256"
        },
        {
          "internalType": "uint256",
          "name": "_maxMintAmount",
          "type": "uint256"
        },
        {
          "internalType": "string",
          "name": "_name",
          "type": "string"
        },
        {
          "internalType": "string",
          "name": "_symbol",
          "type": "string"
        },
        {
          "internalType": "string",
          "name": "_initBaseURI",
          "type": "string"
        },
        {
          "internalType": "string",
          "name": "_initNotRevealedUri",
          "type": "string"
        }
      ],
      "stateMutability": "nonpayable",
      "type": "constructor"
    },
    {
      "anonymous": false,
      "inputs": [
        {
          "indexed": true,
          "internalType": "address",
          "name": "owner",
          "type": "address"
        },
        {
          "indexed": true,
          "internalType": "address",
          "name": "approved",
          "type": "address"
        },
        {
          "indexed": true,
          "internalType": "uint256",
          "name": "tokenId",
          "type": "uint256"
        }
      ],
      "name": "Approval",
      "type": "event"
    },
    {
      "anonymous": false,
      "inputs": [
        {
          "indexed": true,
          "internalType": "address",
          "name": "owner",
          "type": "address"
        },
        {
          "indexed": true,
          "internalType": "address",
          "name": "operator",
          "type": "address"
        },
        {
          "indexed": false,
          "internalType": "bool",
          "name": "approved",
          "type": "bool"
        }
      ],
      "name": "ApprovalForAll",
      "type": "event"
    },
    {
      "anonymous": false,
      "inputs": [
        {
          "indexed": true,
          "internalType": "address",
          "name": "previousOwner",
          "type": "address"
        },
        {
          "indexed": true,
          "internalType": "address",
          "name": "newOwner",
          "type": "address"
        }
      ],
      "name": "OwnershipTransferred",
      "type": "event"
    },
    {
      "anonymous": false,
      "inputs": [
        {
          "indexed": false,
          "internalType": "address",
          "name": "account",
          "type": "address"
        }
      ],
      "name": "Paused",
      "type": "event"
    },
    {
      "anonymous": false,
      "inputs": [
        {
          "indexed": true,
          "internalType": "address",
          "name": "from",
          "type": "address"
        },
        {
          "indexed": true,
          "internalType": "address",
          "name": "to",
          "type": "address"
        },
        {
          "indexed": true,
          "internalType": "uint256",
          "name": "tokenId",
          "type": "uint256"
        }
      ],
      "name": "Transfer",
      "type": "event"
    },
    {
      "anonymous": false,
      "inputs": [
        {
          "indexed": false,
          "internalType": "address",
          "name": "account",
          "type": "address"
        }
      ],
      "name": "Unpaused",
      "type": "event"
    },
    {
      "inputs": [
        {
          "internalType": "address",
          "name": "to",
          "type": "address"
        },
        {
          "internalType": "uint256",
          "name": "tokenId",
          "type": "uint256"
        }
      ],
      "name": "approve",
      "outputs": [],
      "stateMutability": "nonpayable",
      "type": "function"
    },
    {
      "inputs": [
        {
          "internalType": "address",
          "name": "owner",
          "type": "address"
        }
      ],
      "name": "balanceOf",
      "outputs": [
        {
          "internalType": "uint256",
          "name": "",
          "type": "uint256"
        }
      ],
      "stateMutability": "view",
      "type": "function"
    },
    {
      "inputs": [],
      "name": "baseExtension",
      "outputs": [
        {
          "internalType": "string",
          "name": "",
          "type": "string"
        }
      ],
      "stateMutability": "view",
      "type": "function"
    },
    {
      "inputs": [],
      "name": "cost",
      "outputs": [
        {
          "internalType": "uint256",
          "name": "",
          "type": "uint256"
        }
      ],
      "stateMutability": "view",
      "type": "function"
    },
    {
      "inputs": [
        {
          "internalType": "uint256",
          "name": "tokenId",
          "type": "uint256"
        }
      ],
      "name": "getApproved",
      "outputs": [
        {
          "internalType": "address",
          "name": "",
          "type": "address"
        }
      ],
      "stateMutability": "view",
      "type": "function"
    },
    {
      "inputs": [
        {
          "internalType": "address",
          "name": "owner",
          "type": "address"
        },
        {
          "internalType": "address",
          "name": "operator",
          "type": "address"
        }
      ],
      "name": "isApprovedForAll",
      "outputs": [
        {
          "internalType": "bool",
          "name": "",
          "type": "bool"
        }
      ],
      "stateMutability": "view",
      "type": "function"
    },
    {
      "inputs": [],
      "name": "maxMintAmount",
      "outputs": [
        {
          "internalType": "uint256",
          "name": "",
          "type": "uint256"
        }
      ],
      "stateMutability": "view",
      "type": "function"
    },
    {
      "inputs": [],
      "name": "maxSupply",
      "outputs": [
        {
          "internalType": "uint256",
          "name": "",
          "type": "uint256"
        }
      ],
      "stateMutability": "view",
      "type": "function"
    },
    {
      "inputs": [],
      "name": "name",
      "outputs": [
        {
          "internalType": "string",
          "name": "",
          "type": "string"
        }
      ],
      "stateMutability": "view",
      "type": "function"
    },
    {
      "inputs": [],
      "name": "notRevealedUri",
      "outputs": [
        {
          "internalType": "string",
          "name": "",
          "type": "string"
        }
      ],
      "stateMutability": "view",
      "type": "function"
    },
    {
      "inputs": [],
      "name": "owner",
      "outputs": [
        {
          "internalType": "address",
          "name": "",
          "type": "address"
        }
      ],
      "stateMutability": "view",
      "type": "function"
    },
    {
      "inputs": [
        {
          "internalType": "uint256",
          "name": "tokenId",
          "type": "uint256"
        }
      ],
      "name": "ownerOf",
      "outputs": [
        {
          "internalType": "address",
          "name": "",
          "type": "address"
        }
      ],
      "stateMutability": "view",
      "type": "function"
    },
    {
      "inputs": [],
      "name": "paused",
      "outputs": [
        {
          "internalType": "bool",
          "name": "",
          "type": "bool"
        }
      ],
      "stateMutability": "view",
      "type": "function"
    },
    {
      "inputs": [],
      "name": "renounceOwnership",
      "outputs": [],
      "stateMutability": "nonpayable",
      "type": "function"
    },
    {
      "inputs": [],
      "name": "revealed",
      "outputs": [
        {
          "internalType": "bool",
          "name": "",
          "type": "bool"
        }
      ],
      "stateMutability": "view",
      "type": "function"
    },
    {
      "inputs": [
        {
          "internalType": "address",
          "name": "from",
          "type": "address"
        },
        {
          "internalType": "address",
          "name": "to",
          "type": "address"
        },
        {
          "internalType": "uint256",
          "name": "tokenId",
          "type": "uint256"
        }
      ],
      "name": "safeTransferFrom",
      "outputs": [],
      "stateMutability": "nonpayable",
      "type": "function"
    },
    {
      "inputs": [
        {
          "internalType": "address",
          "name": "from",
          "type": "address"
        },
        {
          "internalType": "address",
          "name": "to",
          "type": "address"
        },
        {
          "internalType": "uint256",
          "name": "tokenId",
          "type": "uint256"
        },
        {
          "internalType": "bytes",
          "name": "_data",
          "type": "bytes"
        }
      ],
      "name": "safeTransferFrom",
      "outputs": [],
      "stateMutability": "nonpayable",
      "type": "function"
    },
    {
      "inputs": [
        {
          "internalType": "address",
          "name": "operator",
          "type": "address"
        },
        {
          "internalType": "bool",
          "name": "approved",
          "type": "bool"
        }
      ],
      "name": "setApprovalForAll",
      "outputs": [],
      "stateMutability": "nonpayable",
      "type": "function"
    },
    {
      "inputs": [
        {
          "internalType": "bytes4",
          "name": "interfaceId",
          "type": "bytes4"
        }
      ],
      "name": "supportsInterface",
      "outputs": [
        {
          "internalType": "bool",
          "name": "",
          "type": "bool"
        }
      ],
      "stateMutability": "view",
      "type": "function"
    },
    {
      "inputs": [],
      "name": "symbol",
      "outputs": [
        {
          "internalType": "string",
          "name": "",
          "type": "string"
        }
      ],
      "stateMutability": "view",
      "type": "function"
    },
    {
      "inputs": [
        {
          "internalType": "uint256",
          "name": "index",
          "type": "uint256"
        }
      ],
      "name": "tokenByIndex",
      "outputs": [
        {
          "internalType": "uint256",
          "name": "",
          "type": "uint256"
        }
      ],
      "stateMutability": "view",
      "type": "function"
    },
    {
      "inputs": [
        {
          "internalType": "address",
          "name": "owner",
          "type": "address"
        },
        {
          "internalType": "uint256",
          "name": "index",
          "type": "uint256"
        }
      ],
      "name": "tokenOfOwnerByIndex",
      "outputs": [
        {
          "internalType": "uint256",
          "name": "",
          "type": "uint256"
        }
      ],
      "stateMutability": "view",
      "type": "function"
    },
    {
      "inputs": [],
      "name": "totalSupply",
      "outputs": [
        {
          "internalType": "uint256",
          "name": "",
          "type": "uint256"
        }
      ],
      "stateMutability": "view",
      "type": "function"
    },
    {
      "inputs": [
        {
          "internalType": "address",
          "name": "from",
          "type": "address"
        },
        {
          "internalType": "address",
          "name": "to",
          "type": "address"
        },
        {
          "internalType": "uint256",
          "name": "tokenId",
          "type": "uint256"
        }
      ],
      "name": "transferFrom",
      "outputs": [],
      "stateMutability": "nonpayable",
      "type": "function"
    },
    {
      "inputs": [
        {
          "internalType": "address",
          "name": "newOwner",
          "type": "address"
        }
      ],
      "name": "transferOwnership",
      "outputs": [],
      "stateMutability": "nonpayable",
      "type": "function"
    },
    {
      "inputs": [
        {
          "internalType": "uint256",
          "name": "_mintAmount",
          "type": "uint256"
        }
      ],
      "name": "mint",
      "outputs": [],
      "stateMutability": "payable",
      "type": "function"
    },
    {
      "inputs": [
        {
          "internalType": "address",
          "name": "_owner",
          "type": "address"
        }
      ],
      "name": "walletOfOwner",
      "outputs": [
        {
          "internalType": "uint256[]",
          "name": "",
          "type": "uint256[]"
        }
      ],
      "stateMutability": "view",
      "type": "function"
    },
    {
      "inputs": [
        {
          "internalType": "uint256",
          "name": "tokenId",
          "type": "uint256"
        }
      ],
      "name": "tokenURI",
      "outputs": [
        {
          "internalType": "string",
          "name": "",
          "type": "string"
        }
      ],
      "stateMutability": "view",
      "type": "function"
    },
    {
      "inputs": [],
      "name": "reveal",
      "outputs": [],
      "stateMutability": "nonpayable",
      "type": "function"
    },
    {
      "inputs": [
        {
          "internalType": "uint256",
          "name": "_newCost",
          "type": "uint256"
        }
      ],
      "name": "setCost",
      "outputs": [],
      "stateMutability": "nonpayable",
      "type": "function"
    },
    {
      "inputs": [
        {
          "internalType": "uint256",
          "name": "_newmaxMintAmount",
          "type": "uint256"
        }
      ],
      "name": "setmaxMintAmount",
      "outputs": [],
      "stateMutability": "nonpayable",
      "type": "function"
    },
    {
      "inputs": [
        {
          "internalType": "string",
          "name": "_notRevealedURI",
          "type": "string"
        }
      ],
      "name": "setNotRevealedURI",
      "outputs": [],
      "stateMutability": "nonpayable",
      "type": "function"
    },
    {
      "inputs": [
        {
          "internalType": "string",
          "name": "_newBaseURI",
          "type": "string"
        }
      ],
      "name": "setBaseURI",
      "outputs": [],
      "stateMutability": "nonpayable",
      "type": "function"
    },
    {
      "inputs": [
        {
          "internalType": "string",
          "name": "_newBaseExtension",
          "type": "string"
        }
      ],
      "name": "setBaseExtension",
      "outputs": [],
      "stateMutability": "nonpayable",
      "type": "function"
    },
    {
      "inputs": [],
      "name": "pause",
      "outputs": [],
      "stateMutability": "nonpayable",
      "type": "function"
    },
    {
      "inputs": [],
      "name": "unpause",
      "outputs": [],
      "stateMutability": "nonpayable",
      "type": "function"
    },
    {
      "inputs": [],
      "name": "withdraw",
      "outputs": [],
      "stateMutability": "payable",
      "type": "function"
    }
  ],
  "bytecode": "0x60806040526040518060400160405280600581526020017f2e6a736f6e000000000000000000000000000000000000000000000000000000815250600c908051906020019062000051929190620003a0565b506000600d556000601060006101000a81548160ff0219169083151502179055503480156200007f57600080fd5b5060405162004eae38038062004eae8339818101604052810190620000a59190620004e5565b83838160009080519060200190620000bf929190620003a0565b508060019080519060200190620000d8929190620003a0565b5050506000600a60006101000a81548160ff021916908315150217905550620001166200010a6200015260201b60201c565b6200015a60201b60201c565b85600e8190555084600f8190555062000135826200022060201b60201c565b6200014681620002cb60201b60201c565b50505050505062000828565b600033905090565b6000600a60019054906101000a900473ffffffffffffffffffffffffffffffffffffffff16905081600a60016101000a81548173ffffffffffffffffffffffffffffffffffffffff021916908373ffffffffffffffffffffffffffffffffffffffff1602179055508173ffffffffffffffffffffffffffffffffffffffff168173ffffffffffffffffffffffffffffffffffffffff167f8be0079c531659141344cd1fd0a4f28419497f9722a3daafe3b4186f6b6457e060405160405180910390a35050565b620002306200015260201b60201c565b73ffffffffffffffffffffffffffffffffffffffff16620002566200037660201b60201c565b73ffffffffffffffffffffffffffffffffffffffff1614620002af576040517f08c379a0000000000000000000000000000000000000000000000000000000008152600401620002a69062000624565b60405180910390fd5b80600b9080519060200190620002c7929190620003a0565b5050565b620002db6200015260201b60201c565b73ffffffffffffffffffffffffffffffffffffffff16620003016200037660201b60201c565b73ffffffffffffffffffffffffffffffffffffffff16146200035a576040517f08c379a0000000000000000000000000000000000000000000000000000000008152600401620003519062000624565b60405180910390fd5b806011908051906020019062000372929190620003a0565b5050565b6000600a60019054906101000a900473ffffffffffffffffffffffffffffffffffffffff16905090565b828054620003ae90620006f6565b90600052602060002090601f016020900481019282620003d257600085556200041e565b82601f10620003ed57805160ff19168380011785556200041e565b828001600101855582156200041e579182015b828111156200041d57825182559160200191906001019062000400565b5b5090506200042d919062000431565b5090565b5b808211156200044c57600081600090555060010162000432565b5090565b60006200046762000461846200066f565b62000646565b905082815260208101848484011115620004865762000485620007c5565b5b62000493848285620006c0565b509392505050565b600082601f830112620004b357620004b2620007c0565b5b8151620004c584826020860162000450565b91505092915050565b600081519050620004df816200080e565b92915050565b60008060008060008060c08789031215620005055762000504620007cf565b5b60006200051589828a01620004ce565b96505060206200052889828a01620004ce565b955050604087015167ffffffffffffffff8111156200054c576200054b620007ca565b5b6200055a89828a016200049b565b945050606087015167ffffffffffffffff8111156200057e576200057d620007ca565b5b6200058c89828a016200049b565b935050608087015167ffffffffffffffff811115620005b057620005af620007ca565b5b620005be89828a016200049b565b92505060a087015167ffffffffffffffff811115620005e257620005e1620007ca565b5b620005f089828a016200049b565b9150509295509295509295565b60006200060c602083620006a5565b91506200061982620007e5565b602082019050919050565b600060208201905081810360008301526200063f81620005fd565b9050919050565b60006200065262000665565b90506200066082826200072c565b919050565b6000604051905090565b600067ffffffffffffffff8211156200068d576200068c62000791565b5b6200069882620007d4565b9050602081019050919050565b600082825260208201905092915050565b6000819050919050565b60005b83811015620006e0578082015181840152602081019050620006c3565b83811115620006f0576000848401525b50505050565b600060028204905060018216806200070f57607f821691505b6020821081141562000726576200072562000762565b5b50919050565b6200073782620007d4565b810181811067ffffffffffffffff8211171562000759576200075862000791565b5b80604052505050565b7f4e487b7100000000000000000000000000000000000000000000000000000000600052602260045260246000fd5b7f4e487b7100000000000000000000000000000000000000000000000000000000600052604160045260246000fd5b600080fd5b600080fd5b600080fd5b600080fd5b6000601f19601f8301169050919050565b7f4f776e61626c653a2063616c6c6572206973206e6f7420746865206f776e6572600082015250565b6200081981620006b6565b81146200082557600080fd5b50565b61467680620008386000396000f3fe60806040526004361061021a5760003560e01c80635c975abb11610123578063a22cb465116100ab578063d5abeb011161006f578063d5abeb011461077f578063da3ef23f146107aa578063e985e9c5146107d3578063f2c4ce1e14610810578063f2fde38b146108395761021a565b8063a22cb465146106ae578063a475b5dd146106d7578063b88d4fde146106ee578063c668286214610717578063c87b56dd146107425761021a565b80637f00c7a6116100f25780637f00c7a6146105fc5780638456cb59146106255780638da5cb5b1461063c57806395d89b4114610667578063a0712d68146106925761021a565b80635c975abb146105405780636352211e1461056b57806370a08231146105a8578063715018a6146105e55761021a565b80632f745c59116101a6578063438b630011610175578063438b63001461044957806344a0d68a146104865780634f6ccce7146104af57806351830227146104ec57806355f804b3146105175761021a565b80632f745c59146103c25780633ccfd60b146103ff5780633f4ba83a1461040957806342842e0e146104205761021a565b8063095ea7b3116101ed578063095ea7b3146102ef57806313faede61461031857806318160ddd14610343578063239c70ae1461036e57806323b872dd146103995761021a565b806301ffc9a71461021f57806306fdde031461025c578063081812fc14610287578063081c8c44146102c4575b600080fd5b34801561022b57600080fd5b5061024660048036038101906102419190613265565b610862565b60405161025391906138b7565b60405180910390f35b34801561026857600080fd5b506102716108dc565b60405161027e91906138d2565b60405180910390f35b34801561029357600080fd5b506102ae60048036038101906102a99190613308565b61096e565b6040516102bb919061382e565b60405180910390f35b3480156102d057600080fd5b506102d96109f3565b6040516102e691906138d2565b60405180910390f35b3480156102fb57600080fd5b5061031660048036038101906103119190613225565b610a81565b005b34801561032457600080fd5b5061032d610b99565b60405161033a9190613b74565b60405180910390f35b34801561034f57600080fd5b50610358610b9f565b6040516103659190613b74565b60405180910390f35b34801561037a57600080fd5b50610383610bac565b6040516103909190613b74565b60405180910390f35b3480156103a557600080fd5b506103c060048036038101906103bb919061310f565b610bb2565b005b3480156103ce57600080fd5b506103e960048036038101906103e49190613225565b610c12565b6040516103f69190613b74565b60405180910390f35b610407610cb7565b005b34801561041557600080fd5b5061041e610db3565b005b34801561042c57600080fd5b506104476004803603810190610442919061310f565b610e39565b005b34801561045557600080fd5b50610470600480360381019061046b91906130a2565b610e59565b60405161047d9190613895565b60405180910390f35b34801561049257600080fd5b506104ad60048036038101906104a89190613308565b610f07565b005b3480156104bb57600080fd5b506104d660048036038101906104d19190613308565b610f8d565b6040516104e39190613b74565b60405180910390f35b3480156104f857600080fd5b50610501610ffe565b60405161050e91906138b7565b60405180910390f35b34801561052357600080fd5b5061053e600480360381019061053991906132bf565b611011565b005b34801561054c57600080fd5b506105556110a7565b60405161056291906138b7565b60405180910390f35b34801561057757600080fd5b50610592600480360381019061058d9190613308565b6110be565b60405161059f919061382e565b60405180910390f35b3480156105b457600080fd5b506105cf60048036038101906105ca91906130a2565b611170565b6040516105dc9190613b74565b60405180910390f35b3480156105f157600080fd5b506105fa611228565b005b34801561060857600080fd5b50610623600480360381019061061e9190613308565b6112b0565b005b34801561063157600080fd5b5061063a611336565b005b34801561064857600080fd5b506106516113bc565b60405161065e919061382e565b60405180910390f35b34801561067357600080fd5b5061067c6113e6565b60405161068991906138d2565b60405180910390f35b6106ac60048036038101906106a79190613308565b611478565b005b3480156106ba57600080fd5b506106d560048036038101906106d091906131e5565b61154a565b005b3480156106e357600080fd5b506106ec611560565b005b3480156106fa57600080fd5b5061071560048036038101906107109190613162565b6115f9565b005b34801561072357600080fd5b5061072c61165b565b60405161073991906138d2565b60405180910390f35b34801561074e57600080fd5b5061076960048036038101906107649190613308565b6116e9565b60405161077691906138d2565b60405180910390f35b34801561078b57600080fd5b50610794611842565b6040516107a19190613b74565b60405180910390f35b3480156107b657600080fd5b506107d160048036038101906107cc91906132bf565b611848565b005b3480156107df57600080fd5b506107fa60048036038101906107f591906130cf565b6118de565b60405161080791906138b7565b60405180910390f35b34801561081c57600080fd5b50610837600480360381019061083291906132bf565b611972565b005b34801561084557600080fd5b50610860600480360381019061085b91906130a2565b611a08565b005b60007f780e9d63000000000000000000000000000000000000000000000000000000007bffffffffffffffffffffffffffffffffffffffffffffffffffffffff1916827bffffffffffffffffffffffffffffffffffffffffffffffffffffffff191614806108d557506108d482611b00565b5b9050919050565b6060600080546108eb90613e7d565b80601f016020809104026020016040519081016040528092919081815260200182805461091790613e7d565b80156109645780601f1061093957610100808354040283529160200191610964565b820191906000526020600020905b81548152906001019060200180831161094757829003601f168201915b5050505050905090565b600061097982611be2565b6109b8576040517f08c379a00000000000000000000000000000000000000000000000000000000081526004016109af90613ab4565b60405180910390fd5b6004600083815260200190815260200160002060009054906101000a900473ffffffffffffffffffffffffffffffffffffffff169050919050565b60118054610a0090613e7d565b80601f0160208091040260200160405190810160405280929190818152602001828054610a2c90613e7d565b8015610a795780601f10610a4e57610100808354040283529160200191610a79565b820191906000526020600020905b815481529060010190602001808311610a5c57829003601f168201915b505050505081565b6000610a8c826110be565b90508073ffffffffffffffffffffffffffffffffffffffff168373ffffffffffffffffffffffffffffffffffffffff161415610afd576040517f08c379a0000000000000000000000000000000000000000000000000000000008152600401610af490613b14565b60405180910390fd5b8073ffffffffffffffffffffffffffffffffffffffff16610b1c611c4e565b73ffffffffffffffffffffffffffffffffffffffff161480610b4b5750610b4a81610b45611c4e565b6118de565b5b610b8a576040517f08c379a0000000000000000000000000000000000000000000000000000000008152600401610b8190613a34565b60405180910390fd5b610b948383611c56565b505050565b600d5481565b6000600880549050905090565b600f5481565b610bc3610bbd611c4e565b82611d0f565b610c02576040517f08c379a0000000000000000000000000000000000000000000000000000000008152600401610bf990613b34565b60405180910390fd5b610c0d838383611ded565b505050565b6000610c1d83611170565b8210610c5e576040517f08c379a0000000000000000000000000000000000000000000000000000000008152600401610c5590613914565b60405180910390fd5b600660008473ffffffffffffffffffffffffffffffffffffffff1673ffffffffffffffffffffffffffffffffffffffff168152602001908152602001600020600083815260200190815260200160002054905092915050565b610cbf611c4e565b73ffffffffffffffffffffffffffffffffffffffff16610cdd6113bc565b73ffffffffffffffffffffffffffffffffffffffff1614610d33576040517f08c379a0000000000000000000000000000000000000000000000000000000008152600401610d2a90613ad4565b60405180910390fd5b6000610d3d6113bc565b73ffffffffffffffffffffffffffffffffffffffff1647604051610d6090613819565b60006040518083038185875af1925050503d8060008114610d9d576040519150601f19603f3d011682016040523d82523d6000602084013e610da2565b606091505b5050905080610db057600080fd5b50565b610dbb611c4e565b73ffffffffffffffffffffffffffffffffffffffff16610dd96113bc565b73ffffffffffffffffffffffffffffffffffffffff1614610e2f576040517f08c379a0000000000000000000000000000000000000000000000000000000008152600401610e2690613ad4565b60405180910390fd5b610e37612054565b565b610e54838383604051806020016040528060008152506115f9565b505050565b60606000610e6683611170565b905060008167ffffffffffffffff811115610e8457610e83614045565b5b604051908082528060200260200182016040528015610eb25781602001602082028036833780820191505090505b50905060005b82811015610efc57610eca8582610c12565b828281518110610edd57610edc614016565b5b6020026020010181815250508080610ef490613ee0565b915050610eb8565b508092505050919050565b610f0f611c4e565b73ffffffffffffffffffffffffffffffffffffffff16610f2d6113bc565b73ffffffffffffffffffffffffffffffffffffffff1614610f83576040517f08c379a0000000000000000000000000000000000000000000000000000000008152600401610f7a90613ad4565b60405180910390fd5b80600d8190555050565b6000610f97610b9f565b8210610fd8576040517f08c379a0000000000000000000000000000000000000000000000000000000008152600401610fcf90613b54565b60405180910390fd5b60088281548110610fec57610feb614016565b5b90600052602060002001549050919050565b601060009054906101000a900460ff1681565b611019611c4e565b73ffffffffffffffffffffffffffffffffffffffff166110376113bc565b73ffffffffffffffffffffffffffffffffffffffff161461108d576040517f08c379a000000000000000000000000000000000000000000000000000000000815260040161108490613ad4565b60405180910390fd5b80600b90805190602001906110a3929190612eb6565b5050565b6000600a60009054906101000a900460ff16905090565b6000806002600084815260200190815260200160002060009054906101000a900473ffffffffffffffffffffffffffffffffffffffff169050600073ffffffffffffffffffffffffffffffffffffffff168173ffffffffffffffffffffffffffffffffffffffff161415611167576040517f08c379a000000000000000000000000000000000000000000000000000000000815260040161115e90613a74565b60405180910390fd5b80915050919050565b60008073ffffffffffffffffffffffffffffffffffffffff168273ffffffffffffffffffffffffffffffffffffffff1614156111e1576040517f08c379a00000000000000000000000000000000000000000000000000000000081526004016111d890613a54565b60405180910390fd5b600360008373ffffffffffffffffffffffffffffffffffffffff1673ffffffffffffffffffffffffffffffffffffffff168152602001908152602001600020549050919050565b611230611c4e565b73ffffffffffffffffffffffffffffffffffffffff1661124e6113bc565b73ffffffffffffffffffffffffffffffffffffffff16146112a4576040517f08c379a000000000000000000000000000000000000000000000000000000000815260040161129b90613ad4565b60405180910390fd5b6112ae60006120f6565b565b6112b8611c4e565b73ffffffffffffffffffffffffffffffffffffffff166112d66113bc565b73ffffffffffffffffffffffffffffffffffffffff161461132c576040517f08c379a000000000000000000000000000000000000000000000000000000000815260040161132390613ad4565b60405180910390fd5b80600f8190555050565b61133e611c4e565b73ffffffffffffffffffffffffffffffffffffffff1661135c6113bc565b73ffffffffffffffffffffffffffffffffffffffff16146113b2576040517f08c379a00000000000000000000000000000000000000000000000000000000081526004016113a990613ad4565b60405180910390fd5b6113ba6121bc565b565b6000600a60019054906101000a900473ffffffffffffffffffffffffffffffffffffffff16905090565b6060600180546113f590613e7d565b80601f016020809104026020016040519081016040528092919081815260200182805461142190613e7d565b801561146e5780601f106114435761010080835404028352916020019161146e565b820191906000526020600020905b81548152906001019060200180831161145157829003601f168201915b5050505050905090565b6000611482610b9f565b90506000821161149157600080fd5b600f548211156114a057600080fd5b600e5482826114af9190613cb2565b11156114ba57600080fd5b6114c26113bc565b73ffffffffffffffffffffffffffffffffffffffff163373ffffffffffffffffffffffffffffffffffffffff161461150f5781600d546115029190613d39565b34101561150e57600080fd5b5b6000600190505b8281116115455761153233828461152d9190613cb2565b61225f565b808061153d90613ee0565b915050611516565b505050565b61155c611555611c4e565b838361227d565b5050565b611568611c4e565b73ffffffffffffffffffffffffffffffffffffffff166115866113bc565b73ffffffffffffffffffffffffffffffffffffffff16146115dc576040517f08c379a00000000000000000000000000000000000000000000000000000000081526004016115d390613ad4565b60405180910390fd5b6001601060006101000a81548160ff021916908315150217905550565b61160a611604611c4e565b83611d0f565b611649576040517f08c379a000000000000000000000000000000000000000000000000000000000815260040161164090613b34565b60405180910390fd5b611655848484846123ea565b50505050565b600c805461166890613e7d565b80601f016020809104026020016040519081016040528092919081815260200182805461169490613e7d565b80156116e15780601f106116b6576101008083540402835291602001916116e1565b820191906000526020600020905b8154815290600101906020018083116116c457829003601f168201915b505050505081565b60606116f482611be2565b611733576040517f08c379a000000000000000000000000000000000000000000000000000000000815260040161172a90613af4565b60405180910390fd5b60001515601060009054906101000a900460ff16151514156117e1576011805461175c90613e7d565b80601f016020809104026020016040519081016040528092919081815260200182805461178890613e7d565b80156117d55780601f106117aa576101008083540402835291602001916117d5565b820191906000526020600020905b8154815290600101906020018083116117b857829003601f168201915b5050505050905061183d565b60006117eb612446565b9050600081511161180b5760405180602001604052806000815250611839565b80611815846124d8565b600c604051602001611829939291906137e8565b6040516020818303038152906040525b9150505b919050565b600e5481565b611850611c4e565b73ffffffffffffffffffffffffffffffffffffffff1661186e6113bc565b73ffffffffffffffffffffffffffffffffffffffff16146118c4576040517f08c379a00000000000000000000000000000000000000000000000000000000081526004016118bb90613ad4565b60405180910390fd5b80600c90805190602001906118da929190612eb6565b5050565b6000600560008473ffffffffffffffffffffffffffffffffffffffff1673ffffffffffffffffffffffffffffffffffffffff16815260200190815260200160002060008373ffffffffffffffffffffffffffffffffffffffff1673ffffffffffffffffffffffffffffffffffffffff16815260200190815260200160002060009054906101000a900460ff16905092915050565b61197a611c4e565b73ffffffffffffffffffffffffffffffffffffffff166119986113bc565b73ffffffffffffffffffffffffffffffffffffffff16146119ee576040517f08c379a00000000000000000000000000000000000000000000000000000000081526004016119e590613ad4565b60405180910390fd5b8060119080519060200190611a04929190612eb6565b5050565b611a10611c4e565b73ffffffffffffffffffffffffffffffffffffffff16611a2e6113bc565b73ffffffffffffffffffffffffffffffffffffffff1614611a84576040517f08c379a0000000000000000000000000000000000000000000000000000000008152600401611a7b90613ad4565b60405180910390fd5b600073ffffffffffffffffffffffffffffffffffffffff168173ffffffffffffffffffffffffffffffffffffffff161415611af4576040517f08c379a0000000000000000000000000000000000000000000000000000000008152600401611aeb90613954565b60405180910390fd5b611afd816120f6565b50565b60007f80ac58cd000000000000000000000000000000000000000000000000000000007bffffffffffffffffffffffffffffffffffffffffffffffffffffffff1916827bffffffffffffffffffffffffffffffffffffffffffffffffffffffff19161480611bcb57507f5b5e139f000000000000000000000000000000000000000000000000000000007bffffffffffffffffffffffffffffffffffffffffffffffffffffffff1916827bffffffffffffffffffffffffffffffffffffffffffffffffffffffff1916145b80611bdb5750611bda82612639565b5b9050919050565b60008073ffffffffffffffffffffffffffffffffffffffff166002600084815260200190815260200160002060009054906101000a900473ffffffffffffffffffffffffffffffffffffffff1673ffffffffffffffffffffffffffffffffffffffff1614159050919050565b600033905090565b816004600083815260200190815260200160002060006101000a81548173ffffffffffffffffffffffffffffffffffffffff021916908373ffffffffffffffffffffffffffffffffffffffff160217905550808273ffffffffffffffffffffffffffffffffffffffff16611cc9836110be565b73ffffffffffffffffffffffffffffffffffffffff167f8c5be1e5ebec7d5bd14f71427d1e84f3dd0314c0f7b2291e5b200ac8c7c3b92560405160405180910390a45050565b6000611d1a82611be2565b611d59576040517f08c379a0000000000000000000000000000000000000000000000000000000008152600401611d50906139f4565b60405180910390fd5b6000611d64836110be565b90508073ffffffffffffffffffffffffffffffffffffffff168473ffffffffffffffffffffffffffffffffffffffff161480611dd357508373ffffffffffffffffffffffffffffffffffffffff16611dbb8461096e565b73ffffffffffffffffffffffffffffffffffffffff16145b80611de45750611de381856118de565b5b91505092915050565b8273ffffffffffffffffffffffffffffffffffffffff16611e0d826110be565b73ffffffffffffffffffffffffffffffffffffffff1614611e63576040517f08c379a0000000000000000000000000000000000000000000000000000000008152600401611e5a90613974565b60405180910390fd5b600073ffffffffffffffffffffffffffffffffffffffff168273ffffffffffffffffffffffffffffffffffffffff161415611ed3576040517f08c379a0000000000000000000000000000000000000000000000000000000008152600401611eca906139b4565b60405180910390fd5b611ede8383836126a3565b611ee9600082611c56565b6001600360008573ffffffffffffffffffffffffffffffffffffffff1673ffffffffffffffffffffffffffffffffffffffff1681526020019081526020016000206000828254611f399190613d93565b925050819055506001600360008473ffffffffffffffffffffffffffffffffffffffff1673ffffffffffffffffffffffffffffffffffffffff1681526020019081526020016000206000828254611f909190613cb2565b92505081905550816002600083815260200190815260200160002060006101000a81548173ffffffffffffffffffffffffffffffffffffffff021916908373ffffffffffffffffffffffffffffffffffffffff160217905550808273ffffffffffffffffffffffffffffffffffffffff168473ffffffffffffffffffffffffffffffffffffffff167fddf252ad1be2c89b69c2b068fc378daa952ba7f163c4a11628f55a4df523b3ef60405160405180910390a461204f8383836127b7565b505050565b61205c6110a7565b61209b576040517f08c379a0000000000000000000000000000000000000000000000000000000008152600401612092906138f4565b60405180910390fd5b6000600a60006101000a81548160ff0219169083151502179055507f5db9ee0a495bf2e6ff9c91a7834c1ba4fdd244a5e8aa4e537bd38aeae4b073aa6120df611c4e565b6040516120ec919061382e565b60405180910390a1565b6000600a60019054906101000a900473ffffffffffffffffffffffffffffffffffffffff16905081600a60016101000a81548173ffffffffffffffffffffffffffffffffffffffff021916908373ffffffffffffffffffffffffffffffffffffffff1602179055508173ffffffffffffffffffffffffffffffffffffffff168173ffffffffffffffffffffffffffffffffffffffff167f8be0079c531659141344cd1fd0a4f28419497f9722a3daafe3b4186f6b6457e060405160405180910390a35050565b6121c46110a7565b15612204576040517f08c379a00000000000000000000000000000000000000000000000000000000081526004016121fb90613a14565b60405180910390fd5b6001600a60006101000a81548160ff0219169083151502179055507f62e78cea01bee320cd4e420270b5ea74000d11b0c9f74754ebdbfc544b05a258612248611c4e565b604051612255919061382e565b60405180910390a1565b6122798282604051806020016040528060008152506127bc565b5050565b8173ffffffffffffffffffffffffffffffffffffffff168373ffffffffffffffffffffffffffffffffffffffff1614156122ec576040517f08c379a00000000000000000000000000000000000000000000000000000000081526004016122e3906139d4565b60405180910390fd5b80600560008573ffffffffffffffffffffffffffffffffffffffff1673ffffffffffffffffffffffffffffffffffffffff16815260200190815260200160002060008473ffffffffffffffffffffffffffffffffffffffff1673ffffffffffffffffffffffffffffffffffffffff16815260200190815260200160002060006101000a81548160ff0219169083151502179055508173ffffffffffffffffffffffffffffffffffffffff168373ffffffffffffffffffffffffffffffffffffffff167f17307eab39ab6107e8899845ad3d59bd9653f200f220920489ca2b5937696c31836040516123dd91906138b7565b60405180910390a3505050565b6123f5848484611ded565b61240184848484612817565b612440576040517f08c379a000000000000000000000000000000000000000000000000000000000815260040161243790613934565b60405180910390fd5b50505050565b6060600b805461245590613e7d565b80601f016020809104026020016040519081016040528092919081815260200182805461248190613e7d565b80156124ce5780601f106124a3576101008083540402835291602001916124ce565b820191906000526020600020905b8154815290600101906020018083116124b157829003601f168201915b5050505050905090565b60606000821415612520576040518060400160405280600181526020017f30000000000000000000000000000000000000000000000000000000000000008152509050612634565b600082905060005b6000821461255257808061253b90613ee0565b915050600a8261254b9190613d08565b9150612528565b60008167ffffffffffffffff81111561256e5761256d614045565b5b6040519080825280601f01601f1916602001820160405280156125a05781602001600182028036833780820191505090505b5090505b6000851461262d576001826125b99190613d93565b9150600a856125c89190613f29565b60306125d49190613cb2565b60f81b8183815181106125ea576125e9614016565b5b60200101907effffffffffffffffffffffffffffffffffffffffffffffffffffffffffffff1916908160001a905350600a856126269190613d08565b94506125a4565b8093505050505b919050565b60007f01ffc9a7000000000000000000000000000000000000000000000000000000007bffffffffffffffffffffffffffffffffffffffffffffffffffffffff1916827bffffffffffffffffffffffffffffffffffffffffffffffffffffffff1916149050919050565b6126ae8383836129ae565b600073ffffffffffffffffffffffffffffffffffffffff168373ffffffffffffffffffffffffffffffffffffffff1614156126f1576126ec816129b3565b612730565b8173ffffffffffffffffffffffffffffffffffffffff168373ffffffffffffffffffffffffffffffffffffffff161461272f5761272e83826129fc565b5b5b600073ffffffffffffffffffffffffffffffffffffffff168273ffffffffffffffffffffffffffffffffffffffff1614156127735761276e81612b69565b6127b2565b8273ffffffffffffffffffffffffffffffffffffffff168273ffffffffffffffffffffffffffffffffffffffff16146127b1576127b08282612c3a565b5b5b505050565b505050565b6127c68383612cb9565b6127d36000848484612817565b612812576040517f08c379a000000000000000000000000000000000000000000000000000000000815260040161280990613934565b60405180910390fd5b505050565b60006128388473ffffffffffffffffffffffffffffffffffffffff16612e93565b156129a1578373ffffffffffffffffffffffffffffffffffffffff1663150b7a02612861611c4e565b8786866040518563ffffffff1660e01b81526004016128839493929190613849565b602060405180830381600087803b15801561289d57600080fd5b505af19250505080156128ce57506040513d601f19601f820116820180604052508101906128cb9190613292565b60015b612951573d80600081146128fe576040519150601f19603f3d011682016040523d82523d6000602084013e612903565b606091505b50600081511415612949576040517f08c379a000000000000000000000000000000000000000000000000000000000815260040161294090613934565b60405180910390fd5b805181602001fd5b63150b7a0260e01b7bffffffffffffffffffffffffffffffffffffffffffffffffffffffff1916817bffffffffffffffffffffffffffffffffffffffffffffffffffffffff1916149150506129a6565b600190505b949350505050565b505050565b6008805490506009600083815260200190815260200160002081905550600881908060018154018082558091505060019003906000526020600020016000909190919091505550565b60006001612a0984611170565b612a139190613d93565b9050600060076000848152602001908152602001600020549050818114612af8576000600660008673ffffffffffffffffffffffffffffffffffffffff1673ffffffffffffffffffffffffffffffffffffffff168152602001908152602001600020600084815260200190815260200160002054905080600660008773ffffffffffffffffffffffffffffffffffffffff1673ffffffffffffffffffffffffffffffffffffffff168152602001908152602001600020600084815260200190815260200160002081905550816007600083815260200190815260200160002081905550505b6007600084815260200190815260200160002060009055600660008573ffffffffffffffffffffffffffffffffffffffff1673ffffffffffffffffffffffffffffffffffffffff16815260200190815260200160002060008381526020019081526020016000206000905550505050565b60006001600880549050612b7d9190613d93565b9050600060096000848152602001908152602001600020549050600060088381548110612bad57612bac614016565b5b906000526020600020015490508060088381548110612bcf57612bce614016565b5b906000526020600020018190555081600960008381526020019081526020016000208190555060096000858152602001908152602001600020600090556008805480612c1e57612c1d613fe7565b5b6001900381819060005260206000200160009055905550505050565b6000612c4583611170565b905081600660008573ffffffffffffffffffffffffffffffffffffffff1673ffffffffffffffffffffffffffffffffffffffff168152602001908152602001600020600083815260200190815260200160002081905550806007600084815260200190815260200160002081905550505050565b600073ffffffffffffffffffffffffffffffffffffffff168273ffffffffffffffffffffffffffffffffffffffff161415612d29576040517f08c379a0000000000000000000000000000000000000000000000000000000008152600401612d2090613a94565b60405180910390fd5b612d3281611be2565b15612d72576040517f08c379a0000000000000000000000000000000000000000000000000000000008152600401612d6990613994565b60405180910390fd5b612d7e600083836126a3565b6001600360008473ffffffffffffffffffffffffffffffffffffffff1673ffffffffffffffffffffffffffffffffffffffff1681526020019081526020016000206000828254612dce9190613cb2565b92505081905550816002600083815260200190815260200160002060006101000a81548173ffffffffffffffffffffffffffffffffffffffff021916908373ffffffffffffffffffffffffffffffffffffffff160217905550808273ffffffffffffffffffffffffffffffffffffffff16600073ffffffffffffffffffffffffffffffffffffffff167fddf252ad1be2c89b69c2b068fc378daa952ba7f163c4a11628f55a4df523b3ef60405160405180910390a4612e8f600083836127b7565b5050565b6000808273ffffffffffffffffffffffffffffffffffffffff163b119050919050565b828054612ec290613e7d565b90600052602060002090601f016020900481019282612ee45760008555612f2b565b82601f10612efd57805160ff1916838001178555612f2b565b82800160010185558215612f2b579182015b82811115612f2a578251825591602001919060010190612f0f565b5b509050612f389190612f3c565b5090565b5b80821115612f55576000816000905550600101612f3d565b5090565b6000612f6c612f6784613bb4565b613b8f565b905082815260208101848484011115612f8857612f87614079565b5b612f93848285613e3b565b509392505050565b6000612fae612fa984613be5565b613b8f565b905082815260208101848484011115612fca57612fc9614079565b5b612fd5848285613e3b565b509392505050565b600081359050612fec816145e4565b92915050565b600081359050613001816145fb565b92915050565b60008135905061301681614612565b92915050565b60008151905061302b81614612565b92915050565b600082601f83011261304657613045614074565b5b8135613056848260208601612f59565b91505092915050565b600082601f83011261307457613073614074565b5b8135613084848260208601612f9b565b91505092915050565b60008135905061309c81614629565b92915050565b6000602082840312156130b8576130b7614083565b5b60006130c684828501612fdd565b91505092915050565b600080604083850312156130e6576130e5614083565b5b60006130f485828601612fdd565b925050602061310585828601612fdd565b9150509250929050565b60008060006060848603121561312857613127614083565b5b600061313686828701612fdd565b935050602061314786828701612fdd565b92505060406131588682870161308d565b9150509250925092565b6000806000806080858703121561317c5761317b614083565b5b600061318a87828801612fdd565b945050602061319b87828801612fdd565b93505060406131ac8782880161308d565b925050606085013567ffffffffffffffff8111156131cd576131cc61407e565b5b6131d987828801613031565b91505092959194509250565b600080604083850312156131fc576131fb614083565b5b600061320a85828601612fdd565b925050602061321b85828601612ff2565b9150509250929050565b6000806040838503121561323c5761323b614083565b5b600061324a85828601612fdd565b925050602061325b8582860161308d565b9150509250929050565b60006020828403121561327b5761327a614083565b5b600061328984828501613007565b91505092915050565b6000602082840312156132a8576132a7614083565b5b60006132b68482850161301c565b91505092915050565b6000602082840312156132d5576132d4614083565b5b600082013567ffffffffffffffff8111156132f3576132f261407e565b5b6132ff8482850161305f565b91505092915050565b60006020828403121561331e5761331d614083565b5b600061332c8482850161308d565b91505092915050565b600061334183836137ca565b60208301905092915050565b61335681613dc7565b82525050565b600061336782613c3b565b6133718185613c69565b935061337c83613c16565b8060005b838110156133ad5781516133948882613335565b975061339f83613c5c565b925050600181019050613380565b5085935050505092915050565b6133c381613dd9565b82525050565b60006133d482613c46565b6133de8185613c7a565b93506133ee818560208601613e4a565b6133f781614088565b840191505092915050565b600061340d82613c51565b6134178185613c96565b9350613427818560208601613e4a565b61343081614088565b840191505092915050565b600061344682613c51565b6134508185613ca7565b9350613460818560208601613e4a565b80840191505092915050565b6000815461347981613e7d565b6134838186613ca7565b9450600182166000811461349e57600181146134af576134e2565b60ff198316865281860193506134e2565b6134b885613c26565b60005b838110156134da578154818901526001820191506020810190506134bb565b838801955050505b50505092915050565b60006134f8601483613c96565b915061350382614099565b602082019050919050565b600061351b602b83613c96565b9150613526826140c2565b604082019050919050565b600061353e603283613c96565b915061354982614111565b604082019050919050565b6000613561602683613c96565b915061356c82614160565b604082019050919050565b6000613584602583613c96565b915061358f826141af565b604082019050919050565b60006135a7601c83613c96565b91506135b2826141fe565b602082019050919050565b60006135ca602483613c96565b91506135d582614227565b604082019050919050565b60006135ed601983613c96565b91506135f882614276565b602082019050919050565b6000613610602c83613c96565b915061361b8261429f565b604082019050919050565b6000613633601083613c96565b915061363e826142ee565b602082019050919050565b6000613656603883613c96565b915061366182614317565b604082019050919050565b6000613679602a83613c96565b915061368482614366565b604082019050919050565b600061369c602983613c96565b91506136a7826143b5565b604082019050919050565b60006136bf602083613c96565b91506136ca82614404565b602082019050919050565b60006136e2602c83613c96565b91506136ed8261442d565b604082019050919050565b6000613705602083613c96565b91506137108261447c565b602082019050919050565b6000613728602f83613c96565b9150613733826144a5565b604082019050919050565b600061374b602183613c96565b9150613756826144f4565b604082019050919050565b600061376e600083613c8b565b915061377982614543565b600082019050919050565b6000613791603183613c96565b915061379c82614546565b604082019050919050565b60006137b4602c83613c96565b91506137bf82614595565b604082019050919050565b6137d381613e31565b82525050565b6137e281613e31565b82525050565b60006137f4828661343b565b9150613800828561343b565b915061380c828461346c565b9150819050949350505050565b600061382482613761565b9150819050919050565b6000602082019050613843600083018461334d565b92915050565b600060808201905061385e600083018761334d565b61386b602083018661334d565b61387860408301856137d9565b818103606083015261388a81846133c9565b905095945050505050565b600060208201905081810360008301526138af818461335c565b905092915050565b60006020820190506138cc60008301846133ba565b92915050565b600060208201905081810360008301526138ec8184613402565b905092915050565b6000602082019050818103600083015261390d816134eb565b9050919050565b6000602082019050818103600083015261392d8161350e565b9050919050565b6000602082019050818103600083015261394d81613531565b9050919050565b6000602082019050818103600083015261396d81613554565b9050919050565b6000602082019050818103600083015261398d81613577565b9050919050565b600060208201905081810360008301526139ad8161359a565b9050919050565b600060208201905081810360008301526139cd816135bd565b9050919050565b600060208201905081810360008301526139ed816135e0565b9050919050565b60006020820190508181036000830152613a0d81613603565b9050919050565b60006020820190508181036000830152613a2d81613626565b9050919050565b60006020820190508181036000830152613a4d81613649565b9050919050565b60006020820190508181036000830152613a6d8161366c565b9050919050565b60006020820190508181036000830152613a8d8161368f565b9050919050565b60006020820190508181036000830152613aad816136b2565b9050919050565b60006020820190508181036000830152613acd816136d5565b9050919050565b60006020820190508181036000830152613aed816136f8565b9050919050565b60006020820190508181036000830152613b0d8161371b565b9050919050565b60006020820190508181036000830152613b2d8161373e565b9050919050565b60006020820190508181036000830152613b4d81613784565b9050919050565b60006020820190508181036000830152613b6d816137a7565b9050919050565b6000602082019050613b8960008301846137d9565b92915050565b6000613b99613baa565b9050613ba58282613eaf565b919050565b6000604051905090565b600067ffffffffffffffff821115613bcf57613bce614045565b5b613bd882614088565b9050602081019050919050565b600067ffffffffffffffff821115613c0057613bff614045565b5b613c0982614088565b9050602081019050919050565b6000819050602082019050919050565b60008190508160005260206000209050919050565b600081519050919050565b600081519050919050565b600081519050919050565b6000602082019050919050565b600082825260208201905092915050565b600082825260208201905092915050565b600081905092915050565b600082825260208201905092915050565b600081905092915050565b6000613cbd82613e31565b9150613cc883613e31565b9250827fffffffffffffffffffffffffffffffffffffffffffffffffffffffffffffffff03821115613cfd57613cfc613f5a565b5b828201905092915050565b6000613d1382613e31565b9150613d1e83613e31565b925082613d2e57613d2d613f89565b5b828204905092915050565b6000613d4482613e31565b9150613d4f83613e31565b9250817fffffffffffffffffffffffffffffffffffffffffffffffffffffffffffffffff0483118215151615613d8857613d87613f5a565b5b828202905092915050565b6000613d9e82613e31565b9150613da983613e31565b925082821015613dbc57613dbb613f5a565b5b828203905092915050565b6000613dd282613e11565b9050919050565b60008115159050919050565b60007fffffffff0000000000000000000000000000000000000000000000000000000082169050919050565b600073ffffffffffffffffffffffffffffffffffffffff82169050919050565b6000819050919050565b82818337600083830152505050565b60005b83811015613e68578082015181840152602081019050613e4d565b83811115613e77576000848401525b50505050565b60006002820490506001821680613e9557607f821691505b60208210811415613ea957613ea8613fb8565b5b50919050565b613eb882614088565b810181811067ffffffffffffffff82111715613ed757613ed6614045565b5b80604052505050565b6000613eeb82613e31565b91507fffffffffffffffffffffffffffffffffffffffffffffffffffffffffffffffff821415613f1e57613f1d613f5a565b5b600182019050919050565b6000613f3482613e31565b9150613f3f83613e31565b925082613f4f57613f4e613f89565b5b828206905092915050565b7f4e487b7100000000000000000000000000000000000000000000000000000000600052601160045260246000fd5b7f4e487b7100000000000000000000000000000000000000000000000000000000600052601260045260246000fd5b7f4e487b7100000000000000000000000000000000000000000000000000000000600052602260045260246000fd5b7f4e487b7100000000000000000000000000000000000000000000000000000000600052603160045260246000fd5b7f4e487b7100000000000000000000000000000000000000000000000000000000600052603260045260246000fd5b7f4e487b7100000000000000000000000000000000000000000000000000000000600052604160045260246000fd5b600080fd5b600080fd5b600080fd5b600080fd5b6000601f19601f8301169050919050565b7f5061757361626c653a206e6f7420706175736564000000000000000000000000600082015250565b7f455243373231456e756d657261626c653a206f776e657220696e646578206f7560008201527f74206f6620626f756e6473000000000000000000000000000000000000000000602082015250565b7f4552433732313a207472616e7366657220746f206e6f6e20455243373231526560008201527f63656976657220696d706c656d656e7465720000000000000000000000000000602082015250565b7f4f776e61626c653a206e6577206f776e657220697320746865207a65726f206160008201527f6464726573730000000000000000000000000000000000000000000000000000602082015250565b7f4552433732313a207472616e736665722066726f6d20696e636f72726563742060008201527f6f776e6572000000000000000000000000000000000000000000000000000000602082015250565b7f4552433732313a20746f6b656e20616c7265616479206d696e74656400000000600082015250565b7f4552433732313a207472616e7366657220746f20746865207a65726f2061646460008201527f7265737300000000000000000000000000000000000000000000000000000000602082015250565b7f4552433732313a20617070726f766520746f2063616c6c657200000000000000600082015250565b7f4552433732313a206f70657261746f7220717565727920666f72206e6f6e657860008201527f697374656e7420746f6b656e0000000000000000000000000000000000000000602082015250565b7f5061757361626c653a2070617573656400000000000000000000000000000000600082015250565b7f4552433732313a20617070726f76652063616c6c6572206973206e6f74206f7760008201527f6e6572206e6f7220617070726f76656420666f7220616c6c0000000000000000602082015250565b7f4552433732313a2062616c616e636520717565727920666f7220746865207a6560008201527f726f206164647265737300000000000000000000000000000000000000000000602082015250565b7f4552433732313a206f776e657220717565727920666f72206e6f6e657869737460008201527f656e7420746f6b656e0000000000000000000000000000000000000000000000602082015250565b7f4552433732313a206d696e7420746f20746865207a65726f2061646472657373600082015250565b7f4552433732313a20617070726f76656420717565727920666f72206e6f6e657860008201527f697374656e7420746f6b656e0000000000000000000000000000000000000000602082015250565b7f4f776e61626c653a2063616c6c6572206973206e6f7420746865206f776e6572600082015250565b7f4552433732314d657461646174613a2055524920717565727920666f72206e6f60008201527f6e6578697374656e7420746f6b656e0000000000000000000000000000000000602082015250565b7f4552433732313a20617070726f76616c20746f2063757272656e74206f776e6560008201527f7200000000000000000000000000000000000000000000000000000000000000602082015250565b50565b7f4552433732313a207472616e736665722063616c6c6572206973206e6f74206f60008201527f776e6572206e6f7220617070726f766564000000000000000000000000000000602082015250565b7f455243373231456e756d657261626c653a20676c6f62616c20696e646578206f60008201527f7574206f6620626f756e64730000000000000000000000000000000000000000602082015250565b6145ed81613dc7565b81146145f857600080fd5b50565b61460481613dd9565b811461460f57600080fd5b50565b61461b81613de5565b811461462657600080fd5b50565b61463281613e31565b811461463d57600080fd5b5056fea2646970667358221220083db5a8963255ed8dffab6bec30e349e406c95f31d4dde80b1fbff6dd97e34764736f6c63430008070033",
  "immutableReferences": {},
  "source": "pragma solidity 0.8.7;\r\npragma experimental ABIEncoderV2;\r\n\r\nimport \"@openzeppelin/contracts/token/ERC721/extensions/ERC721Enumerable.sol\";\r\nimport \"@openzeppelin/contracts/security/Pausable.sol\";\r\nimport \"@openzeppelin/contracts/access/Ownable.sol\";\r\n\r\ncontract NFT is ERC721Enumerable, Pausable, Ownable {\r\n  using Strings for uint256;\r\n\r\n  string baseURI;\r\n  string public baseExtension = \".json\";\r\n  uint256 public cost = 0 ether;\r\n  uint256 public maxSupply;\r\n  uint256 public maxMintAmount;\r\n  bool public revealed = false;\r\n  string public notRevealedUri;\r\n\r\n  constructor(\r\n    uint _maxSupply,\r\n    uint _maxMintAmount,\r\n    string memory _name,\r\n    string memory _symbol,\r\n    string memory _initBaseURI,\r\n    string memory _initNotRevealedUri\r\n  ) ERC721(_name, _symbol) {\r\n    maxSupply = _maxSupply;\r\n    maxMintAmount = _maxMintAmount;\r\n    setBaseURI(_initBaseURI);\r\n    setNotRevealedURI(_initNotRevealedUri);\r\n  }\r\n\r\n  // internal\r\n  function _baseURI() internal view virtual override returns (string memory) {\r\n    return baseURI;\r\n  }\r\n\r\n  // public\r\n  function mint(uint256 _mintAmount) public payable {\r\n    uint256 supply = totalSupply();\r\n    require(_mintAmount > 0);\r\n    require(_mintAmount <= maxMintAmount);\r\n    require(supply + _mintAmount <= maxSupply);\r\n\r\n    if (msg.sender != owner()) {\r\n      require(msg.value >= cost * _mintAmount);\r\n    }\r\n\r\n    for (uint256 i = 1; i <= _mintAmount; i++) {\r\n      _safeMint(msg.sender, supply + i);\r\n    }\r\n  }\r\n\r\n  function walletOfOwner(address _owner)\r\n    public\r\n    view\r\n    returns (uint256[] memory)\r\n  {\r\n    uint256 ownerTokenCount = balanceOf(_owner);\r\n    uint256[] memory tokenIds = new uint256[](ownerTokenCount);\r\n    for (uint256 i; i < ownerTokenCount; i++) {\r\n      tokenIds[i] = tokenOfOwnerByIndex(_owner, i);\r\n    }\r\n    return tokenIds;\r\n  }\r\n\r\n  function tokenURI(uint256 tokenId)\r\n    public\r\n    view\r\n    virtual\r\n    override\r\n    returns (string memory)\r\n  {\r\n    require(\r\n      _exists(tokenId),\r\n      \"ERC721Metadata: URI query for nonexistent token\"\r\n    );\r\n    \r\n    if(revealed == false) {\r\n        return notRevealedUri;\r\n    }\r\n\r\n    string memory currentBaseURI = _baseURI();\r\n    return bytes(currentBaseURI).length > 0\r\n        ? string(abi.encodePacked(currentBaseURI, tokenId.toString(), baseExtension))\r\n        : \"\";\r\n  }\r\n\r\n  //only owner\r\n  function reveal() public onlyOwner {\r\n      revealed = true;\r\n  }\r\n  \r\n  function setCost(uint256 _newCost) public onlyOwner {\r\n    cost = _newCost;\r\n  }\r\n\r\n  function setmaxMintAmount(uint256 _newmaxMintAmount) public onlyOwner {\r\n    maxMintAmount = _newmaxMintAmount;\r\n  }\r\n  \r\n  function setNotRevealedURI(string memory _notRevealedURI) public onlyOwner {\r\n    notRevealedUri = _notRevealedURI;\r\n  }\r\n\r\n  function setBaseURI(string memory _newBaseURI) public onlyOwner {\r\n    baseURI = _newBaseURI;\r\n  }\r\n\r\n  function setBaseExtension(string memory _newBaseExtension) public onlyOwner {\r\n    baseExtension = _newBaseExtension;\r\n  }\r\n\r\n  function pause() public onlyOwner {\r\n        _pause();\r\n    }\r\n\r\n  function unpause() public onlyOwner {\r\n        _unpause();\r\n    }\r\n \r\n  function withdraw() public payable onlyOwner {\r\n    (bool os, ) = payable(owner()).call{value: address(this).balance}(\"\");\r\n    require(os);\r\n  }\r\n}",
  "sourcePath": "C:\\Users\\USER\\Desktop\\Picardy\\contracts\\RoyalitySale.sol",
  "compiler": {
    "name": "solc",
    "version": "0.8.7+commit.e28d00a7.Emscripten.clang"
  },
  "schemaVersion": "3.4.6",
  "updatedAt": "2022-04-04T07:12:50.074Z",
  "devdoc": {
    "kind": "dev",
    "methods": {
      "approve(address,uint256)": {
        "details": "See {IERC721-approve}."
      },
      "balanceOf(address)": {
        "details": "See {IERC721-balanceOf}."
      },
      "getApproved(uint256)": {
        "details": "See {IERC721-getApproved}."
      },
      "isApprovedForAll(address,address)": {
        "details": "See {IERC721-isApprovedForAll}."
      },
      "name()": {
        "details": "See {IERC721Metadata-name}."
      },
      "owner()": {
        "details": "Returns the address of the current owner."
      },
      "ownerOf(uint256)": {
        "details": "See {IERC721-ownerOf}."
      },
      "paused()": {
        "details": "Returns true if the contract is paused, and false otherwise."
      },
      "renounceOwnership()": {
        "details": "Leaves the contract without owner. It will not be possible to call `onlyOwner` functions anymore. Can only be called by the current owner. NOTE: Renouncing ownership will leave the contract without an owner, thereby removing any functionality that is only available to the owner."
      },
      "safeTransferFrom(address,address,uint256)": {
        "details": "See {IERC721-safeTransferFrom}."
      },
      "safeTransferFrom(address,address,uint256,bytes)": {
        "details": "See {IERC721-safeTransferFrom}."
      },
      "setApprovalForAll(address,bool)": {
        "details": "See {IERC721-setApprovalForAll}."
      },
      "supportsInterface(bytes4)": {
        "details": "See {IERC165-supportsInterface}."
      },
      "symbol()": {
        "details": "See {IERC721Metadata-symbol}."
      },
      "tokenByIndex(uint256)": {
        "details": "See {IERC721Enumerable-tokenByIndex}."
      },
      "tokenOfOwnerByIndex(address,uint256)": {
        "details": "See {IERC721Enumerable-tokenOfOwnerByIndex}."
      },
      "tokenURI(uint256)": {
        "details": "See {IERC721Metadata-tokenURI}."
      },
      "totalSupply()": {
        "details": "See {IERC721Enumerable-totalSupply}."
      },
      "transferFrom(address,address,uint256)": {
        "details": "See {IERC721-transferFrom}."
      },
      "transferOwnership(address)": {
        "details": "Transfers ownership of the contract to a new account (`newOwner`). Can only be called by the current owner."
      }
    },
    "version": 1
  },
  "userdoc": {
    "kind": "user",
    "methods": {},
    "version": 1
  }
}