{
  "contractName": "NftBaseV2",
  "abi": [
    {
      "inputs": [
        {
          "internalType": "uint256",
          "name": "_maxSupply",
          "type": "uint256"
        },
        {
          "internalType": "uint256",
          "name": "_maxMintAmount",
          "type": "uint256"
        },
        {
          "internalType": "uint256",
          "name": "_cost",
          "type": "uint256"
        },
        {
          "internalType": "uint256",
          "name": "_id",
          "type": "uint256"
        },
        {
          "internalType": "string",
          "name": "_name",
          "type": "string"
        },
        {
          "internalType": "string",
          "name": "_symbol",
          "type": "string"
        },
        {
          "internalType": "string",
          "name": "_initBaseURI",
          "type": "string"
        },
        {
          "internalType": "string",
          "name": "_artistName",
          "type": "string"
        },
        {
          "internalType": "address",
          "name": "_picardyAddress",
          "type": "address"
        },
        {
          "internalType": "address",
          "name": "_creator",
          "type": "address"
        }
      ],
      "stateMutability": "nonpayable",
      "type": "constructor"
    },
    {
      "anonymous": false,
      "inputs": [
        {
          "indexed": true,
          "internalType": "address",
          "name": "account",
          "type": "address"
        },
        {
          "indexed": true,
          "internalType": "address",
          "name": "operator",
          "type": "address"
        },
        {
          "indexed": false,
          "internalType": "bool",
          "name": "approved",
          "type": "bool"
        }
      ],
      "name": "ApprovalForAll",
      "type": "event"
    },
    {
      "anonymous": false,
      "inputs": [
        {
          "indexed": true,
          "internalType": "address",
          "name": "previousOwner",
          "type": "address"
        },
        {
          "indexed": true,
          "internalType": "address",
          "name": "newOwner",
          "type": "address"
        }
      ],
      "name": "OwnershipTransferred",
      "type": "event"
    },
    {
      "anonymous": false,
      "inputs": [
        {
          "indexed": false,
          "internalType": "address",
          "name": "account",
          "type": "address"
        }
      ],
      "name": "Paused",
      "type": "event"
    },
    {
      "anonymous": false,
      "inputs": [
        {
          "indexed": true,
          "internalType": "address",
          "name": "operator",
          "type": "address"
        },
        {
          "indexed": true,
          "internalType": "address",
          "name": "from",
          "type": "address"
        },
        {
          "indexed": true,
          "internalType": "address",
          "name": "to",
          "type": "address"
        },
        {
          "indexed": false,
          "internalType": "uint256[]",
          "name": "ids",
          "type": "uint256[]"
        },
        {
          "indexed": false,
          "internalType": "uint256[]",
          "name": "values",
          "type": "uint256[]"
        }
      ],
      "name": "TransferBatch",
      "type": "event"
    },
    {
      "anonymous": false,
      "inputs": [
        {
          "indexed": true,
          "internalType": "address",
          "name": "operator",
          "type": "address"
        },
        {
          "indexed": true,
          "internalType": "address",
          "name": "from",
          "type": "address"
        },
        {
          "indexed": true,
          "internalType": "address",
          "name": "to",
          "type": "address"
        },
        {
          "indexed": false,
          "internalType": "uint256",
          "name": "id",
          "type": "uint256"
        },
        {
          "indexed": false,
          "internalType": "uint256",
          "name": "value",
          "type": "uint256"
        }
      ],
      "name": "TransferSingle",
      "type": "event"
    },
    {
      "anonymous": false,
      "inputs": [
        {
          "indexed": false,
          "internalType": "string",
          "name": "value",
          "type": "string"
        },
        {
          "indexed": true,
          "internalType": "uint256",
          "name": "id",
          "type": "uint256"
        }
      ],
      "name": "URI",
      "type": "event"
    },
    {
      "anonymous": false,
      "inputs": [
        {
          "indexed": false,
          "internalType": "address",
          "name": "account",
          "type": "address"
        }
      ],
      "name": "Unpaused",
      "type": "event"
    },
    {
      "inputs": [
        {
          "internalType": "address",
          "name": "account",
          "type": "address"
        },
        {
          "internalType": "uint256",
          "name": "id",
          "type": "uint256"
        }
      ],
      "name": "balanceOf",
      "outputs": [
        {
          "internalType": "uint256",
          "name": "",
          "type": "uint256"
        }
      ],
      "stateMutability": "view",
      "type": "function"
    },
    {
      "inputs": [
        {
          "internalType": "address[]",
          "name": "accounts",
          "type": "address[]"
        },
        {
          "internalType": "uint256[]",
          "name": "ids",
          "type": "uint256[]"
        }
      ],
      "name": "balanceOfBatch",
      "outputs": [
        {
          "internalType": "uint256[]",
          "name": "",
          "type": "uint256[]"
        }
      ],
      "stateMutability": "view",
      "type": "function"
    },
    {
      "inputs": [],
      "name": "baseExtension",
      "outputs": [
        {
          "internalType": "string",
          "name": "",
          "type": "string"
        }
      ],
      "stateMutability": "view",
      "type": "function"
    },
    {
      "inputs": [],
      "name": "cost",
      "outputs": [
        {
          "internalType": "uint256",
          "name": "",
          "type": "uint256"
        }
      ],
      "stateMutability": "view",
      "type": "function"
    },
    {
      "inputs": [
        {
          "internalType": "address",
          "name": "account",
          "type": "address"
        },
        {
          "internalType": "address",
          "name": "operator",
          "type": "address"
        }
      ],
      "name": "isApprovedForAll",
      "outputs": [
        {
          "internalType": "bool",
          "name": "",
          "type": "bool"
        }
      ],
      "stateMutability": "view",
      "type": "function"
    },
    {
      "inputs": [],
      "name": "maxMintAmount",
      "outputs": [
        {
          "internalType": "uint256",
          "name": "",
          "type": "uint256"
        }
      ],
      "stateMutability": "view",
      "type": "function"
    },
    {
      "inputs": [],
      "name": "maxSupply",
      "outputs": [
        {
          "internalType": "uint256",
          "name": "",
          "type": "uint256"
        }
      ],
      "stateMutability": "view",
      "type": "function"
    },
    {
      "inputs": [],
      "name": "owner",
      "outputs": [
        {
          "internalType": "address",
          "name": "",
          "type": "address"
        }
      ],
      "stateMutability": "view",
      "type": "function"
    },
    {
      "inputs": [],
      "name": "paused",
      "outputs": [
        {
          "internalType": "bool",
          "name": "",
          "type": "bool"
        }
      ],
      "stateMutability": "view",
      "type": "function"
    },
    {
      "inputs": [],
      "name": "renounceOwnership",
      "outputs": [],
      "stateMutability": "nonpayable",
      "type": "function"
    },
    {
      "inputs": [],
      "name": "revealed",
      "outputs": [
        {
          "internalType": "bool",
          "name": "",
          "type": "bool"
        }
      ],
      "stateMutability": "view",
      "type": "function"
    },
    {
      "inputs": [
        {
          "internalType": "address",
          "name": "from",
          "type": "address"
        },
        {
          "internalType": "address",
          "name": "to",
          "type": "address"
        },
        {
          "internalType": "uint256[]",
          "name": "ids",
          "type": "uint256[]"
        },
        {
          "internalType": "uint256[]",
          "name": "amounts",
          "type": "uint256[]"
        },
        {
          "internalType": "bytes",
          "name": "data",
          "type": "bytes"
        }
      ],
      "name": "safeBatchTransferFrom",
      "outputs": [],
      "stateMutability": "nonpayable",
      "type": "function"
    },
    {
      "inputs": [
        {
          "internalType": "address",
          "name": "from",
          "type": "address"
        },
        {
          "internalType": "address",
          "name": "to",
          "type": "address"
        },
        {
          "internalType": "uint256",
          "name": "id",
          "type": "uint256"
        },
        {
          "internalType": "uint256",
          "name": "amount",
          "type": "uint256"
        },
        {
          "internalType": "bytes",
          "name": "data",
          "type": "bytes"
        }
      ],
      "name": "safeTransferFrom",
      "outputs": [],
      "stateMutability": "nonpayable",
      "type": "function"
    },
    {
      "inputs": [
        {
          "internalType": "address",
          "name": "operator",
          "type": "address"
        },
        {
          "internalType": "bool",
          "name": "approved",
          "type": "bool"
        }
      ],
      "name": "setApprovalForAll",
      "outputs": [],
      "stateMutability": "nonpayable",
      "type": "function"
    },
    {
      "inputs": [
        {
          "internalType": "bytes4",
          "name": "interfaceId",
          "type": "bytes4"
        }
      ],
      "name": "supportsInterface",
      "outputs": [
        {
          "internalType": "bool",
          "name": "",
          "type": "bool"
        }
      ],
      "stateMutability": "view",
      "type": "function"
    },
    {
      "inputs": [
        {
          "internalType": "address",
          "name": "newOwner",
          "type": "address"
        }
      ],
      "name": "transferOwnership",
      "outputs": [],
      "stateMutability": "nonpayable",
      "type": "function"
    },
    {
      "inputs": [
        {
          "internalType": "uint256",
          "name": "",
          "type": "uint256"
        }
      ],
      "name": "uri",
      "outputs": [
        {
          "internalType": "string",
          "name": "",
          "type": "string"
        }
      ],
      "stateMutability": "view",
      "type": "function"
    },
    {
      "inputs": [
        {
          "internalType": "uint256",
          "name": "_newCost",
          "type": "uint256"
        }
      ],
      "name": "setCost",
      "outputs": [],
      "stateMutability": "nonpayable",
      "type": "function"
    },
    {
      "inputs": [
        {
          "internalType": "uint256",
          "name": "_newmaxMintAmount",
          "type": "uint256"
        }
      ],
      "name": "setmaxMintAmount",
      "outputs": [],
      "stateMutability": "nonpayable",
      "type": "function"
    },
    {
      "inputs": [
        {
          "internalType": "string",
          "name": "_newBaseURI",
          "type": "string"
        }
      ],
      "name": "setBaseURI",
      "outputs": [],
      "stateMutability": "nonpayable",
      "type": "function"
    },
    {
      "inputs": [
        {
          "internalType": "string",
          "name": "_newBaseExtension",
          "type": "string"
        }
      ],
      "name": "setBaseExtension",
      "outputs": [],
      "stateMutability": "nonpayable",
      "type": "function"
    },
    {
      "inputs": [],
      "name": "pause",
      "outputs": [],
      "stateMutability": "nonpayable",
      "type": "function"
    },
    {
      "inputs": [],
      "name": "unpause",
      "outputs": [],
      "stateMutability": "nonpayable",
      "type": "function"
    },
    {
      "inputs": [
        {
          "internalType": "address",
          "name": "_creator",
          "type": "address"
        },
        {
          "internalType": "uint256",
          "name": "_id",
          "type": "uint256"
        },
        {
          "internalType": "uint256",
          "name": "_amount",
          "type": "uint256"
        }
      ],
      "name": "mint",
      "outputs": [],
      "stateMutability": "nonpayable",
      "type": "function"
    },
    {
      "inputs": [
        {
          "internalType": "address",
          "name": "_holder",
          "type": "address"
        },
        {
          "internalType": "uint256",
          "name": "_id",
          "type": "uint256"
        }
      ],
      "name": "getBalanceOf",
      "outputs": [],
      "stateMutability": "view",
      "type": "function"
    }
  ],
  "bytecode": "0x60c06040526005608081905264173539b7b760d91b60a0908152620000289160079190620004fa565b506000600855600b805460ff191690553480156200004557600080fd5b506040516200265638038062002656833981016040819052620000689162000668565b8362000074816200011c565b506003805460ff191690556200008a3362000135565b60098a9055600a899055600b8054610100600160a81b0319166101006001600160a01b038581169190910291909117909155600c80546001600160a01b0319169183169190911790558251620000e8906005906020860190620004fa565b506200010c81888c604051806020016040528060008152506200018f60201b60201c565b5050505050505050505062000999565b805162000131906002906020840190620004fa565b5050565b600380546001600160a01b03838116610100818102610100600160a81b031985161790945560405193909204169182907f8be0079c531659141344cd1fd0a4f28419497f9722a3daafe3b4186f6b6457e090600090a35050565b6001600160a01b038416620001f55760405162461bcd60e51b815260206004820152602160248201527f455243313135353a206d696e7420746f20746865207a65726f206164647265736044820152607360f81b60648201526084015b60405180910390fd5b336200021b816000876200020988620002af565b6200021488620002af565b5050505050565b6000848152602081815260408083206001600160a01b0389168452909152812080548592906200024d908490620007fb565b909155505060408051858152602081018590526001600160a01b0380881692600092918516917fc3d58168c5ae7397731d063d5bbf3d657854427343f4c083240f7aacaa2d0f62910160405180910390a4620002148160008787878762000305565b60408051600180825281830190925260609160009190602080830190803683370190505090508281600081518110620002ec57620002ec620008c1565b602090810291909101015292915050565b505050505050565b62000324846001600160a01b0316620004eb60201b62000a271760201c565b15620002fd5760405163f23a6e6160e01b81526001600160a01b0385169063f23a6e61906200036090899089908890889088906004016200079f565b602060405180830381600087803b1580156200037b57600080fd5b505af1925050508015620003ae575060408051601f3d908101601f19168201909252620003ab9181019062000635565b60015b6200046f57620003bd620008ed565b806308c379a01415620003fe5750620003d56200090a565b80620003e2575062000400565b8060405162461bcd60e51b8152600401620001ec9190620007e6565b505b60405162461bcd60e51b815260206004820152603460248201527f455243313135353a207472616e7366657220746f206e6f6e204552433131353560448201527f526563656976657220696d706c656d656e7465720000000000000000000000006064820152608401620001ec565b6001600160e01b0319811663f23a6e6160e01b14620004e25760405162461bcd60e51b815260206004820152602860248201527f455243313135353a204552433131353552656365697665722072656a656374656044820152676420746f6b656e7360c01b6064820152608401620001ec565b50505050505050565b6001600160a01b03163b151590565b828054620005089062000855565b90600052602060002090601f0160209004810192826200052c576000855562000577565b82601f106200054757805160ff191683800117855562000577565b8280016001018555821562000577579182015b82811115620005775782518255916020019190600101906200055a565b506200058592915062000589565b5090565b5b808211156200058557600081556001016200058a565b80516001600160a01b0381168114620005b857600080fd5b919050565b600082601f830112620005cf57600080fd5b81516001600160401b03811115620005eb57620005eb620008d7565b60405162000604601f8301601f19166020018262000892565b8181528460208386010111156200061a57600080fd5b6200062d82602083016020870162000822565b949350505050565b6000602082840312156200064857600080fd5b81516001600160e01b0319811681146200066157600080fd5b9392505050565b6000806000806000806000806000806101408b8d0312156200068957600080fd5b8a5160208c015160408d015160608e015160808f0151939d50919b50995097506001600160401b0380821115620006bf57600080fd5b620006cd8e838f01620005bd565b975060a08d0151915080821115620006e457600080fd5b620006f28e838f01620005bd565b965060c08d01519150808211156200070957600080fd5b620007178e838f01620005bd565b955060e08d01519150808211156200072e57600080fd5b506200073d8d828e01620005bd565b9350506200074f6101008c01620005a0565b9150620007606101208c01620005a0565b90509295989b9194979a5092959850565b600081518084526200078b81602086016020860162000822565b601f01601f19169290920160200192915050565b6001600160a01b03868116825285166020820152604081018490526060810183905260a060808201819052600090620007db9083018462000771565b979650505050505050565b60208152600062000661602083018462000771565b600082198211156200081d57634e487b7160e01b600052601160045260246000fd5b500190565b60005b838110156200083f57818101518382015260200162000825565b838111156200084f576000848401525b50505050565b600181811c908216806200086a57607f821691505b602082108114156200088c57634e487b7160e01b600052602260045260246000fd5b50919050565b601f8201601f191681016001600160401b0381118282101715620008ba57620008ba620008d7565b6040525050565b634e487b7160e01b600052603260045260246000fd5b634e487b7160e01b600052604160045260246000fd5b600060033d1115620009075760046000803e5060005160e01c5b90565b600060443d1015620009195790565b6040516003193d81016004833e81513d6001600160401b0380831160248401831017156200094957505050505090565b8285019150815181811115620009625750505050505090565b843d87010160208285010111156200097d5750505050505090565b6200098e6020828601018762000892565b509095945050505050565b611cad80620009a96000396000f3fe608060405234801561001057600080fd5b50600436106101325760003560e01c8062fdd58e1461013757806301ffc9a71461015d5780630e89341c1461018057806313faede6146101a0578063156e29f6146101a9578063239c70ae146101be5780632eb2c2d6146101c75780633f4ba83a146101da57806344a0d68a146101e25780634e1273f4146101f5578063518302271461021557806355f804b3146102225780635c975abb14610235578063715018a6146102405780637f00c7a6146102485780638456cb591461025b5780638da5cb5b1461026357806394d45b5914610278578063a22cb4651461028b578063c66828621461029e578063d5abeb01146102a6578063da3ef23f146102af578063e985e9c5146102c2578063f242432a146102fe578063f2fde38b14610311575b600080fd5b61014a61014536600461162e565b610324565b6040519081526020015b60405180910390f35b61017061016b36600461175b565b6103bb565b6040519015158152602001610154565b61019361018e3660046117e5565b61040d565b604051610154919061197e565b61014a60085481565b6101bc6101b7366004611658565b6104a1565b005b61014a600a5481565b6101bc6101d53660046114e5565b6104f0565b6101bc610587565b6101bc6101f03660046117e5565b6105c0565b61020861020336600461168b565b6105f4565b604051610154919061193d565b600b546101709060ff1681565b6101bc610230366004611795565b61071d565b60035460ff16610170565b6101bc610763565b6101bc6102563660046117e5565b61079c565b6101bc6107d0565b61026b610807565b6040516101549190611886565b6101bc61028636600461162e565b61081b565b6101bc6102993660046115f2565b610825565b610193610830565b61014a60095481565b6101bc6102bd366004611795565b6108be565b6101706102d03660046114b2565b6001600160a01b03918216600090815260016020908152604080832093909416825291909152205460ff1690565b6101bc61030c36600461158e565b610900565b6101bc61031f366004611497565b610987565b60006001600160a01b0383166103955760405162461bcd60e51b815260206004820152602b60248201527f455243313135353a2062616c616e636520717565727920666f7220746865207a60448201526a65726f206164647265737360a81b60648201526084015b60405180910390fd5b506000908152602081815260408083206001600160a01b03949094168352929052205490565b60006001600160e01b03198216636cdb3d1360e11b14806103ec57506001600160e01b031982166303a24d0760e21b145b8061040757506301ffc9a760e01b6001600160e01b03198316145b92915050565b60606002805461041c90611ad8565b80601f016020809104026020016040519081016040528092919081815260200182805461044890611ad8565b80156104955780601f1061046a57610100808354040283529160200191610495565b820191906000526020600020905b81548152906001019060200180831161047857829003601f168201915b50505050509050919050565b336104aa610807565b6001600160a01b0316146104d05760405162461bcd60e51b815260040161038c90611a68565b6104eb83838360405180602001604052806000815250610a36565b505050565b6001600160a01b03851633148061050c575061050c85336102d0565b6105735760405162461bcd60e51b815260206004820152603260248201527f455243313135353a207472616e736665722063616c6c6572206973206e6f74206044820152711bdddb995c881b9bdc88185c1c1c9bdd995960721b606482015260840161038c565b6105808585858585610b2e565b5050505050565b33610590610807565b6001600160a01b0316146105b65760405162461bcd60e51b815260040161038c90611a68565b6105be610d0b565b565b336105c9610807565b6001600160a01b0316146105ef5760405162461bcd60e51b815260040161038c90611a68565b600855565b606081518351146106595760405162461bcd60e51b815260206004820152602960248201527f455243313135353a206163636f756e747320616e6420696473206c656e677468604482015268040dad2e6dac2e8c6d60bb1b606482015260840161038c565b600083516001600160401b0381111561067457610674611b86565b60405190808252806020026020018201604052801561069d578160200160208202803683370190505b50905060005b8451811015610715576106e88582815181106106c1576106c1611b70565b60200260200101518583815181106106db576106db611b70565b6020026020010151610324565b8282815181106106fa576106fa611b70565b602090810291909101015261070e81611b3f565b90506106a3565b509392505050565b33610726610807565b6001600160a01b03161461074c5760405162461bcd60e51b815260040161038c90611a68565b805161075f9060069060208401906112e7565b5050565b3361076c610807565b6001600160a01b0316146107925760405162461bcd60e51b815260040161038c90611a68565b6105be6000610d98565b336107a5610807565b6001600160a01b0316146107cb5760405162461bcd60e51b815260040161038c90611a68565b600a55565b336107d9610807565b6001600160a01b0316146107ff5760405162461bcd60e51b815260040161038c90611a68565b6105be610df2565b60035461010090046001600160a01b031690565b6104eb8282610324565b61075f338383610e6d565b6007805461083d90611ad8565b80601f016020809104026020016040519081016040528092919081815260200182805461086990611ad8565b80156108b65780601f1061088b576101008083540402835291602001916108b6565b820191906000526020600020905b81548152906001019060200180831161089957829003601f168201915b505050505081565b336108c7610807565b6001600160a01b0316146108ed5760405162461bcd60e51b815260040161038c90611a68565b805161075f9060079060208401906112e7565b6001600160a01b03851633148061091c575061091c85336102d0565b61097a5760405162461bcd60e51b815260206004820152602960248201527f455243313135353a2063616c6c6572206973206e6f74206f776e6572206e6f7260448201526808185c1c1c9bdd995960ba1b606482015260840161038c565b6105808585858585610f4e565b33610990610807565b6001600160a01b0316146109b65760405162461bcd60e51b815260040161038c90611a68565b6001600160a01b038116610a1b5760405162461bcd60e51b815260206004820152602660248201527f4f776e61626c653a206e6577206f776e657220697320746865207a65726f206160448201526564647265737360d01b606482015260840161038c565b610a2481610d98565b50565b6001600160a01b03163b151590565b6001600160a01b038416610a965760405162461bcd60e51b815260206004820152602160248201527f455243313135353a206d696e7420746f20746865207a65726f206164647265736044820152607360f81b606482015260840161038c565b33610ab081600087610aa788611059565b61058088611059565b6000848152602081815260408083206001600160a01b038916845290915281208054859290610ae0908490611ac0565b909155505060408051858152602081018590526001600160a01b038088169260009291851691600080516020611c58833981519152910160405180910390a4610580816000878787876110a4565b8151835114610b905760405162461bcd60e51b815260206004820152602860248201527f455243313135353a2069647320616e6420616d6f756e7473206c656e677468206044820152670dad2e6dac2e8c6d60c31b606482015260840161038c565b6001600160a01b038416610bb65760405162461bcd60e51b815260040161038c906119d9565b3360005b8451811015610c9d576000858281518110610bd757610bd7611b70565b602002602001015190506000858381518110610bf557610bf5611b70565b602090810291909101810151600084815280835260408082206001600160a01b038e168352909352919091205490915081811015610c455760405162461bcd60e51b815260040161038c90611a1e565b6000838152602081815260408083206001600160a01b038e8116855292528083208585039055908b16825281208054849290610c82908490611ac0565b9250508190555050505080610c9690611b3f565b9050610bba565b50846001600160a01b0316866001600160a01b0316826001600160a01b03167f4a39dc06d4c0dbc64b70af90fd698a233a518aa5d07e595d983b8c0526c8f7fb8787604051610ced929190611950565b60405180910390a4610d03818787878787611216565b505050505050565b60035460ff16610d545760405162461bcd60e51b815260206004820152601460248201527314185d5cd8589b194e881b9bdd081c185d5cd95960621b604482015260640161038c565b6003805460ff191690557f5db9ee0a495bf2e6ff9c91a7834c1ba4fdd244a5e8aa4e537bd38aeae4b073aa335b604051610d8e9190611886565b60405180910390a1565b600380546001600160a01b03838116610100818102610100600160a81b031985161790945560405193909204169182907f8be0079c531659141344cd1fd0a4f28419497f9722a3daafe3b4186f6b6457e090600090a35050565b60035460ff1615610e385760405162461bcd60e51b815260206004820152601060248201526f14185d5cd8589b194e881c185d5cd95960821b604482015260640161038c565b6003805460ff191660011790557f62e78cea01bee320cd4e420270b5ea74000d11b0c9f74754ebdbfc544b05a258610d813390565b816001600160a01b0316836001600160a01b03161415610ee15760405162461bcd60e51b815260206004820152602960248201527f455243313135353a2073657474696e6720617070726f76616c20737461747573604482015268103337b91039b2b63360b91b606482015260840161038c565b6001600160a01b03838116600081815260016020908152604080832094871680845294825291829020805460ff191686151590811790915591519182527f17307eab39ab6107e8899845ad3d59bd9653f200f220920489ca2b5937696c31910160405180910390a3505050565b6001600160a01b038416610f745760405162461bcd60e51b815260040161038c906119d9565b33610f84818787610aa788611059565b6000848152602081815260408083206001600160a01b038a16845290915290205483811015610fc55760405162461bcd60e51b815260040161038c90611a1e565b6000858152602081815260408083206001600160a01b038b8116855292528083208785039055908816825281208054869290611002908490611ac0565b909155505060408051868152602081018690526001600160a01b03808916928a82169291861691600080516020611c58833981519152910160405180910390a46110508288888888886110a4565b50505050505050565b6040805160018082528183019092526060916000919060208083019080368337019050509050828160008151811061109357611093611b70565b602090810291909101015292915050565b6110b6846001600160a01b0316610a27565b15610d035760405163f23a6e6160e01b81526001600160a01b0385169063f23a6e61906110ef90899089908890889088906004016118f8565b602060405180830381600087803b15801561110957600080fd5b505af1925050508015611139575060408051601f3d908101601f1916820190925261113691810190611778565b60015b6111e657611145611b9c565b806308c379a0141561117f575061115a611bb8565b806111655750611181565b8060405162461bcd60e51b815260040161038c919061197e565b505b60405162461bcd60e51b815260206004820152603460248201527f455243313135353a207472616e7366657220746f206e6f6e20455243313135356044820152732932b1b2b4bb32b91034b6b83632b6b2b73a32b960611b606482015260840161038c565b6001600160e01b0319811663f23a6e6160e01b146110505760405162461bcd60e51b815260040161038c90611991565b611228846001600160a01b0316610a27565b15610d035760405163bc197c8160e01b81526001600160a01b0385169063bc197c8190611261908990899088908890889060040161189a565b602060405180830381600087803b15801561127b57600080fd5b505af19250505080156112ab575060408051601f3d908101601f191682019092526112a891810190611778565b60015b6112b757611145611b9c565b6001600160e01b0319811663bc197c8160e01b146110505760405162461bcd60e51b815260040161038c90611991565b8280546112f390611ad8565b90600052602060002090601f016020900481019282611315576000855561135b565b82601f1061132e57805160ff191683800117855561135b565b8280016001018555821561135b579182015b8281111561135b578251825591602001919060010190611340565b5061136792915061136b565b5090565b5b80821115611367576000815560010161136c565b60006001600160401b0383111561139957611399611b86565b6040516113b0601f8501601f191660200182611b13565b8091508381528484840111156113c557600080fd5b83836020830137600060208583010152509392505050565b80356001600160a01b03811681146113f457600080fd5b919050565b600082601f83011261140a57600080fd5b8135602061141782611a9d565b6040516114248282611b13565b8381528281019150858301600585901b8701840188101561144457600080fd5b60005b8581101561146357813584529284019290840190600101611447565b5090979650505050505050565b600082601f83011261148157600080fd5b61149083833560208501611380565b9392505050565b6000602082840312156114a957600080fd5b611490826113dd565b600080604083850312156114c557600080fd5b6114ce836113dd565b91506114dc602084016113dd565b90509250929050565b600080600080600060a086880312156114fd57600080fd5b611506866113dd565b9450611514602087016113dd565b935060408601356001600160401b038082111561153057600080fd5b61153c89838a016113f9565b9450606088013591508082111561155257600080fd5b61155e89838a016113f9565b9350608088013591508082111561157457600080fd5b5061158188828901611470565b9150509295509295909350565b600080600080600060a086880312156115a657600080fd5b6115af866113dd565b94506115bd602087016113dd565b9350604086013592506060860135915060808601356001600160401b038111156115e657600080fd5b61158188828901611470565b6000806040838503121561160557600080fd5b61160e836113dd565b91506020830135801515811461162357600080fd5b809150509250929050565b6000806040838503121561164157600080fd5b61164a836113dd565b946020939093013593505050565b60008060006060848603121561166d57600080fd5b611676846113dd565b95602085013595506040909401359392505050565b6000806040838503121561169e57600080fd5b82356001600160401b03808211156116b557600080fd5b818501915085601f8301126116c957600080fd5b813560206116d682611a9d565b6040516116e38282611b13565b8381528281019150858301600585901b870184018b101561170357600080fd5b600096505b8487101561172d57611719816113dd565b835260019690960195918301918301611708565b509650508601359250508082111561174457600080fd5b50611751858286016113f9565b9150509250929050565b60006020828403121561176d57600080fd5b813561149081611c41565b60006020828403121561178a57600080fd5b815161149081611c41565b6000602082840312156117a757600080fd5b81356001600160401b038111156117bd57600080fd5b8201601f810184136117ce57600080fd5b6117dd84823560208401611380565b949350505050565b6000602082840312156117f757600080fd5b5035919050565b600081518084526020808501945080840160005b8381101561182e57815187529582019590820190600101611812565b509495945050505050565b6000815180845260005b8181101561185f57602081850181015186830182015201611843565b81811115611871576000602083870101525b50601f01601f19169290920160200192915050565b6001600160a01b0391909116815260200190565b6001600160a01b0386811682528516602082015260a0604082018190526000906118c6908301866117fe565b82810360608401526118d881866117fe565b905082810360808401526118ec8185611839565b98975050505050505050565b6001600160a01b03868116825285166020820152604081018490526060810183905260a06080820181905260009061193290830184611839565b979650505050505050565b60208152600061149060208301846117fe565b60408152600061196360408301856117fe565b828103602084015261197581856117fe565b95945050505050565b6020815260006114906020830184611839565b60208082526028908201527f455243313135353a204552433131353552656365697665722072656a656374656040820152676420746f6b656e7360c01b606082015260800190565b60208082526025908201527f455243313135353a207472616e7366657220746f20746865207a65726f206164604082015264647265737360d81b606082015260800190565b6020808252602a908201527f455243313135353a20696e73756666696369656e742062616c616e636520666f60408201526939103a3930b739b332b960b11b606082015260800190565b6020808252818101527f4f776e61626c653a2063616c6c6572206973206e6f7420746865206f776e6572604082015260600190565b60006001600160401b03821115611ab657611ab6611b86565b5060051b60200190565b60008219821115611ad357611ad3611b5a565b500190565b600181811c90821680611aec57607f821691505b60208210811415611b0d57634e487b7160e01b600052602260045260246000fd5b50919050565b601f8201601f191681016001600160401b0381118282101715611b3857611b38611b86565b6040525050565b6000600019821415611b5357611b53611b5a565b5060010190565b634e487b7160e01b600052601160045260246000fd5b634e487b7160e01b600052603260045260246000fd5b634e487b7160e01b600052604160045260246000fd5b600060033d1115611bb55760046000803e5060005160e01c5b90565b600060443d1015611bc65790565b6040516003193d81016004833e81513d6001600160401b038083116024840183101715611bf557505050505090565b8285019150815181811115611c0d5750505050505090565b843d8701016020828501011115611c275750505050505090565b611c3660208286010187611b13565b509095945050505050565b6001600160e01b031981168114610a2457600080fdfec3d58168c5ae7397731d063d5bbf3d657854427343f4c083240f7aacaa2d0f62a26469706673582212200e599fc9c83734df6468c9eaeb6e192416d7679bc1d9d92fa4550377c98c4cd764736f6c63430008070033",
  "immutableReferences": {},
  "source": "// SPDX-License-Identifier: MIT\r\npragma solidity 0.8.7;\r\npragma experimental ABIEncoderV2;\r\n\r\nimport \"@openzeppelin/contracts/token/ERC1155/ERC1155.sol\";\r\nimport \"@openzeppelin/contracts/security/Pausable.sol\";\r\nimport \"@openzeppelin/contracts/utils/math/SafeMath.sol\";\r\nimport \"@openzeppelin/contracts/access/Ownable.sol\";\r\n\r\ncontract NftBaseV2 is ERC1155, Pausable, Ownable {\r\n\r\n    using SafeMath for uint;\r\n\r\n    mapping(uint => address) holders;\r\n    \r\n    string artistName;\r\n    string baseURI;\r\n    string public baseExtension = \".json\";\r\n    uint256 public cost = 0 ether;\r\n    uint256 public maxSupply;\r\n    uint256 public maxMintAmount;\r\n    bool public revealed = false;\r\n    address picardyAddress;\r\n    address creator;\r\n\r\n    constructor(\r\n        uint _maxSupply,\r\n        uint _maxMintAmount,\r\n        uint _cost,\r\n        uint _id,\r\n        string memory _name,\r\n        string memory _symbol,\r\n        string memory _initBaseURI,\r\n        string memory _artistName,\r\n        address _picardyAddress,\r\n        address _creator) ERC1155(_initBaseURI){ \r\n        maxSupply = _maxSupply;\r\n        maxMintAmount = _maxMintAmount;\r\n        picardyAddress = _picardyAddress;\r\n        creator = _creator;\r\n        artistName = _artistName;\r\n        _mint(_creator, _id, _maxSupply, \"\");\r\n    }\r\n\r\n    function setCost(uint256 _newCost) public onlyOwner {\r\n        cost = _newCost;\r\n\r\n    }\r\n\r\n    function setmaxMintAmount(uint256 _newmaxMintAmount) public onlyOwner {\r\n        maxMintAmount = _newmaxMintAmount;\r\n    }\r\n\r\n    function setBaseURI(string memory _newBaseURI) public onlyOwner {\r\n        baseURI = _newBaseURI;\r\n    }\r\n\r\n    function setBaseExtension(string memory _newBaseExtension) public onlyOwner {\r\n        baseExtension = _newBaseExtension;\r\n    }\r\n\r\n    function pause() public onlyOwner {\r\n        _pause();\r\n    }\r\n\r\n    function unpause() public onlyOwner {\r\n        _unpause();\r\n    }\r\n\r\n    function mint(address _creator, uint256 _id, uint256 _amount) external onlyOwner {\r\n        _mint(_creator, _id, _amount, \"\");\r\n    }\r\n\r\n    function getBalanceOf(address _holder, uint256 _id) external view {\r\n        balanceOf(_holder, _id);\r\n    }\r\n\r\n}\r\n",
  "sourcePath": "C:\\Users\\USER\\Desktop\\Picardy\\contracts\\NftBaseV2.sol",
  "compiler": {
    "name": "solc",
    "version": "0.8.7+commit.e28d00a7.Emscripten.clang"
  },
  "schemaVersion": "3.4.6",
  "updatedAt": "2022-04-13T14:08:52.673Z",
  "devdoc": {
    "kind": "dev",
    "methods": {
      "balanceOf(address,uint256)": {
        "details": "See {IERC1155-balanceOf}. Requirements: - `account` cannot be the zero address."
      },
      "balanceOfBatch(address[],uint256[])": {
        "details": "See {IERC1155-balanceOfBatch}. Requirements: - `accounts` and `ids` must have the same length."
      },
      "isApprovedForAll(address,address)": {
        "details": "See {IERC1155-isApprovedForAll}."
      },
      "owner()": {
        "details": "Returns the address of the current owner."
      },
      "paused()": {
        "details": "Returns true if the contract is paused, and false otherwise."
      },
      "renounceOwnership()": {
        "details": "Leaves the contract without owner. It will not be possible to call `onlyOwner` functions anymore. Can only be called by the current owner. NOTE: Renouncing ownership will leave the contract without an owner, thereby removing any functionality that is only available to the owner."
      },
      "safeBatchTransferFrom(address,address,uint256[],uint256[],bytes)": {
        "details": "See {IERC1155-safeBatchTransferFrom}."
      },
      "safeTransferFrom(address,address,uint256,uint256,bytes)": {
        "details": "See {IERC1155-safeTransferFrom}."
      },
      "setApprovalForAll(address,bool)": {
        "details": "See {IERC1155-setApprovalForAll}."
      },
      "supportsInterface(bytes4)": {
        "details": "See {IERC165-supportsInterface}."
      },
      "transferOwnership(address)": {
        "details": "Transfers ownership of the contract to a new account (`newOwner`). Can only be called by the current owner."
      },
      "uri(uint256)": {
        "details": "See {IERC1155MetadataURI-uri}. This implementation returns the same URI for *all* token types. It relies on the token type ID substitution mechanism https://eips.ethereum.org/EIPS/eip-1155#metadata[defined in the EIP]. Clients calling this function must replace the `\\{id\\}` substring with the actual token type ID."
      }
    },
    "version": 1
  },
  "userdoc": {
    "kind": "user",
    "methods": {},
    "version": 1
  }
}