{
  "contractName": "NftBase",
  "abi": [
    {
      "inputs": [
        {
          "internalType": "uint256",
          "name": "_maxSupply",
          "type": "uint256"
        },
        {
          "internalType": "uint256",
          "name": "_maxMintAmount",
          "type": "uint256"
        },
        {
          "internalType": "uint256",
          "name": "_cost",
          "type": "uint256"
        },
        {
          "internalType": "string",
          "name": "_name",
          "type": "string"
        },
        {
          "internalType": "string",
          "name": "_symbol",
          "type": "string"
        },
        {
          "internalType": "string",
          "name": "_initBaseURI",
          "type": "string"
        },
        {
          "internalType": "string",
          "name": "_artistName",
          "type": "string"
        },
        {
          "internalType": "address",
          "name": "_picardyAddress",
          "type": "address"
        },
        {
          "internalType": "address",
          "name": "_creator",
          "type": "address"
        }
      ],
      "stateMutability": "nonpayable",
      "type": "constructor"
    },
    {
      "anonymous": false,
      "inputs": [
        {
          "indexed": true,
          "internalType": "address",
          "name": "owner",
          "type": "address"
        },
        {
          "indexed": true,
          "internalType": "address",
          "name": "approved",
          "type": "address"
        },
        {
          "indexed": true,
          "internalType": "uint256",
          "name": "tokenId",
          "type": "uint256"
        }
      ],
      "name": "Approval",
      "type": "event"
    },
    {
      "anonymous": false,
      "inputs": [
        {
          "indexed": true,
          "internalType": "address",
          "name": "owner",
          "type": "address"
        },
        {
          "indexed": true,
          "internalType": "address",
          "name": "operator",
          "type": "address"
        },
        {
          "indexed": false,
          "internalType": "bool",
          "name": "approved",
          "type": "bool"
        }
      ],
      "name": "ApprovalForAll",
      "type": "event"
    },
    {
      "anonymous": false,
      "inputs": [
        {
          "indexed": true,
          "internalType": "address",
          "name": "previousOwner",
          "type": "address"
        },
        {
          "indexed": true,
          "internalType": "address",
          "name": "newOwner",
          "type": "address"
        }
      ],
      "name": "OwnershipTransferred",
      "type": "event"
    },
    {
      "anonymous": false,
      "inputs": [
        {
          "indexed": false,
          "internalType": "address",
          "name": "account",
          "type": "address"
        }
      ],
      "name": "Paused",
      "type": "event"
    },
    {
      "anonymous": false,
      "inputs": [
        {
          "indexed": true,
          "internalType": "address",
          "name": "from",
          "type": "address"
        },
        {
          "indexed": true,
          "internalType": "address",
          "name": "to",
          "type": "address"
        },
        {
          "indexed": true,
          "internalType": "uint256",
          "name": "tokenId",
          "type": "uint256"
        }
      ],
      "name": "Transfer",
      "type": "event"
    },
    {
      "anonymous": false,
      "inputs": [
        {
          "indexed": false,
          "internalType": "address",
          "name": "account",
          "type": "address"
        }
      ],
      "name": "Unpaused",
      "type": "event"
    },
    {
      "inputs": [
        {
          "internalType": "address",
          "name": "to",
          "type": "address"
        },
        {
          "internalType": "uint256",
          "name": "tokenId",
          "type": "uint256"
        }
      ],
      "name": "approve",
      "outputs": [],
      "stateMutability": "nonpayable",
      "type": "function"
    },
    {
      "inputs": [
        {
          "internalType": "address",
          "name": "owner",
          "type": "address"
        }
      ],
      "name": "balanceOf",
      "outputs": [
        {
          "internalType": "uint256",
          "name": "",
          "type": "uint256"
        }
      ],
      "stateMutability": "view",
      "type": "function"
    },
    {
      "inputs": [],
      "name": "baseExtension",
      "outputs": [
        {
          "internalType": "string",
          "name": "",
          "type": "string"
        }
      ],
      "stateMutability": "view",
      "type": "function"
    },
    {
      "inputs": [],
      "name": "cost",
      "outputs": [
        {
          "internalType": "uint256",
          "name": "",
          "type": "uint256"
        }
      ],
      "stateMutability": "view",
      "type": "function"
    },
    {
      "inputs": [
        {
          "internalType": "uint256",
          "name": "tokenId",
          "type": "uint256"
        }
      ],
      "name": "getApproved",
      "outputs": [
        {
          "internalType": "address",
          "name": "",
          "type": "address"
        }
      ],
      "stateMutability": "view",
      "type": "function"
    },
    {
      "inputs": [
        {
          "internalType": "address",
          "name": "owner",
          "type": "address"
        },
        {
          "internalType": "address",
          "name": "operator",
          "type": "address"
        }
      ],
      "name": "isApprovedForAll",
      "outputs": [
        {
          "internalType": "bool",
          "name": "",
          "type": "bool"
        }
      ],
      "stateMutability": "view",
      "type": "function"
    },
    {
      "inputs": [],
      "name": "maxMintAmount",
      "outputs": [
        {
          "internalType": "uint256",
          "name": "",
          "type": "uint256"
        }
      ],
      "stateMutability": "view",
      "type": "function"
    },
    {
      "inputs": [],
      "name": "maxSupply",
      "outputs": [
        {
          "internalType": "uint256",
          "name": "",
          "type": "uint256"
        }
      ],
      "stateMutability": "view",
      "type": "function"
    },
    {
      "inputs": [],
      "name": "name",
      "outputs": [
        {
          "internalType": "string",
          "name": "",
          "type": "string"
        }
      ],
      "stateMutability": "view",
      "type": "function"
    },
    {
      "inputs": [],
      "name": "owner",
      "outputs": [
        {
          "internalType": "address",
          "name": "",
          "type": "address"
        }
      ],
      "stateMutability": "view",
      "type": "function"
    },
    {
      "inputs": [
        {
          "internalType": "uint256",
          "name": "tokenId",
          "type": "uint256"
        }
      ],
      "name": "ownerOf",
      "outputs": [
        {
          "internalType": "address",
          "name": "",
          "type": "address"
        }
      ],
      "stateMutability": "view",
      "type": "function"
    },
    {
      "inputs": [],
      "name": "paused",
      "outputs": [
        {
          "internalType": "bool",
          "name": "",
          "type": "bool"
        }
      ],
      "stateMutability": "view",
      "type": "function"
    },
    {
      "inputs": [],
      "name": "renounceOwnership",
      "outputs": [],
      "stateMutability": "nonpayable",
      "type": "function"
    },
    {
      "inputs": [],
      "name": "revealed",
      "outputs": [
        {
          "internalType": "bool",
          "name": "",
          "type": "bool"
        }
      ],
      "stateMutability": "view",
      "type": "function"
    },
    {
      "inputs": [
        {
          "internalType": "address",
          "name": "from",
          "type": "address"
        },
        {
          "internalType": "address",
          "name": "to",
          "type": "address"
        },
        {
          "internalType": "uint256",
          "name": "tokenId",
          "type": "uint256"
        }
      ],
      "name": "safeTransferFrom",
      "outputs": [],
      "stateMutability": "nonpayable",
      "type": "function"
    },
    {
      "inputs": [
        {
          "internalType": "address",
          "name": "from",
          "type": "address"
        },
        {
          "internalType": "address",
          "name": "to",
          "type": "address"
        },
        {
          "internalType": "uint256",
          "name": "tokenId",
          "type": "uint256"
        },
        {
          "internalType": "bytes",
          "name": "_data",
          "type": "bytes"
        }
      ],
      "name": "safeTransferFrom",
      "outputs": [],
      "stateMutability": "nonpayable",
      "type": "function"
    },
    {
      "inputs": [
        {
          "internalType": "address",
          "name": "operator",
          "type": "address"
        },
        {
          "internalType": "bool",
          "name": "approved",
          "type": "bool"
        }
      ],
      "name": "setApprovalForAll",
      "outputs": [],
      "stateMutability": "nonpayable",
      "type": "function"
    },
    {
      "inputs": [
        {
          "internalType": "bytes4",
          "name": "interfaceId",
          "type": "bytes4"
        }
      ],
      "name": "supportsInterface",
      "outputs": [
        {
          "internalType": "bool",
          "name": "",
          "type": "bool"
        }
      ],
      "stateMutability": "view",
      "type": "function"
    },
    {
      "inputs": [],
      "name": "symbol",
      "outputs": [
        {
          "internalType": "string",
          "name": "",
          "type": "string"
        }
      ],
      "stateMutability": "view",
      "type": "function"
    },
    {
      "inputs": [
        {
          "internalType": "uint256",
          "name": "index",
          "type": "uint256"
        }
      ],
      "name": "tokenByIndex",
      "outputs": [
        {
          "internalType": "uint256",
          "name": "",
          "type": "uint256"
        }
      ],
      "stateMutability": "view",
      "type": "function"
    },
    {
      "inputs": [
        {
          "internalType": "address",
          "name": "owner",
          "type": "address"
        },
        {
          "internalType": "uint256",
          "name": "index",
          "type": "uint256"
        }
      ],
      "name": "tokenOfOwnerByIndex",
      "outputs": [
        {
          "internalType": "uint256",
          "name": "",
          "type": "uint256"
        }
      ],
      "stateMutability": "view",
      "type": "function"
    },
    {
      "inputs": [],
      "name": "totalSupply",
      "outputs": [
        {
          "internalType": "uint256",
          "name": "",
          "type": "uint256"
        }
      ],
      "stateMutability": "view",
      "type": "function"
    },
    {
      "inputs": [
        {
          "internalType": "address",
          "name": "from",
          "type": "address"
        },
        {
          "internalType": "address",
          "name": "to",
          "type": "address"
        },
        {
          "internalType": "uint256",
          "name": "tokenId",
          "type": "uint256"
        }
      ],
      "name": "transferFrom",
      "outputs": [],
      "stateMutability": "nonpayable",
      "type": "function"
    },
    {
      "inputs": [
        {
          "internalType": "address",
          "name": "newOwner",
          "type": "address"
        }
      ],
      "name": "transferOwnership",
      "outputs": [],
      "stateMutability": "nonpayable",
      "type": "function"
    },
    {
      "inputs": [
        {
          "internalType": "uint256",
          "name": "_mintAmount",
          "type": "uint256"
        }
      ],
      "name": "mint",
      "outputs": [],
      "stateMutability": "payable",
      "type": "function"
    },
    {
      "inputs": [
        {
          "internalType": "address",
          "name": "_owner",
          "type": "address"
        }
      ],
      "name": "walletOfOwner",
      "outputs": [
        {
          "internalType": "uint256[]",
          "name": "",
          "type": "uint256[]"
        }
      ],
      "stateMutability": "view",
      "type": "function"
    },
    {
      "inputs": [
        {
          "internalType": "uint256",
          "name": "tokenId",
          "type": "uint256"
        }
      ],
      "name": "tokenURI",
      "outputs": [
        {
          "internalType": "string",
          "name": "",
          "type": "string"
        }
      ],
      "stateMutability": "view",
      "type": "function"
    },
    {
      "inputs": [],
      "name": "reveal",
      "outputs": [],
      "stateMutability": "nonpayable",
      "type": "function"
    },
    {
      "inputs": [
        {
          "internalType": "uint256",
          "name": "_newCost",
          "type": "uint256"
        }
      ],
      "name": "setCost",
      "outputs": [],
      "stateMutability": "nonpayable",
      "type": "function"
    },
    {
      "inputs": [
        {
          "internalType": "uint256",
          "name": "_newmaxMintAmount",
          "type": "uint256"
        }
      ],
      "name": "setmaxMintAmount",
      "outputs": [],
      "stateMutability": "nonpayable",
      "type": "function"
    },
    {
      "inputs": [
        {
          "internalType": "string",
          "name": "_newBaseURI",
          "type": "string"
        }
      ],
      "name": "setBaseURI",
      "outputs": [],
      "stateMutability": "nonpayable",
      "type": "function"
    },
    {
      "inputs": [
        {
          "internalType": "string",
          "name": "_newBaseExtension",
          "type": "string"
        }
      ],
      "name": "setBaseExtension",
      "outputs": [],
      "stateMutability": "nonpayable",
      "type": "function"
    },
    {
      "inputs": [],
      "name": "pause",
      "outputs": [],
      "stateMutability": "nonpayable",
      "type": "function"
    },
    {
      "inputs": [],
      "name": "unpause",
      "outputs": [],
      "stateMutability": "nonpayable",
      "type": "function"
    },
    {
      "inputs": [],
      "name": "withdraw",
      "outputs": [],
      "stateMutability": "payable",
      "type": "function"
    }
  ],
  "bytecode": "0x60c06040526005608081905264173539b7b760d91b60a09081526200002891600d919062000230565b506000600e556011805460ff191690553480156200004557600080fd5b5060405162002940380380620029408339810160408190526200006891620003aa565b8551869086906200008190600090602085019062000230565b5080516200009790600190602084019062000230565b5050600a805460ff1916905550620000af3362000133565b600f899055601088905560118054610100600160a81b0319166101006001600160a01b038581169190910291909117909155601280546001600160a01b03191691831691909117905582516200010d90600b90602086019062000230565b5062000119876200018d565b6200012484620001cf565b50505050505050505062000530565b600a80546001600160a01b03838116610100818102610100600160a81b031985161790945560405193909204169182907f8be0079c531659141344cd1fd0a4f28419497f9722a3daafe3b4186f6b6457e090600090a35050565b33620001986200021c565b6001600160a01b031614620001ca5760405162461bcd60e51b8152600401620001c190620004a8565b60405180910390fd5b600e55565b33620001da6200021c565b6001600160a01b031614620002035760405162461bcd60e51b8152600401620001c190620004a8565b80516200021890600c90602084019062000230565b5050565b600a5461010090046001600160a01b031690565b8280546200023e90620004dd565b90600052602060002090601f016020900481019282620002625760008555620002ad565b82601f106200027d57805160ff1916838001178555620002ad565b82800160010185558215620002ad579182015b82811115620002ad57825182559160200191906001019062000290565b50620002bb929150620002bf565b5090565b5b80821115620002bb5760008155600101620002c0565b80516001600160a01b0381168114620002ee57600080fd5b919050565b600082601f8301126200030557600080fd5b81516001600160401b03808211156200032257620003226200051a565b604051601f8301601f19908116603f011681019082821181831017156200034d576200034d6200051a565b816040528381526020925086838588010111156200036a57600080fd5b600091505b838210156200038e57858201830151818301840152908201906200036f565b83821115620003a05760008385830101525b9695505050505050565b60008060008060008060008060006101208a8c031215620003ca57600080fd5b895160208b015160408c015160608d0151929b5090995097506001600160401b0380821115620003f957600080fd5b620004078d838e01620002f3565b975060808c01519150808211156200041e57600080fd5b6200042c8d838e01620002f3565b965060a08c01519150808211156200044357600080fd5b620004518d838e01620002f3565b955060c08c01519150808211156200046857600080fd5b50620004778c828d01620002f3565b9350506200048860e08b01620002d6565b9150620004996101008b01620002d6565b90509295985092959850929598565b6020808252818101527f4f776e61626c653a2063616c6c6572206973206e6f7420746865206f776e6572604082015260600190565b600181811c90821680620004f257607f821691505b602082108114156200051457634e487b7160e01b600052602260045260246000fd5b50919050565b634e487b7160e01b600052604160045260246000fd5b61240080620005406000396000f3fe6080604052600436106101945760003560e01c806301ffc9a71461019957806306fdde03146101ce578063081812fc146101f0578063095ea7b31461021d57806313faede61461023f57806318160ddd14610263578063239c70ae1461027857806323b872dd1461028e5780632f745c59146102ae5780633ccfd60b146102ce5780633f4ba83a146102d657806342842e0e146102eb578063438b63001461030b57806344a0d68a146103385780634f6ccce714610358578063518302271461037857806355f804b3146103925780635c975abb146103b25780636352211e146103ca57806370a08231146103ea578063715018a61461040a5780637f00c7a61461041f5780638456cb591461043f5780638da5cb5b1461045457806395d89b4114610469578063a0712d681461047e578063a22cb46514610491578063a475b5dd146104b1578063b88d4fde146104c6578063c6682862146104e6578063c87b56dd146104fb578063d5abeb011461051b578063da3ef23f14610531578063e985e9c514610551578063f2fde38b14610571575b600080fd5b3480156101a557600080fd5b506101b96101b4366004611f23565b610591565b60405190151581526020015b60405180910390f35b3480156101da57600080fd5b506101e36105bc565b6040516101c59190612143565b3480156101fc57600080fd5b5061021061020b366004611fa5565b61064e565b6040516101c591906120ae565b34801561022957600080fd5b5061023d610238366004611ef9565b6106db565b005b34801561024b57600080fd5b50610255600e5481565b6040519081526020016101c5565b34801561026f57600080fd5b50600854610255565b34801561028457600080fd5b5061025560105481565b34801561029a57600080fd5b5061023d6102a9366004611e06565b6107ec565b3480156102ba57600080fd5b506102556102c9366004611ef9565b61081d565b61023d6108b3565b3480156102e257600080fd5b5061023d6109c0565b3480156102f757600080fd5b5061023d610306366004611e06565b6109f9565b34801561031757600080fd5b5061032b610326366004611db8565b610a14565b6040516101c591906120ff565b34801561034457600080fd5b5061023d610353366004611fa5565b610ab5565b34801561036457600080fd5b50610255610373366004611fa5565b610ae9565b34801561038457600080fd5b506011546101b99060ff1681565b34801561039e57600080fd5b5061023d6103ad366004611f5d565b610b7c565b3480156103be57600080fd5b50600a5460ff166101b9565b3480156103d657600080fd5b506102106103e5366004611fa5565b610bbe565b3480156103f657600080fd5b50610255610405366004611db8565b610c35565b34801561041657600080fd5b5061023d610cbc565b34801561042b57600080fd5b5061023d61043a366004611fa5565b610cf5565b34801561044b57600080fd5b5061023d610d29565b34801561046057600080fd5b50610210610d60565b34801561047557600080fd5b506101e3610d74565b61023d61048c366004611fa5565b610d83565b34801561049d57600080fd5b5061023d6104ac366004611ebd565b610e2d565b3480156104bd57600080fd5b5061023d610e38565b3480156104d257600080fd5b5061023d6104e1366004611e42565b610e76565b3480156104f257600080fd5b506101e3610eae565b34801561050757600080fd5b506101e3610516366004611fa5565b610f3c565b34801561052757600080fd5b50610255600f5481565b34801561053d57600080fd5b5061023d61054c366004611f5d565b61100a565b34801561055d57600080fd5b506101b961056c366004611dd3565b61104c565b34801561057d57600080fd5b5061023d61058c366004611db8565b61107a565b60006001600160e01b0319821663780e9d6360e01b14806105b657506105b68261111a565b92915050565b6060600080546105cb906122bc565b80601f01602080910402602001604051908101604052809291908181526020018280546105f7906122bc565b80156106445780601f1061061957610100808354040283529160200191610644565b820191906000526020600020905b81548152906001019060200180831161062757829003601f168201915b5050505050905090565b60006106598261116a565b6106bf5760405162461bcd60e51b815260206004820152602c60248201527f4552433732313a20617070726f76656420717565727920666f72206e6f6e657860448201526b34b9ba32b73a103a37b5b2b760a11b60648201526084015b60405180910390fd5b506000908152600460205260409020546001600160a01b031690565b60006106e682610bbe565b9050806001600160a01b0316836001600160a01b031614156107545760405162461bcd60e51b815260206004820152602160248201527f4552433732313a20617070726f76616c20746f2063757272656e74206f776e656044820152603960f91b60648201526084016106b6565b336001600160a01b03821614806107705750610770813361104c565b6107dd5760405162461bcd60e51b815260206004820152603860248201527f4552433732313a20617070726f76652063616c6c6572206973206e6f74206f776044820152771b995c881b9bdc88185c1c1c9bdd995908199bdc88185b1b60421b60648201526084016106b6565b6107e78383611187565b505050565b6107f633826111f5565b6108125760405162461bcd60e51b81526004016106b6906121dd565b6107e78383836112bf565b600061082883610c35565b821061088a5760405162461bcd60e51b815260206004820152602b60248201527f455243373231456e756d657261626c653a206f776e657220696e646578206f7560448201526a74206f6620626f756e647360a81b60648201526084016106b6565b506001600160a01b03919091166000908152600660209081526040808320938352929052205490565b336108bc610d60565b6001600160a01b0316146108e25760405162461bcd60e51b81526004016106b6906121a8565b60115460009061010090046001600160a01b0316606461090347600561225a565b61090d9190612246565b604051600081818185875af1925050503d8060008114610949576040519150601f19603f3d011682016040523d82523d6000602084013e61094e565b606091505b505090508061095c57600080fd5b6012546040516000916001600160a01b03169047908381818185875af1925050503d80600081146109a9576040519150601f19603f3d011682016040523d82523d6000602084013e6109ae565b606091505b50509050806109bc57600080fd5b5050565b336109c9610d60565b6001600160a01b0316146109ef5760405162461bcd60e51b81526004016106b6906121a8565b6109f7611454565b565b6107e783838360405180602001604052806000815250610e76565b60606000610a2183610c35565b90506000816001600160401b03811115610a3d57610a3d61237e565b604051908082528060200260200182016040528015610a66578160200160208202803683370190505b50905060005b82811015610aad57610a7e858261081d565b828281518110610a9057610a90612368565b602090810291909101015280610aa5816122f7565b915050610a6c565b509392505050565b33610abe610d60565b6001600160a01b031614610ae45760405162461bcd60e51b81526004016106b6906121a8565b600e55565b6000610af460085490565b8210610b575760405162461bcd60e51b815260206004820152602c60248201527f455243373231456e756d657261626c653a20676c6f62616c20696e646578206f60448201526b7574206f6620626f756e647360a01b60648201526084016106b6565b60088281548110610b6a57610b6a612368565b90600052602060002001549050919050565b33610b85610d60565b6001600160a01b031614610bab5760405162461bcd60e51b81526004016106b6906121a8565b80516109bc90600c906020840190611c8e565b6000818152600260205260408120546001600160a01b0316806105b65760405162461bcd60e51b815260206004820152602960248201527f4552433732313a206f776e657220717565727920666f72206e6f6e657869737460448201526832b73a103a37b5b2b760b91b60648201526084016106b6565b60006001600160a01b038216610ca05760405162461bcd60e51b815260206004820152602a60248201527f4552433732313a2062616c616e636520717565727920666f7220746865207a65604482015269726f206164647265737360b01b60648201526084016106b6565b506001600160a01b031660009081526003602052604090205490565b33610cc5610d60565b6001600160a01b031614610ceb5760405162461bcd60e51b81526004016106b6906121a8565b6109f760006114e1565b33610cfe610d60565b6001600160a01b031614610d245760405162461bcd60e51b81526004016106b6906121a8565b601055565b33610d32610d60565b6001600160a01b031614610d585760405162461bcd60e51b81526004016106b6906121a8565b6109f761153b565b600a5461010090046001600160a01b031690565b6060600180546105cb906122bc565b6000610d8e60085490565b905060008211610d9d57600080fd5b601054821115610dac57600080fd5b600f54610db9838361222e565b1115610dc457600080fd5b610dcc610d60565b6001600160a01b0316336001600160a01b031614610dfe5781600e54610df2919061225a565b341015610dfe57600080fd5b60015b8281116107e757610e1b33610e16838561222e565b6115b6565b80610e25816122f7565b915050610e01565b6109bc3383836115d0565b33610e41610d60565b6001600160a01b031614610e675760405162461bcd60e51b81526004016106b6906121a8565b6011805460ff19166001179055565b610e8033836111f5565b610e9c5760405162461bcd60e51b81526004016106b6906121dd565b610ea88484848461169b565b50505050565b600d8054610ebb906122bc565b80601f0160208091040260200160405190810160405280929190818152602001828054610ee7906122bc565b8015610f345780601f10610f0957610100808354040283529160200191610f34565b820191906000526020600020905b815481529060010190602001808311610f1757829003601f168201915b505050505081565b6060610f478261116a565b610fab5760405162461bcd60e51b815260206004820152602f60248201527f4552433732314d657461646174613a2055524920717565727920666f72206e6f60448201526e3732bc34b9ba32b73a103a37b5b2b760891b60648201526084016106b6565b6000610fb56116ce565b90506000815111610fd55760405180602001604052806000815250611003565b80610fdf846116dd565b600d604051602001610ff393929190611fea565b6040516020818303038152906040525b9392505050565b33611013610d60565b6001600160a01b0316146110395760405162461bcd60e51b81526004016106b6906121a8565b80516109bc90600d906020840190611c8e565b6001600160a01b03918216600090815260056020908152604080832093909416825291909152205460ff1690565b33611083610d60565b6001600160a01b0316146110a95760405162461bcd60e51b81526004016106b6906121a8565b6001600160a01b03811661110e5760405162461bcd60e51b815260206004820152602660248201527f4f776e61626c653a206e6577206f776e657220697320746865207a65726f206160448201526564647265737360d01b60648201526084016106b6565b611117816114e1565b50565b60006001600160e01b031982166380ac58cd60e01b148061114b57506001600160e01b03198216635b5e139f60e01b145b806105b657506301ffc9a760e01b6001600160e01b03198316146105b6565b6000908152600260205260409020546001600160a01b0316151590565b600081815260046020526040902080546001600160a01b0319166001600160a01b03841690811790915581906111bc82610bbe565b6001600160a01b03167f8c5be1e5ebec7d5bd14f71427d1e84f3dd0314c0f7b2291e5b200ac8c7c3b92560405160405180910390a45050565b60006112008261116a565b6112615760405162461bcd60e51b815260206004820152602c60248201527f4552433732313a206f70657261746f7220717565727920666f72206e6f6e657860448201526b34b9ba32b73a103a37b5b2b760a11b60648201526084016106b6565b600061126c83610bbe565b9050806001600160a01b0316846001600160a01b031614806112a75750836001600160a01b031661129c8461064e565b6001600160a01b0316145b806112b757506112b7818561104c565b949350505050565b826001600160a01b03166112d282610bbe565b6001600160a01b0316146113365760405162461bcd60e51b815260206004820152602560248201527f4552433732313a207472616e736665722066726f6d20696e636f72726563742060448201526437bbb732b960d91b60648201526084016106b6565b6001600160a01b0382166113985760405162461bcd60e51b8152602060048201526024808201527f4552433732313a207472616e7366657220746f20746865207a65726f206164646044820152637265737360e01b60648201526084016106b6565b6113a38383836117da565b6113ae600082611187565b6001600160a01b03831660009081526003602052604081208054600192906113d7908490612279565b90915550506001600160a01b038216600090815260036020526040812080546001929061140590849061222e565b909155505060008181526002602052604080822080546001600160a01b0319166001600160a01b0386811691821790925591518493918716916000805160206123ab83398151915291a4505050565b600a5460ff1661149d5760405162461bcd60e51b815260206004820152601460248201527314185d5cd8589b194e881b9bdd081c185d5cd95960621b60448201526064016106b6565b600a805460ff191690557f5db9ee0a495bf2e6ff9c91a7834c1ba4fdd244a5e8aa4e537bd38aeae4b073aa335b6040516114d791906120ae565b60405180910390a1565b600a80546001600160a01b03838116610100818102610100600160a81b031985161790945560405193909204169182907f8be0079c531659141344cd1fd0a4f28419497f9722a3daafe3b4186f6b6457e090600090a35050565b600a5460ff16156115815760405162461bcd60e51b815260206004820152601060248201526f14185d5cd8589b194e881c185d5cd95960821b60448201526064016106b6565b600a805460ff191660011790557f62e78cea01bee320cd4e420270b5ea74000d11b0c9f74754ebdbfc544b05a2586114ca3390565b6109bc828260405180602001604052806000815250611892565b816001600160a01b0316836001600160a01b0316141561162e5760405162461bcd60e51b815260206004820152601960248201527822a9219b99189d1030b8383937bb32903a379031b0b63632b960391b60448201526064016106b6565b6001600160a01b03838116600081815260056020908152604080832094871680845294825291829020805460ff191686151590811790915591519182527f17307eab39ab6107e8899845ad3d59bd9653f200f220920489ca2b5937696c31910160405180910390a3505050565b6116a68484846112bf565b6116b2848484846118c5565b610ea85760405162461bcd60e51b81526004016106b690612156565b6060600c80546105cb906122bc565b6060816117015750506040805180820190915260018152600360fc1b602082015290565b8160005b811561172b5780611715816122f7565b91506117249050600a83612246565b9150611705565b6000816001600160401b038111156117455761174561237e565b6040519080825280601f01601f19166020018201604052801561176f576020820181803683370190505b5090505b84156112b757611784600183612279565b9150611791600a86612312565b61179c90603061222e565b60f81b8183815181106117b1576117b1612368565b60200101906001600160f81b031916908160001a9053506117d3600a86612246565b9450611773565b6001600160a01b0383166118355761183081600880546000838152600960205260408120829055600182018355919091527ff3f7a9fe364faab93b216da50a3214154f22a0a2b415b23a84c8169e8b636ee30155565b611858565b816001600160a01b0316836001600160a01b0316146118585761185883826119d2565b6001600160a01b03821661186f576107e781611a6f565b826001600160a01b0316826001600160a01b0316146107e7576107e78282611b1e565b61189c8383611b62565b6118a960008484846118c5565b6107e75760405162461bcd60e51b81526004016106b690612156565b60006001600160a01b0384163b156119c757604051630a85bd0160e11b81526001600160a01b0385169063150b7a02906119099033908990889088906004016120c2565b602060405180830381600087803b15801561192357600080fd5b505af1925050508015611953575060408051601f3d908101601f1916820190925261195091810190611f40565b60015b6119ad573d808015611981576040519150601f19603f3d011682016040523d82523d6000602084013e611986565b606091505b5080516119a55760405162461bcd60e51b81526004016106b690612156565b805181602001fd5b6001600160e01b031916630a85bd0160e11b1490506112b7565b506001949350505050565b600060016119df84610c35565b6119e99190612279565b600083815260076020526040902054909150808214611a3c576001600160a01b03841660009081526006602090815260408083208584528252808320548484528184208190558352600790915290208190555b5060009182526007602090815260408084208490556001600160a01b039094168352600681528383209183525290812055565b600854600090611a8190600190612279565b60008381526009602052604081205460088054939450909284908110611aa957611aa9612368565b906000526020600020015490508060088381548110611aca57611aca612368565b6000918252602080832090910192909255828152600990915260408082208490558582528120556008805480611b0257611b02612352565b6001900381819060005260206000200160009055905550505050565b6000611b2983610c35565b6001600160a01b039093166000908152600660209081526040808320868452825280832085905593825260079052919091209190915550565b6001600160a01b038216611bb85760405162461bcd60e51b815260206004820181905260248201527f4552433732313a206d696e7420746f20746865207a65726f206164647265737360448201526064016106b6565b611bc18161116a565b15611c0d5760405162461bcd60e51b815260206004820152601c60248201527b115490cdcc8c4e881d1bdad95b88185b1c9958591e481b5a5b9d195960221b60448201526064016106b6565b611c19600083836117da565b6001600160a01b0382166000908152600360205260408120805460019290611c4290849061222e565b909155505060008181526002602052604080822080546001600160a01b0319166001600160a01b03861690811790915590518392906000805160206123ab833981519152908290a45050565b828054611c9a906122bc565b90600052602060002090601f016020900481019282611cbc5760008555611d02565b82601f10611cd557805160ff1916838001178555611d02565b82800160010185558215611d02579182015b82811115611d02578251825591602001919060010190611ce7565b50611d0e929150611d12565b5090565b5b80821115611d0e5760008155600101611d13565b60006001600160401b0380841115611d4157611d4161237e565b604051601f8501601f19908116603f01168101908282118183101715611d6957611d6961237e565b81604052809350858152868686011115611d8257600080fd5b858560208301376000602087830101525050509392505050565b80356001600160a01b0381168114611db357600080fd5b919050565b600060208284031215611dca57600080fd5b61100382611d9c565b60008060408385031215611de657600080fd5b611def83611d9c565b9150611dfd60208401611d9c565b90509250929050565b600080600060608486031215611e1b57600080fd5b611e2484611d9c565b9250611e3260208501611d9c565b9150604084013590509250925092565b60008060008060808587031215611e5857600080fd5b611e6185611d9c565b9350611e6f60208601611d9c565b92506040850135915060608501356001600160401b03811115611e9157600080fd5b8501601f81018713611ea257600080fd5b611eb187823560208401611d27565b91505092959194509250565b60008060408385031215611ed057600080fd5b611ed983611d9c565b915060208301358015158114611eee57600080fd5b809150509250929050565b60008060408385031215611f0c57600080fd5b611f1583611d9c565b946020939093013593505050565b600060208284031215611f3557600080fd5b813561100381612394565b600060208284031215611f5257600080fd5b815161100381612394565b600060208284031215611f6f57600080fd5b81356001600160401b03811115611f8557600080fd5b8201601f81018413611f9657600080fd5b6112b784823560208401611d27565b600060208284031215611fb757600080fd5b5035919050565b60008151808452611fd6816020860160208601612290565b601f01601f19169290920160200192915050565b600084516020611ffd8285838a01612290565b8551918401916120108184848a01612290565b8554920191600090600181811c908083168061202d57607f831692505b85831081141561204b57634e487b7160e01b85526022600452602485fd5b80801561205f57600181146120705761209d565b60ff1985168852838801955061209d565b60008b81526020902060005b858110156120955781548a82015290840190880161207c565b505083880195505b50939b9a5050505050505050505050565b6001600160a01b0391909116815260200190565b6001600160a01b03858116825284166020820152604081018390526080606082018190526000906120f590830184611fbe565b9695505050505050565b6020808252825182820181905260009190848201906040850190845b818110156121375783518352928401929184019160010161211b565b50909695505050505050565b6020815260006110036020830184611fbe565b60208082526032908201527f4552433732313a207472616e7366657220746f206e6f6e20455243373231526560408201527131b2b4bb32b91034b6b83632b6b2b73a32b960711b606082015260800190565b6020808252818101527f4f776e61626c653a2063616c6c6572206973206e6f7420746865206f776e6572604082015260600190565b60208082526031908201527f4552433732313a207472616e736665722063616c6c6572206973206e6f74206f6040820152701ddb995c881b9bdc88185c1c1c9bdd9959607a1b606082015260800190565b6000821982111561224157612241612326565b500190565b6000826122555761225561233c565b500490565b600081600019048311821515161561227457612274612326565b500290565b60008282101561228b5761228b612326565b500390565b60005b838110156122ab578181015183820152602001612293565b83811115610ea85750506000910152565b600181811c908216806122d057607f821691505b602082108114156122f157634e487b7160e01b600052602260045260246000fd5b50919050565b600060001982141561230b5761230b612326565b5060010190565b6000826123215761232161233c565b500690565b634e487b7160e01b600052601160045260246000fd5b634e487b7160e01b600052601260045260246000fd5b634e487b7160e01b600052603160045260246000fd5b634e487b7160e01b600052603260045260246000fd5b634e487b7160e01b600052604160045260246000fd5b6001600160e01b03198116811461111757600080fdfeddf252ad1be2c89b69c2b068fc378daa952ba7f163c4a11628f55a4df523b3efa26469706673582212205a58e8a803edc5e6f4a37a5fb5aa8c9a8ab737ab01bc43630deea6493dc854ca64736f6c63430008070033",
  "immutableReferences": {},
  "source": "// SPDX-License-Identifier: MIT\r\npragma solidity 0.8.7;\r\npragma experimental ABIEncoderV2;\r\n\r\nimport \"@openzeppelin/contracts/token/ERC721/extensions/ERC721Enumerable.sol\";\r\nimport \"@openzeppelin/contracts/security/Pausable.sol\";\r\nimport \"@openzeppelin/contracts/access/Ownable.sol\";\r\n\r\ncontract NftBase is ERC721Enumerable, Pausable, Ownable {\r\n  using Strings for uint256;\r\n\r\n  string artistName;\r\n  string baseURI;\r\n  string public baseExtension = \".json\";\r\n  uint256 public cost = 0 ether;\r\n  uint256 public maxSupply;\r\n  uint256 public maxMintAmount;\r\n  bool public revealed = false;\r\n  address picardyAddress;\r\n  address creator;\r\n\r\n\r\n  constructor(\r\n    uint _maxSupply,\r\n    uint _maxMintAmount,\r\n    uint _cost,\r\n    string memory _name,\r\n    string memory _symbol,\r\n    string memory _initBaseURI,\r\n    string memory _artistName,\r\n    address _picardyAddress,\r\n    address _creator\r\n  ) ERC721(_name, _symbol) {\r\n    maxSupply = _maxSupply;\r\n    maxMintAmount = _maxMintAmount;\r\n    picardyAddress = _picardyAddress;\r\n    creator = _creator;\r\n    artistName = _artistName;\r\n    setCost(_cost);\r\n    setBaseURI(_initBaseURI);\r\n  }\r\n\r\n  // internal\r\n  function _baseURI() internal view virtual override returns (string memory) {\r\n    return baseURI;\r\n  }\r\n\r\n  // public\r\n  function mint(uint256 _mintAmount) public payable {\r\n    uint256 supply = totalSupply();\r\n    require(_mintAmount > 0);\r\n    require(_mintAmount <= maxMintAmount);\r\n    require(supply + _mintAmount <= maxSupply);\r\n\r\n    if (msg.sender != owner()) {\r\n      require(msg.value >= cost * _mintAmount);\r\n    }\r\n\r\n    for (uint256 i = 1; i <= _mintAmount; i++) {\r\n      _safeMint(msg.sender, supply + i);\r\n    }\r\n  }\r\n\r\n  function walletOfOwner(address _owner)\r\n    public\r\n    view\r\n    returns (uint256[] memory)\r\n  {\r\n    uint256 ownerTokenCount = balanceOf(_owner);\r\n    uint256[] memory tokenIds = new uint256[](ownerTokenCount);\r\n    for (uint256 i; i < ownerTokenCount; i++) {\r\n      tokenIds[i] = tokenOfOwnerByIndex(_owner, i);\r\n    }\r\n    return tokenIds;\r\n  }\r\n\r\n  function tokenURI(uint256 tokenId)\r\n    public\r\n    view\r\n    virtual\r\n    override\r\n    returns (string memory)\r\n  {\r\n    require(\r\n      _exists(tokenId),\r\n      \"ERC721Metadata: URI query for nonexistent token\"\r\n    );\r\n\r\n    string memory currentBaseURI = _baseURI();\r\n    return bytes(currentBaseURI).length > 0\r\n        ? string(abi.encodePacked(currentBaseURI, tokenId.toString(), baseExtension))\r\n        : \"\";\r\n  }\r\n\r\n  //only owner\r\n  function reveal() public onlyOwner {\r\n      revealed = true;\r\n  }\r\n  \r\n  function setCost(uint256 _newCost) public onlyOwner {\r\n    cost = _newCost;\r\n  }\r\n\r\n  function setmaxMintAmount(uint256 _newmaxMintAmount) public onlyOwner {\r\n    maxMintAmount = _newmaxMintAmount;\r\n  }\r\n\r\n  function setBaseURI(string memory _newBaseURI) public onlyOwner {\r\n    baseURI = _newBaseURI;\r\n  }\r\n\r\n  function setBaseExtension(string memory _newBaseExtension) public onlyOwner {\r\n    baseExtension = _newBaseExtension;\r\n  }\r\n\r\n  function pause() public onlyOwner {\r\n        _pause();\r\n    }\r\n\r\n  function unpause() public onlyOwner {\r\n        _unpause();\r\n    }\r\n \r\n  function withdraw() public payable onlyOwner {\r\n\r\n    (bool pc, ) = payable(picardyAddress).call{value: address(this).balance * 5 / 100}(\"\");\r\n    require(pc);\r\n\r\n    (bool os, ) = payable(creator).call{value: address(this).balance}(\"\");\r\n    require(os);\r\n  }\r\n}",
  "sourcePath": "C:\\Users\\USER\\Desktop\\Picardy\\contracts\\NftBase.sol",
  "compiler": {
    "name": "solc",
    "version": "0.8.7+commit.e28d00a7.Emscripten.clang"
  },
  "schemaVersion": "3.4.6",
  "updatedAt": "2022-04-13T14:14:16.546Z",
  "devdoc": {
    "kind": "dev",
    "methods": {
      "approve(address,uint256)": {
        "details": "See {IERC721-approve}."
      },
      "balanceOf(address)": {
        "details": "See {IERC721-balanceOf}."
      },
      "getApproved(uint256)": {
        "details": "See {IERC721-getApproved}."
      },
      "isApprovedForAll(address,address)": {
        "details": "See {IERC721-isApprovedForAll}."
      },
      "name()": {
        "details": "See {IERC721Metadata-name}."
      },
      "owner()": {
        "details": "Returns the address of the current owner."
      },
      "ownerOf(uint256)": {
        "details": "See {IERC721-ownerOf}."
      },
      "paused()": {
        "details": "Returns true if the contract is paused, and false otherwise."
      },
      "renounceOwnership()": {
        "details": "Leaves the contract without owner. It will not be possible to call `onlyOwner` functions anymore. Can only be called by the current owner. NOTE: Renouncing ownership will leave the contract without an owner, thereby removing any functionality that is only available to the owner."
      },
      "safeTransferFrom(address,address,uint256)": {
        "details": "See {IERC721-safeTransferFrom}."
      },
      "safeTransferFrom(address,address,uint256,bytes)": {
        "details": "See {IERC721-safeTransferFrom}."
      },
      "setApprovalForAll(address,bool)": {
        "details": "See {IERC721-setApprovalForAll}."
      },
      "supportsInterface(bytes4)": {
        "details": "See {IERC165-supportsInterface}."
      },
      "symbol()": {
        "details": "See {IERC721Metadata-symbol}."
      },
      "tokenByIndex(uint256)": {
        "details": "See {IERC721Enumerable-tokenByIndex}."
      },
      "tokenOfOwnerByIndex(address,uint256)": {
        "details": "See {IERC721Enumerable-tokenOfOwnerByIndex}."
      },
      "tokenURI(uint256)": {
        "details": "See {IERC721Metadata-tokenURI}."
      },
      "totalSupply()": {
        "details": "See {IERC721Enumerable-totalSupply}."
      },
      "transferFrom(address,address,uint256)": {
        "details": "See {IERC721-transferFrom}."
      },
      "transferOwnership(address)": {
        "details": "Transfers ownership of the contract to a new account (`newOwner`). Can only be called by the current owner."
      }
    },
    "version": 1
  },
  "userdoc": {
    "kind": "user",
    "methods": {},
    "version": 1
  }
}