{
  "contractName": "PicardyV1",
  "abi": [
    {
      "anonymous": false,
      "inputs": [
        {
          "indexed": true,
          "internalType": "uint256",
          "name": "itemId",
          "type": "uint256"
        },
        {
          "indexed": true,
          "internalType": "address",
          "name": "nftContract",
          "type": "address"
        },
        {
          "indexed": true,
          "internalType": "uint256",
          "name": "tokenId",
          "type": "uint256"
        },
        {
          "indexed": false,
          "internalType": "address",
          "name": "seller",
          "type": "address"
        },
        {
          "indexed": false,
          "internalType": "address",
          "name": "owner",
          "type": "address"
        },
        {
          "indexed": false,
          "internalType": "uint256",
          "name": "price",
          "type": "uint256"
        },
        {
          "indexed": false,
          "internalType": "bool",
          "name": "sold",
          "type": "bool"
        }
      ],
      "name": "MarketItemCreated",
      "type": "event"
    },
    {
      "anonymous": false,
      "inputs": [
        {
          "indexed": true,
          "internalType": "uint256",
          "name": "itemId",
          "type": "uint256"
        },
        {
          "indexed": false,
          "internalType": "address",
          "name": "owner",
          "type": "address"
        }
      ],
      "name": "MarketItemSold",
      "type": "event"
    },
    {
      "anonymous": false,
      "inputs": [
        {
          "indexed": true,
          "internalType": "address",
          "name": "previousOwner",
          "type": "address"
        },
        {
          "indexed": true,
          "internalType": "address",
          "name": "newOwner",
          "type": "address"
        }
      ],
      "name": "OwnershipTransferred",
      "type": "event"
    },
    {
      "inputs": [
        {
          "internalType": "address",
          "name": "nftContract",
          "type": "address"
        },
        {
          "internalType": "uint256",
          "name": "tokenId",
          "type": "uint256"
        },
        {
          "internalType": "uint256",
          "name": "price",
          "type": "uint256"
        }
      ],
      "name": "createMarketItem",
      "outputs": [],
      "stateMutability": "payable",
      "type": "function",
      "payable": true
    },
    {
      "inputs": [
        {
          "internalType": "address",
          "name": "nftContract",
          "type": "address"
        },
        {
          "internalType": "uint256",
          "name": "itemId",
          "type": "uint256"
        }
      ],
      "name": "createMarketSale",
      "outputs": [],
      "stateMutability": "payable",
      "type": "function",
      "payable": true
    },
    {
      "inputs": [],
      "name": "fetchMarketItems",
      "outputs": [
        {
          "components": [
            {
              "internalType": "uint256",
              "name": "itemId",
              "type": "uint256"
            },
            {
              "internalType": "address",
              "name": "nftContract",
              "type": "address"
            },
            {
              "internalType": "uint256",
              "name": "tokenId",
              "type": "uint256"
            },
            {
              "internalType": "address payable",
              "name": "seller",
              "type": "address"
            },
            {
              "internalType": "address payable",
              "name": "owner",
              "type": "address"
            },
            {
              "internalType": "uint256",
              "name": "price",
              "type": "uint256"
            },
            {
              "internalType": "bool",
              "name": "sold",
              "type": "bool"
            }
          ],
          "internalType": "struct Marketplace.MarketItem[]",
          "name": "",
          "type": "tuple[]"
        }
      ],
      "stateMutability": "view",
      "type": "function",
      "constant": true
    },
    {
      "inputs": [],
      "name": "owner",
      "outputs": [
        {
          "internalType": "address",
          "name": "",
          "type": "address"
        }
      ],
      "stateMutability": "view",
      "type": "function",
      "constant": true
    },
    {
      "inputs": [],
      "name": "renounceOwnership",
      "outputs": [],
      "stateMutability": "nonpayable",
      "type": "function"
    },
    {
      "inputs": [
        {
          "internalType": "address",
          "name": "newOwner",
          "type": "address"
        }
      ],
      "name": "transferOwnership",
      "outputs": [],
      "stateMutability": "nonpayable",
      "type": "function"
    },
    {
      "inputs": [
        {
          "internalType": "string",
          "name": "_artistName",
          "type": "string"
        }
      ],
      "name": "join",
      "outputs": [],
      "stateMutability": "nonpayable",
      "type": "function"
    },
    {
      "inputs": [
        {
          "internalType": "uint256",
          "name": "_maxSupply",
          "type": "uint256"
        },
        {
          "internalType": "uint256",
          "name": "_maxMintAmount",
          "type": "uint256"
        },
        {
          "internalType": "uint256",
          "name": "_cost",
          "type": "uint256"
        },
        {
          "internalType": "uint256",
          "name": "_percentage",
          "type": "uint256"
        },
        {
          "internalType": "string",
          "name": "_name",
          "type": "string"
        },
        {
          "internalType": "string",
          "name": "_symbol",
          "type": "string"
        },
        {
          "internalType": "string",
          "name": "_initBaseURI",
          "type": "string"
        },
        {
          "internalType": "string",
          "name": "_artistName",
          "type": "string"
        }
      ],
      "name": "createRoyaltySale",
      "outputs": [],
      "stateMutability": "nonpayable",
      "type": "function"
    },
    {
      "inputs": [
        {
          "internalType": "string",
          "name": "_artistName",
          "type": "string"
        },
        {
          "internalType": "string",
          "name": "_name",
          "type": "string"
        },
        {
          "internalType": "uint256",
          "name": "_amount",
          "type": "uint256"
        }
      ],
      "name": "buyRoyalty",
      "outputs": [],
      "stateMutability": "payable",
      "type": "function",
      "payable": true
    },
    {
      "inputs": [
        {
          "internalType": "string",
          "name": "_artistName",
          "type": "string"
        },
        {
          "internalType": "string",
          "name": "_name",
          "type": "string"
        }
      ],
      "name": "claimRoyalty",
      "outputs": [],
      "stateMutability": "payable",
      "type": "function",
      "payable": true
    },
    {
      "inputs": [
        {
          "internalType": "string",
          "name": "_artistName",
          "type": "string"
        },
        {
          "internalType": "string",
          "name": "_name",
          "type": "string"
        },
        {
          "internalType": "uint256",
          "name": "_amount",
          "type": "uint256"
        }
      ],
      "name": "updateRoyaltyBalance",
      "outputs": [],
      "stateMutability": "nonpayable",
      "type": "function"
    },
    {
      "inputs": [
        {
          "internalType": "string",
          "name": "_artistName",
          "type": "string"
        },
        {
          "internalType": "string",
          "name": "_name",
          "type": "string"
        }
      ],
      "name": "getOwnerRoyaltyNft",
      "outputs": [
        {
          "internalType": "uint256[]",
          "name": "tokenId",
          "type": "uint256[]"
        }
      ],
      "stateMutability": "view",
      "type": "function",
      "constant": true
    },
    {
      "inputs": [
        {
          "internalType": "address",
          "name": "operator",
          "type": "address"
        },
        {
          "internalType": "address",
          "name": "from",
          "type": "address"
        },
        {
          "internalType": "uint256",
          "name": "tokenId",
          "type": "uint256"
        },
        {
          "internalType": "bytes",
          "name": "data",
          "type": "bytes"
        }
      ],
      "name": "onERC721Received",
      "outputs": [
        {
          "internalType": "bytes4",
          "name": "",
          "type": "bytes4"
        }
      ],
      "stateMutability": "nonpayable",
      "type": "function"
    },
    {
      "inputs": [
        {
          "internalType": "uint256",
          "name": "_maxSupply",
          "type": "uint256"
        },
        {
          "internalType": "uint256",
          "name": "_maxMintAmount",
          "type": "uint256"
        },
        {
          "internalType": "uint256",
          "name": "_cost",
          "type": "uint256"
        },
        {
          "internalType": "string",
          "name": "_name",
          "type": "string"
        },
        {
          "internalType": "string",
          "name": "_symbol",
          "type": "string"
        },
        {
          "internalType": "string",
          "name": "_initBaseURI",
          "type": "string"
        },
        {
          "internalType": "string",
          "name": "_artistName",
          "type": "string"
        }
      ],
      "name": "createTicket",
      "outputs": [],
      "stateMutability": "nonpayable",
      "type": "function"
    },
    {
      "inputs": [
        {
          "internalType": "string",
          "name": "_artistName",
          "type": "string"
        },
        {
          "internalType": "string",
          "name": "_name",
          "type": "string"
        },
        {
          "internalType": "uint256",
          "name": "_amount",
          "type": "uint256"
        }
      ],
      "name": "buyTicket",
      "outputs": [],
      "stateMutability": "payable",
      "type": "function",
      "payable": true
    },
    {
      "inputs": [
        {
          "internalType": "string",
          "name": "_artistName",
          "type": "string"
        },
        {
          "internalType": "string",
          "name": "_name",
          "type": "string"
        }
      ],
      "name": "getOwnerTicketNft",
      "outputs": [
        {
          "internalType": "uint256[]",
          "name": "tokenId",
          "type": "uint256[]"
        }
      ],
      "stateMutability": "view",
      "type": "function",
      "constant": true
    },
    {
      "inputs": [
        {
          "internalType": "string",
          "name": "_artistName",
          "type": "string"
        },
        {
          "internalType": "string",
          "name": "_name",
          "type": "string"
        }
      ],
      "name": "getRoyaltyAdress",
      "outputs": [
        {
          "internalType": "contract NftBase",
          "name": "",
          "type": "address"
        }
      ],
      "stateMutability": "view",
      "type": "function",
      "constant": true
    },
    {
      "inputs": [
        {
          "internalType": "string",
          "name": "_artistName",
          "type": "string"
        },
        {
          "internalType": "string",
          "name": "_name",
          "type": "string"
        }
      ],
      "name": "getTicketAdress",
      "outputs": [
        {
          "internalType": "contract NftBase",
          "name": "",
          "type": "address"
        }
      ],
      "stateMutability": "view",
      "type": "function",
      "constant": true
    }
  ],
  "bytecode": "0x60806040526224ea0060055534801561001757600080fd5b506100213361002a565b6001805561007a565b600080546001600160a01b038381166001600160a01b0319831681178455604051919092169283917f8be0079c531659141344cd1fd0a4f28419497f9722a3daafe3b4186f6b6457e09190a35050565b615bba806200008a6000396000f3fe608060405260043610620000ec5760003560e01c80630f08efe014620000f157806313820e261462000121578063150b7a0214620001485780633caf74ed14620001925780633db047b414620001c657806358eb2df514620001dd5780635a41b3bc14620001f4578063683a40d114620002195780636a786b07146200024d578063715018a614620002725780637e0441fa146200028a578063812c81dd14620002af57806384daca2014620002d45780638da5cb5b14620002eb578063c23b139e1462000303578063ec8a4915146200031a578063f1315621146200033f578063f2fde38b1462000356575b600080fd5b348015620000fe57600080fd5b50620001096200037b565b60405162000118919062002e4c565b60405180910390f35b3480156200012e57600080fd5b50620001466200014036600462002c12565b62000549565b005b3480156200015557600080fd5b50620001786200016736600462002938565b630a85bd0160e11b95945050505050565b6040516001600160e01b0319909116815260200162000118565b3480156200019f57600080fd5b50620001b7620001b136600462002b35565b620009f6565b60405162000118919062002e14565b62000146620001d736600462002b9f565b62000a49565b62000146620001ee36600462002a08565b62000e01565b3480156200020157600080fd5b50620001466200021336600462002b9f565b62001011565b3480156200022657600080fd5b506200023e6200023836600462002b35565b62001478565b60405162000118919062002ee2565b3480156200025a57600080fd5b50620001466200026c36600462002af5565b62001542565b3480156200027f57600080fd5b506200014662001620565b3480156200029757600080fd5b50620001b7620002a936600462002b35565b62001662565b348015620002bc57600080fd5b5062000146620002ce36600462002ce8565b62001676565b62000146620002e536600462002b9f565b62001b98565b348015620002f857600080fd5b50620001b762001f4e565b6200014662000314366004620029db565b62001f5d565b3480156200032757600080fd5b506200023e6200033936600462002b35565b620021ba565b620001466200035036600462002b35565b620021ce565b3480156200036357600080fd5b5062000146620003753660046200291a565b62002563565b606060006200038960025490565b905060006200039760035490565b600254620003a691906200315e565b9050600080826001600160401b03811115620003c657620003c66200322e565b6040519080825280602002602001820160405280156200042f57816020015b6040805160e08101825260008082526020808301829052928201819052606082018190526080820181905260a0820181905260c08201528252600019909201910181620003e55790505b50905060005b848110156200054057600060048162000450846001620030fe565b81526020810191909152604001600020600401546001600160a01b031614156200052b57600062000483826001620030fe565b600081815260046020818152604092839020835160e0810185528154815260018201546001600160a01b039081169382019390935260028201549481019490945260038101548216606085015291820154166080830152600581015460a0830152600681015460ff16151560c08301528551929350918590879081106200050e576200050e62003218565b602090810291909101015262000526600186620030fe565b945050505b806200053781620031e4565b91505062000435565b50949350505050565b80600d816040516200055c919062002df6565b9081526040519081900360200190205460ff1615156001146200059c5760405162461bcd60e51b8152600401620005939062003004565b60405180910390fd5b6000888888888888883033604051620005b590620027d3565b620005c99998979695949392919062003036565b604051809103906000f080158015620005e6573d6000803e3d6000fd5b50905080600684604051620005fc919062002df6565b9081526020016040518091039020876040516200061a919062002df6565b908152604080516020928190038301812080546001600160a01b0319166001600160a01b0395861617905561010081018252338152928416918301919091528181018b9052600060608301819052608083018a905260a083015260c0820185905260e08201889052518190600c906200069590879062002df6565b908152602001604051809103902088604051620006b3919062002df6565b9081526040805160209281900383019020835181546001600160a01b03199081166001600160a01b03928316178355858501516001840180549092169216919091179055908301516002820155606083015160038201556080830151600482015560a083015160058201805460ff191691151591909117905560c0830151805191926200074992600685019290910190620027e1565b5060e0820151805162000767916007840191602090910190620027e1565b509050506009846040516200077d919062002df6565b9081526040805160209281900383019020805460018082018355600092835291849020855160089092020180546001600160a01b03199081166001600160a01b0393841617825586860151938201805490911693909216929092179055908301516002820155606083015160038201556080830151600482015560a083015160058201805460ff191691151591909117905560c0830151805184936200082b926006850192910190620027e1565b5060e0820151805162000849916007840191602090910190620027e1565b50506014805460018101825560009190915282517fce6d7b5282bd9a3661ae061feed1dbda4e52ab073b1f9285be6e155d9c38d4ec600890920291820180546001600160a01b03199081166001600160a01b039384161782556020808701517fce6d7b5282bd9a3661ae061feed1dbda4e52ab073b1f9285be6e155d9c38d4ed86018054909316941693909317905560408501517fce6d7b5282bd9a3661ae061feed1dbda4e52ab073b1f9285be6e155d9c38d4ee84015560608501517fce6d7b5282bd9a3661ae061feed1dbda4e52ab073b1f9285be6e155d9c38d4ef84015560808501517fce6d7b5282bd9a3661ae061feed1dbda4e52ab073b1f9285be6e155d9c38d4f084015560a08501517fce6d7b5282bd9a3661ae061feed1dbda4e52ab073b1f9285be6e155d9c38d4f18401805460ff191691151591909117905560c085015180518695509193620009c9937fce6d7b5282bd9a3661ae061feed1dbda4e52ab073b1f9285be6e155d9c38d4f290910192910190620027e1565b5060e08201518051620009e7916007840191602090910190620027e1565b50505050505050505050505050565b600060078360405162000a0a919062002df6565b90815260200160405180910390208260405162000a28919062002df6565b908152604051908190036020019020546001600160a01b0316905092915050565b600d8360405162000a5b919062002df6565b9081526040519081900360200190205460ff16151560011462000a925760405162461bcd60e51b8152600401620005939062002f28565b600b8360405162000aa4919062002df6565b90815260200160405180910390208260405162000ac2919062002df6565b9081526040519081900360200190206006015460ff161562000b205760405162461bcd60e51b8152602060048201526016602482015275149bde585b1d1e4814d85b194810dbdb5c1b195d195960521b604482015260640162000593565b62000b6f81600b8560405162000b37919062002df6565b90815260200160405180910390208460405162000b55919062002df6565b90815260405190819003602001902060050154906200260c565b34101562000b915760405162461bcd60e51b8152600401620005939062002fc3565b60078360405162000ba3919062002df6565b90815260200160405180910390208260405162000bc1919062002df6565b9081526040519081900360200181205463140e25ad60e31b82526001600160a01b03169063a0712d689062000bfe90849060040190815260200190565b600060405180830381600087803b15801562000c1957600080fd5b505af115801562000c2e573d6000803e3d6000fd5b50505050600062000c40848462002621565b90506000600b8560405162000c56919062002df6565b90815260200160405180910390208460405162000c74919062002df6565b90815260405190819003602001902060030154905062000c9581846200268c565b905060005b825181101562000d5957600f8660405162000cb6919062002df6565b90815260200160405180910390208560405162000cd4919062002df6565b908152602001604051809103902083828151811062000cf75762000cf762003218565b60209081029190910181015182546001810184556000938452919092200155825162000d44908790879086908590811062000d365762000d3662003218565b60200260200101516200269a565b8062000d5081620031e4565b91505062000c9a565b50600b8560405162000d6c919062002df6565b90815260200160405180910390208460405162000d8a919062002df6565b90815260200160405180910390206002015481141562000dfa576001600b8660405162000db8919062002df6565b90815260200160405180910390208560405162000dd6919062002df6565b908152604051908190036020019020600601805491151560ff199092169190911790555b5050505050565b6002600154141562000e275760405162461bcd60e51b8152600401620005939062002f8c565b60026001558062000e7a5760405162461bcd60e51b815260206004820152601c60248201527b05072696365206d7573742062652067726561746572207468616e20360241b604482015260640162000593565b62000e89600280546001019055565b600062000e9560025490565b6040805160e0810182528281526001600160a01b0380881660208084018281528486018a8152336060870181815260006080890181815260a08a018e815260c08b018381528d8452600498899052928c90209a518b55955160018b018054918b166001600160a01b0319928316179055945160028b0155915160038a018054918a16918616919091179055905188860180549190981693169290921790955590516005860155516006909401805494151560ff199095169490941790935592516323b872dd60e01b815293945091926323b872dd9262000f7c929091309189910162002e28565b600060405180830381600087803b15801562000f9757600080fd5b505af115801562000fac573d6000803e3d6000fd5b505060408051338152600060208201819052818301879052606082015290518693506001600160a01b038816925084917f045dfa01dcba2b36aba1d3dc4a874f4b0c5d2fbeb8d2c4b34a7d88c8d8f929d1919081900360800190a45050600180555050565b336200101c62001f4e565b6001600160a01b031614620010455760405162461bcd60e51b8152600401620005939062002f57565b600d8360405162001057919062002df6565b9081526040519081900360200190205460ff1615156001146200108e5760405162461bcd60e51b8152600401620005939062002f28565b620010df600554600b85604051620010a7919062002df6565b908152602001604051809103902084604051620010c5919062002df6565b90815260405190819003602001902060090154906200268c565b600b84604051620010f1919062002df6565b9081526020016040518091039020836040516200110f919062002df6565b90815260200160405180910390206009015411620011665760405162461bcd60e51b81526020600482015260136024820152724e6f742074696d6520666f722075706461746560681b604482015260640162000593565b80600e8460405162001179919062002df6565b90815260200160405180910390208360405162001197919062002df6565b9081526020016040518091039020819055506000600f84604051620011bd919062002df6565b908152602001604051809103902083604051620011db919062002df6565b90815260408051918290036020908101832080548083028501830190935282845291908301828280156200122f57602002820191906000526020600020905b8154815260200190600101908083116200121a575b5050505050905060006064600b866040516200124c919062002df6565b9081526020016040518091039020856040516200126a919062002df6565b908152602001604051809103902060040154600e876040516200128e919062002df6565b908152602001604051809103902086604051620012ac919062002df6565b908152602001604051809103902054620012c791906200313c565b620012d3919062003119565b9050600062001367600b87604051620012ed919062002df6565b9081526020016040518091039020866040516200130b919062002df6565b908152602001604051809103902060020154600b886040516200132f919062002df6565b9081526020016040518091039020876040516200134d919062002df6565b908152604051908190036020019020600401549062002741565b9050600060646200137983856200313c565b62001385919062003119565b905060005b84518110156200142a576000601089604051620013a8919062002df6565b908152602001604051809103902088604051620013c6919062002df6565b90815260200160405180910390206000878481518110620013eb57620013eb62003218565b602002602001015181526020019081526020016000205490508281620014129190620030fe565b508190506200142181620031e4565b9150506200138a565b5042600b886040516200143e919062002df6565b9081526020016040518091039020876040516200145c919062002df6565b9081526040519081900360200190206009015550505050505050565b60606006836040516200148c919062002df6565b908152602001604051809103902082604051620014aa919062002df6565b9081526040519081900360200181205462438b6360e81b82526001600160a01b03169063438b630090620014e390339060040162002e14565b60006040518083038186803b158015620014fc57600080fd5b505afa15801562001511573d6000803e3d6000fd5b505050506040513d6000823e601f3d908101601f191682016040526200153b919081019062002a3e565b5092915050565b336000908152600a6020526040908190209051600d906200156590849062002df6565b9081526040519081900360200190205460ff16156200158357600080fd5b6040805180820190915233815260208082018481528354600180820186556000868152849020855160029093020180546001600160a01b0319166001600160a01b03909316929092178255915180519193620015e593850192910190620027e1565b5050506001600d83604051620015fc919062002df6565b908152604051908190036020019020805491151560ff199092169190911790555050565b336200162b62001f4e565b6001600160a01b031614620016545760405162461bcd60e51b8152600401620005939062002f57565b6200166060006200274f565b565b600060068360405162000a0a919062002df6565b80600d8160405162001689919062002df6565b9081526040519081900360200190205460ff161515600114620016c05760405162461bcd60e51b8152600401620005939062003004565b60008711620016ce57600080fd5b6000898989888888883033604051620016e790620027d3565b620016fb9998979695949392919062003036565b604051809103906000f08015801562001718573d6000803e3d6000fd5b509050806007846040516200172e919062002df6565b9081526020016040518091039020876040516200174c919062002df6565b908152604080516020928190038301812080546001600160a01b0319166001600160a01b0395861617905561014081018252338152928416918301919091528181018c9052600060608301819052608083018a905260a083018b905260c0830181905260e083018690526101008301899052610120830152518190600b90620017d790879062002df6565b908152602001604051809103902088604051620017f5919062002df6565b9081526040805160209281900383019020835181546001600160a01b03199081166001600160a01b03928316178355858501516001840180549092169216919091179055908301516002820155606083015160038201556080830151600482015560a0830151600582015560c083015160068201805460ff191691151591909117905560e0830151805191926200189592600785019290910190620027e1565b506101008201518051620018b4916008840191602090910190620027e1565b506101208201518160090155905050600884604051620018d5919062002df6565b90815260408051602092819003830190208054600180820183556000928352918490208551600a9092020180546001600160a01b03199081166001600160a01b0393841617825586860151938201805490911693909216929092179055908301516002820155606083015160038201556080830151600482015560a0830151600582015560c083015160068201805460ff191691151591909117905560e0830151805184936200198d926007850192910190620027e1565b506101008201518051620019ac916008840191602090910190620027e1565b5061012091909101516009909101556013805460018101825560009190915281517f66de8ffda797e3de9c05e8fc57b3bf0ec28a930d40b0d285d93c06501cf6a090600a90920291820180546001600160a01b03199081166001600160a01b039384161782556020808601517f66de8ffda797e3de9c05e8fc57b3bf0ec28a930d40b0d285d93c06501cf6a09186018054909316941693909317905560408401517f66de8ffda797e3de9c05e8fc57b3bf0ec28a930d40b0d285d93c06501cf6a09284015560608401517f66de8ffda797e3de9c05e8fc57b3bf0ec28a930d40b0d285d93c06501cf6a09384015560808401517f66de8ffda797e3de9c05e8fc57b3bf0ec28a930d40b0d285d93c06501cf6a09484015560a08401517f66de8ffda797e3de9c05e8fc57b3bf0ec28a930d40b0d285d93c06501cf6a09584015560c08401517f66de8ffda797e3de9c05e8fc57b3bf0ec28a930d40b0d285d93c06501cf6a0968401805460ff191691151591909117905560e084015180518594929362001b5e937f66de8ffda797e3de9c05e8fc57b3bf0ec28a930d40b0d285d93c06501cf6a09701920190620027e1565b50610100820151805162001b7d916008840191602090910190620027e1565b50610120820151816009015550505050505050505050505050565b600d8360405162001baa919062002df6565b9081526040519081900360200190205460ff16151560011462001be15760405162461bcd60e51b8152600401620005939062002f28565b600c8360405162001bf3919062002df6565b90815260200160405180910390208260405162001c11919062002df6565b9081526040519081900360200190206005015460ff161562001c6e5760405162461bcd60e51b8152602060048201526015602482015274151a58dad95d0814d85b194810dbdb5c1b195d1959605a1b604482015260640162000593565b62001cbd81600c8560405162001c85919062002df6565b90815260200160405180910390208460405162001ca3919062002df6565b90815260405190819003602001902060040154906200260c565b34101562001cdf5760405162461bcd60e51b8152600401620005939062002fc3565b60068360405162001cf1919062002df6565b90815260200160405180910390208260405162001d0f919062002df6565b9081526040519081900360200181205463140e25ad60e31b82526001600160a01b03169063a0712d689062001d4c90849060040190815260200190565b600060405180830381600087803b15801562001d6757600080fd5b505af115801562001d7c573d6000803e3d6000fd5b50505050600062001d8e84846200279f565b90506000600c8560405162001da4919062002df6565b90815260200160405180910390208460405162001dc2919062002df6565b90815260405190819003602001902060030154905062001de381846200268c565b905060005b825181101562001ea757600f8660405162001e04919062002df6565b90815260200160405180910390208560405162001e22919062002df6565b908152602001604051809103902083828151811062001e455762001e4562003218565b60209081029190910181015182546001810184556000938452919092200155825162001e92908790879086908590811062001e845762001e8462003218565b6020026020010151620027b3565b8062001e9e81620031e4565b91505062001de8565b50600c8560405162001eba919062002df6565b90815260200160405180910390208460405162001ed8919062002df6565b90815260200160405180910390206002015481141562000dfa576001600c8660405162001f06919062002df6565b90815260200160405180910390208560405162001f24919062002df6565b908152604051908190036020019020600501805491151560ff199092169190911790555050505050565b6000546001600160a01b031690565b6002600154141562001f835760405162461bcd60e51b8152600401620005939062002f8c565b60026001819055600082815260046020526040902060058101549181015460069091015460ff1634831462002023576040805162461bcd60e51b81526020600482015260248101919091527f506c65617365207375626d6974207468652061736b696e67207072696365206960448201527f6e206f7264657220746f20636f6d706c65746520746865207075726368617365606482015260840162000593565b60018115151415620020785760405162461bcd60e51b815260206004820152601e60248201527f546869732053616c652068617320616c726564792066696e6e69736865640000604482015260640162000593565b837f2073b2706c235effb1e3840575370a51749afd8181b4018f93bff955d50792cb33604051620020aa919062002e14565b60405180910390a26000848152600460205260408082206003015490516001600160a01b03909116913480156108fc02929091818181858888f19350505050158015620020fb573d6000803e3d6000fd5b506040516323b872dd60e01b81526001600160a01b038616906323b872dd906200212e9030903390879060040162002e28565b600060405180830381600087803b1580156200214957600080fd5b505af11580156200215e573d6000803e3d6000fd5b50505060008581526004602081905260409091200180546001600160a01b031916331790555062002193600380546001019055565b5050506000908152600460205260409020600601805460ff19166001908117909155805550565b60606007836040516200148c919062002df6565b600d82604051620021e0919062002df6565b9081526040519081900360200190205460ff161515600114620022175760405162461bcd60e51b8152600401620005939062002f28565b600b8260405162002229919062002df6565b90815260200160405180910390208160405162002247919062002df6565b9081526040519081900360200190206006015460ff161515600114620022ac5760405162461bcd60e51b8152602060048201526019602482015278526f79616c74792053616c65204e6f7420436f6d706c65746560381b604482015260640162000593565b6000620022ba8383620021ba565b905060005b81518110156200255d576000601085604051620022dd919062002df6565b908152602001604051809103902084604051620022fb919062002df6565b9081526020016040518091039020600084848151811062002320576200232062003218565b6020026020010151815260200190815260200160002054116200237d5760405162461bcd60e51b81526020600482015260146024820152734e6f20726f79616c69747920746f20636c61696d60601b604482015260640162000593565b600060108560405162002391919062002df6565b908152602001604051809103902084604051620023af919062002df6565b90815260200160405180910390206000848481518110620023d457620023d462003218565b602002602001015181526020019081526020016000205490506200243981600e8760405162002404919062002df6565b90815260200160405180910390208660405162002422919062002df6565b9081526040519081900360200190205490620027c5565b600e866040516200244b919062002df6565b90815260200160405180910390208560405162002469919062002df6565b90815260405190819003602001812091909155600090339083908381818185875af1925050503d8060008114620024bd576040519150601f19603f3d011682016040523d82523d6000602084013e620024c2565b606091505b5050905080620024d157600080fd5b6000915042601187604051620024e8919062002df6565b90815260200160405180910390208660405162002506919062002df6565b908152602001604051809103902060008686815181106200252b576200252b62003218565b6020026020010151815260200190815260200160002081905550505080806200255490620031e4565b915050620022bf565b50505050565b336200256e62001f4e565b6001600160a01b031614620025975760405162461bcd60e51b8152600401620005939062002f57565b6001600160a01b038116620025fe5760405162461bcd60e51b815260206004820152602660248201527f4f776e61626c653a206e6577206f776e657220697320746865207a65726f206160448201526564647265737360d01b606482015260840162000593565b62002609816200274f565b50565b60006200261a82846200313c565b9392505050565b606060078360405162002635919062002df6565b90815260200160405180910390208260405162002653919062002df6565b9081526040519081900360200181205462438b6360e81b82526001600160a01b03169063438b630090620014e390309060040162002e14565b60006200261a8284620030fe565b600783604051620026ac919062002df6565b908152602001604051809103902082604051620026ca919062002df6565b90815260405190819003602001812054632142170760e11b82526001600160a01b0316906342842e0e90620027089030903390869060040162002e28565b600060405180830381600087803b1580156200272357600080fd5b505af115801562002738573d6000803e3d6000fd5b50505050505050565b60006200261a828462003119565b600080546001600160a01b038381166001600160a01b0319831681178455604051919092169283917f8be0079c531659141344cd1fd0a4f28419497f9722a3daafe3b4186f6b6457e09190a35050565b606060068360405162002635919062002df6565b600683604051620026ac919062002df6565b60006200261a82846200315e565b612940806200324583390190565b828054620027ef90620031a7565b90600052602060002090601f0160209004810192826200281357600085556200285e565b82601f106200282e57805160ff19168380011785556200285e565b828001600101855582156200285e579182015b828111156200285e57825182559160200191906001019062002841565b506200286c92915062002870565b5090565b5b808211156200286c576000815560010162002871565b80356001600160a01b03811681146200289f57600080fd5b919050565b600082601f830112620028b657600080fd5b81356001600160401b03811115620028d257620028d26200322e565b620028e7601f8201601f1916602001620030cb565b818152846020838601011115620028fd57600080fd5b816020850160208301376000918101602001919091529392505050565b6000602082840312156200292d57600080fd5b6200261a8262002887565b6000806000806000608086880312156200295157600080fd5b6200295c8662002887565b94506200296c6020870162002887565b93506040860135925060608601356001600160401b03808211156200299057600080fd5b818801915088601f830112620029a557600080fd5b813581811115620029b557600080fd5b896020828501011115620029c857600080fd5b9699959850939650602001949392505050565b60008060408385031215620029ef57600080fd5b620029fa8362002887565b946020939093013593505050565b60008060006060848603121562002a1e57600080fd5b62002a298462002887565b95602085013595506040909401359392505050565b6000602080838503121562002a5257600080fd5b82516001600160401b038082111562002a6a57600080fd5b818501915085601f83011262002a7f57600080fd5b81518181111562002a945762002a946200322e565b8060051b915062002aa7848301620030cb565b8181528481019084860184860187018a101562002ac357600080fd5b600095505b8386101562002ae857805183526001959095019491860191860162002ac8565b5098975050505050505050565b60006020828403121562002b0857600080fd5b81356001600160401b0381111562002b1f57600080fd5b62002b2d84828501620028a4565b949350505050565b6000806040838503121562002b4957600080fd5b82356001600160401b038082111562002b6157600080fd5b62002b6f86838701620028a4565b9350602085013591508082111562002b8657600080fd5b5062002b9585828601620028a4565b9150509250929050565b60008060006060848603121562002bb557600080fd5b83356001600160401b038082111562002bcd57600080fd5b62002bdb87838801620028a4565b9450602086013591508082111562002bf257600080fd5b5062002c0186828701620028a4565b925050604084013590509250925092565b600080600080600080600060e0888a03121562002c2e57600080fd5b87359650602088013595506040880135945060608801356001600160401b038082111562002c5b57600080fd5b62002c698b838c01620028a4565b955060808a013591508082111562002c8057600080fd5b62002c8e8b838c01620028a4565b945060a08a013591508082111562002ca557600080fd5b62002cb38b838c01620028a4565b935060c08a013591508082111562002cca57600080fd5b5062002cd98a828b01620028a4565b91505092959891949750929550565b600080600080600080600080610100898b03121562002d0657600080fd5b8835975060208901359650604089013595506060890135945060808901356001600160401b038082111562002d3a57600080fd5b62002d488c838d01620028a4565b955060a08b013591508082111562002d5f57600080fd5b62002d6d8c838d01620028a4565b945060c08b013591508082111562002d8457600080fd5b62002d928c838d01620028a4565b935060e08b013591508082111562002da957600080fd5b5062002db88b828c01620028a4565b9150509295985092959890939650565b6000815180845262002de281602086016020860162003178565b601f01601f19169290920160200192915050565b6000825162002e0a81846020870162003178565b9190910192915050565b6001600160a01b0391909116815260200190565b6001600160a01b039384168152919092166020820152604081019190915260600190565b602080825282518282018190526000919060409081850190868401855b8281101562002ed557815180518552868101516001600160a01b039081168887015286820151878701526060808301518216908701526080808301519091169086015260a0808201519086015260c09081015115159085015260e0909301929085019060010162002e69565b5091979650505050505050565b6020808252825182820181905260009190848201906040850190845b8181101562002f1c5783518352928401929184019160010162002efe565b50909695505050505050565b602080825260159082015274105c9d1a5cdd08111bd95cc8139bdd08115e1a5cdd605a1b604082015260600190565b6020808252818101527f4f776e61626c653a2063616c6c6572206973206e6f7420746865206f776e6572604082015260600190565b6020808252601f908201527f5265656e7472616e637947756172643a207265656e7472616e742063616c6c00604082015260600190565b60208082526021908201527f4e6f7420456e6f75676820546f6b656e20546f204d616b6520507572636861736040820152606560f81b606082015260800190565b602080825260189082015277151a1a5cc8185c9d1a5cdd08191bd95cdb9d08195e1a5cdd60421b604082015260600190565b60006101208b83528a60208401528960408401528060608401526200305e8184018a62002dc8565b9050828103608084015262003074818962002dc8565b905082810360a08401526200308a818862002dc8565b905082810360c0840152620030a0818762002dc8565b6001600160a01b0395861660e085015293909416610100909201919091525098975050505050505050565b604051601f8201601f191681016001600160401b0381118282101715620030f657620030f66200322e565b604052919050565b6000821982111562003114576200311462003202565b500190565b6000826200313757634e487b7160e01b600052601260045260246000fd5b500490565b600081600019048311821515161562003159576200315962003202565b500290565b60008282101562003173576200317362003202565b500390565b60005b83811015620031955781810151838201526020016200317b565b838111156200255d5750506000910152565b600181811c90821680620031bc57607f821691505b60208210811415620031de57634e487b7160e01b600052602260045260246000fd5b50919050565b6000600019821415620031fb57620031fb62003202565b5060010190565b634e487b7160e01b600052601160045260246000fd5b634e487b7160e01b600052603260045260246000fd5b634e487b7160e01b600052604160045260246000fdfe60c06040526005608081905264173539b7b760d91b60a09081526200002891600d919062000230565b506000600e556011805460ff191690553480156200004557600080fd5b5060405162002940380380620029408339810160408190526200006891620003aa565b8551869086906200008190600090602085019062000230565b5080516200009790600190602084019062000230565b5050600a805460ff1916905550620000af3362000133565b600f899055601088905560118054610100600160a81b0319166101006001600160a01b038581169190910291909117909155601280546001600160a01b03191691831691909117905582516200010d90600b90602086019062000230565b5062000119876200018d565b6200012484620001cf565b50505050505050505062000530565b600a80546001600160a01b03838116610100818102610100600160a81b031985161790945560405193909204169182907f8be0079c531659141344cd1fd0a4f28419497f9722a3daafe3b4186f6b6457e090600090a35050565b33620001986200021c565b6001600160a01b031614620001ca5760405162461bcd60e51b8152600401620001c190620004a8565b60405180910390fd5b600e55565b33620001da6200021c565b6001600160a01b031614620002035760405162461bcd60e51b8152600401620001c190620004a8565b80516200021890600c90602084019062000230565b5050565b600a5461010090046001600160a01b031690565b8280546200023e90620004dd565b90600052602060002090601f016020900481019282620002625760008555620002ad565b82601f106200027d57805160ff1916838001178555620002ad565b82800160010185558215620002ad579182015b82811115620002ad57825182559160200191906001019062000290565b50620002bb929150620002bf565b5090565b5b80821115620002bb5760008155600101620002c0565b80516001600160a01b0381168114620002ee57600080fd5b919050565b600082601f8301126200030557600080fd5b81516001600160401b03808211156200032257620003226200051a565b604051601f8301601f19908116603f011681019082821181831017156200034d576200034d6200051a565b816040528381526020925086838588010111156200036a57600080fd5b600091505b838210156200038e57858201830151818301840152908201906200036f565b83821115620003a05760008385830101525b9695505050505050565b60008060008060008060008060006101208a8c031215620003ca57600080fd5b895160208b015160408c015160608d0151929b5090995097506001600160401b0380821115620003f957600080fd5b620004078d838e01620002f3565b975060808c01519150808211156200041e57600080fd5b6200042c8d838e01620002f3565b965060a08c01519150808211156200044357600080fd5b620004518d838e01620002f3565b955060c08c01519150808211156200046857600080fd5b50620004778c828d01620002f3565b9350506200048860e08b01620002d6565b9150620004996101008b01620002d6565b90509295985092959850929598565b6020808252818101527f4f776e61626c653a2063616c6c6572206973206e6f7420746865206f776e6572604082015260600190565b600181811c90821680620004f257607f821691505b602082108114156200051457634e487b7160e01b600052602260045260246000fd5b50919050565b634e487b7160e01b600052604160045260246000fd5b61240080620005406000396000f3fe6080604052600436106101945760003560e01c806301ffc9a71461019957806306fdde03146101ce578063081812fc146101f0578063095ea7b31461021d57806313faede61461023f57806318160ddd14610263578063239c70ae1461027857806323b872dd1461028e5780632f745c59146102ae5780633ccfd60b146102ce5780633f4ba83a146102d657806342842e0e146102eb578063438b63001461030b57806344a0d68a146103385780634f6ccce714610358578063518302271461037857806355f804b3146103925780635c975abb146103b25780636352211e146103ca57806370a08231146103ea578063715018a61461040a5780637f00c7a61461041f5780638456cb591461043f5780638da5cb5b1461045457806395d89b4114610469578063a0712d681461047e578063a22cb46514610491578063a475b5dd146104b1578063b88d4fde146104c6578063c6682862146104e6578063c87b56dd146104fb578063d5abeb011461051b578063da3ef23f14610531578063e985e9c514610551578063f2fde38b14610571575b600080fd5b3480156101a557600080fd5b506101b96101b4366004611f23565b610591565b60405190151581526020015b60405180910390f35b3480156101da57600080fd5b506101e36105bc565b6040516101c59190612143565b3480156101fc57600080fd5b5061021061020b366004611fa5565b61064e565b6040516101c591906120ae565b34801561022957600080fd5b5061023d610238366004611ef9565b6106db565b005b34801561024b57600080fd5b50610255600e5481565b6040519081526020016101c5565b34801561026f57600080fd5b50600854610255565b34801561028457600080fd5b5061025560105481565b34801561029a57600080fd5b5061023d6102a9366004611e06565b6107ec565b3480156102ba57600080fd5b506102556102c9366004611ef9565b61081d565b61023d6108b3565b3480156102e257600080fd5b5061023d6109c0565b3480156102f757600080fd5b5061023d610306366004611e06565b6109f9565b34801561031757600080fd5b5061032b610326366004611db8565b610a14565b6040516101c591906120ff565b34801561034457600080fd5b5061023d610353366004611fa5565b610ab5565b34801561036457600080fd5b50610255610373366004611fa5565b610ae9565b34801561038457600080fd5b506011546101b99060ff1681565b34801561039e57600080fd5b5061023d6103ad366004611f5d565b610b7c565b3480156103be57600080fd5b50600a5460ff166101b9565b3480156103d657600080fd5b506102106103e5366004611fa5565b610bbe565b3480156103f657600080fd5b50610255610405366004611db8565b610c35565b34801561041657600080fd5b5061023d610cbc565b34801561042b57600080fd5b5061023d61043a366004611fa5565b610cf5565b34801561044b57600080fd5b5061023d610d29565b34801561046057600080fd5b50610210610d60565b34801561047557600080fd5b506101e3610d74565b61023d61048c366004611fa5565b610d83565b34801561049d57600080fd5b5061023d6104ac366004611ebd565b610e2d565b3480156104bd57600080fd5b5061023d610e38565b3480156104d257600080fd5b5061023d6104e1366004611e42565b610e76565b3480156104f257600080fd5b506101e3610eae565b34801561050757600080fd5b506101e3610516366004611fa5565b610f3c565b34801561052757600080fd5b50610255600f5481565b34801561053d57600080fd5b5061023d61054c366004611f5d565b61100a565b34801561055d57600080fd5b506101b961056c366004611dd3565b61104c565b34801561057d57600080fd5b5061023d61058c366004611db8565b61107a565b60006001600160e01b0319821663780e9d6360e01b14806105b657506105b68261111a565b92915050565b6060600080546105cb906122bc565b80601f01602080910402602001604051908101604052809291908181526020018280546105f7906122bc565b80156106445780601f1061061957610100808354040283529160200191610644565b820191906000526020600020905b81548152906001019060200180831161062757829003601f168201915b5050505050905090565b60006106598261116a565b6106bf5760405162461bcd60e51b815260206004820152602c60248201527f4552433732313a20617070726f76656420717565727920666f72206e6f6e657860448201526b34b9ba32b73a103a37b5b2b760a11b60648201526084015b60405180910390fd5b506000908152600460205260409020546001600160a01b031690565b60006106e682610bbe565b9050806001600160a01b0316836001600160a01b031614156107545760405162461bcd60e51b815260206004820152602160248201527f4552433732313a20617070726f76616c20746f2063757272656e74206f776e656044820152603960f91b60648201526084016106b6565b336001600160a01b03821614806107705750610770813361104c565b6107dd5760405162461bcd60e51b815260206004820152603860248201527f4552433732313a20617070726f76652063616c6c6572206973206e6f74206f776044820152771b995c881b9bdc88185c1c1c9bdd995908199bdc88185b1b60421b60648201526084016106b6565b6107e78383611187565b505050565b6107f633826111f5565b6108125760405162461bcd60e51b81526004016106b6906121dd565b6107e78383836112bf565b600061082883610c35565b821061088a5760405162461bcd60e51b815260206004820152602b60248201527f455243373231456e756d657261626c653a206f776e657220696e646578206f7560448201526a74206f6620626f756e647360a81b60648201526084016106b6565b506001600160a01b03919091166000908152600660209081526040808320938352929052205490565b336108bc610d60565b6001600160a01b0316146108e25760405162461bcd60e51b81526004016106b6906121a8565b60115460009061010090046001600160a01b0316606461090347600561225a565b61090d9190612246565b604051600081818185875af1925050503d8060008114610949576040519150601f19603f3d011682016040523d82523d6000602084013e61094e565b606091505b505090508061095c57600080fd5b6012546040516000916001600160a01b03169047908381818185875af1925050503d80600081146109a9576040519150601f19603f3d011682016040523d82523d6000602084013e6109ae565b606091505b50509050806109bc57600080fd5b5050565b336109c9610d60565b6001600160a01b0316146109ef5760405162461bcd60e51b81526004016106b6906121a8565b6109f7611454565b565b6107e783838360405180602001604052806000815250610e76565b60606000610a2183610c35565b90506000816001600160401b03811115610a3d57610a3d61237e565b604051908082528060200260200182016040528015610a66578160200160208202803683370190505b50905060005b82811015610aad57610a7e858261081d565b828281518110610a9057610a90612368565b602090810291909101015280610aa5816122f7565b915050610a6c565b509392505050565b33610abe610d60565b6001600160a01b031614610ae45760405162461bcd60e51b81526004016106b6906121a8565b600e55565b6000610af460085490565b8210610b575760405162461bcd60e51b815260206004820152602c60248201527f455243373231456e756d657261626c653a20676c6f62616c20696e646578206f60448201526b7574206f6620626f756e647360a01b60648201526084016106b6565b60088281548110610b6a57610b6a612368565b90600052602060002001549050919050565b33610b85610d60565b6001600160a01b031614610bab5760405162461bcd60e51b81526004016106b6906121a8565b80516109bc90600c906020840190611c8e565b6000818152600260205260408120546001600160a01b0316806105b65760405162461bcd60e51b815260206004820152602960248201527f4552433732313a206f776e657220717565727920666f72206e6f6e657869737460448201526832b73a103a37b5b2b760b91b60648201526084016106b6565b60006001600160a01b038216610ca05760405162461bcd60e51b815260206004820152602a60248201527f4552433732313a2062616c616e636520717565727920666f7220746865207a65604482015269726f206164647265737360b01b60648201526084016106b6565b506001600160a01b031660009081526003602052604090205490565b33610cc5610d60565b6001600160a01b031614610ceb5760405162461bcd60e51b81526004016106b6906121a8565b6109f760006114e1565b33610cfe610d60565b6001600160a01b031614610d245760405162461bcd60e51b81526004016106b6906121a8565b601055565b33610d32610d60565b6001600160a01b031614610d585760405162461bcd60e51b81526004016106b6906121a8565b6109f761153b565b600a5461010090046001600160a01b031690565b6060600180546105cb906122bc565b6000610d8e60085490565b905060008211610d9d57600080fd5b601054821115610dac57600080fd5b600f54610db9838361222e565b1115610dc457600080fd5b610dcc610d60565b6001600160a01b0316336001600160a01b031614610dfe5781600e54610df2919061225a565b341015610dfe57600080fd5b60015b8281116107e757610e1b33610e16838561222e565b6115b6565b80610e25816122f7565b915050610e01565b6109bc3383836115d0565b33610e41610d60565b6001600160a01b031614610e675760405162461bcd60e51b81526004016106b6906121a8565b6011805460ff19166001179055565b610e8033836111f5565b610e9c5760405162461bcd60e51b81526004016106b6906121dd565b610ea88484848461169b565b50505050565b600d8054610ebb906122bc565b80601f0160208091040260200160405190810160405280929190818152602001828054610ee7906122bc565b8015610f345780601f10610f0957610100808354040283529160200191610f34565b820191906000526020600020905b815481529060010190602001808311610f1757829003601f168201915b505050505081565b6060610f478261116a565b610fab5760405162461bcd60e51b815260206004820152602f60248201527f4552433732314d657461646174613a2055524920717565727920666f72206e6f60448201526e3732bc34b9ba32b73a103a37b5b2b760891b60648201526084016106b6565b6000610fb56116ce565b90506000815111610fd55760405180602001604052806000815250611003565b80610fdf846116dd565b600d604051602001610ff393929190611fea565b6040516020818303038152906040525b9392505050565b33611013610d60565b6001600160a01b0316146110395760405162461bcd60e51b81526004016106b6906121a8565b80516109bc90600d906020840190611c8e565b6001600160a01b03918216600090815260056020908152604080832093909416825291909152205460ff1690565b33611083610d60565b6001600160a01b0316146110a95760405162461bcd60e51b81526004016106b6906121a8565b6001600160a01b03811661110e5760405162461bcd60e51b815260206004820152602660248201527f4f776e61626c653a206e6577206f776e657220697320746865207a65726f206160448201526564647265737360d01b60648201526084016106b6565b611117816114e1565b50565b60006001600160e01b031982166380ac58cd60e01b148061114b57506001600160e01b03198216635b5e139f60e01b145b806105b657506301ffc9a760e01b6001600160e01b03198316146105b6565b6000908152600260205260409020546001600160a01b0316151590565b600081815260046020526040902080546001600160a01b0319166001600160a01b03841690811790915581906111bc82610bbe565b6001600160a01b03167f8c5be1e5ebec7d5bd14f71427d1e84f3dd0314c0f7b2291e5b200ac8c7c3b92560405160405180910390a45050565b60006112008261116a565b6112615760405162461bcd60e51b815260206004820152602c60248201527f4552433732313a206f70657261746f7220717565727920666f72206e6f6e657860448201526b34b9ba32b73a103a37b5b2b760a11b60648201526084016106b6565b600061126c83610bbe565b9050806001600160a01b0316846001600160a01b031614806112a75750836001600160a01b031661129c8461064e565b6001600160a01b0316145b806112b757506112b7818561104c565b949350505050565b826001600160a01b03166112d282610bbe565b6001600160a01b0316146113365760405162461bcd60e51b815260206004820152602560248201527f4552433732313a207472616e736665722066726f6d20696e636f72726563742060448201526437bbb732b960d91b60648201526084016106b6565b6001600160a01b0382166113985760405162461bcd60e51b8152602060048201526024808201527f4552433732313a207472616e7366657220746f20746865207a65726f206164646044820152637265737360e01b60648201526084016106b6565b6113a38383836117da565b6113ae600082611187565b6001600160a01b03831660009081526003602052604081208054600192906113d7908490612279565b90915550506001600160a01b038216600090815260036020526040812080546001929061140590849061222e565b909155505060008181526002602052604080822080546001600160a01b0319166001600160a01b0386811691821790925591518493918716916000805160206123ab83398151915291a4505050565b600a5460ff1661149d5760405162461bcd60e51b815260206004820152601460248201527314185d5cd8589b194e881b9bdd081c185d5cd95960621b60448201526064016106b6565b600a805460ff191690557f5db9ee0a495bf2e6ff9c91a7834c1ba4fdd244a5e8aa4e537bd38aeae4b073aa335b6040516114d791906120ae565b60405180910390a1565b600a80546001600160a01b03838116610100818102610100600160a81b031985161790945560405193909204169182907f8be0079c531659141344cd1fd0a4f28419497f9722a3daafe3b4186f6b6457e090600090a35050565b600a5460ff16156115815760405162461bcd60e51b815260206004820152601060248201526f14185d5cd8589b194e881c185d5cd95960821b60448201526064016106b6565b600a805460ff191660011790557f62e78cea01bee320cd4e420270b5ea74000d11b0c9f74754ebdbfc544b05a2586114ca3390565b6109bc828260405180602001604052806000815250611892565b816001600160a01b0316836001600160a01b0316141561162e5760405162461bcd60e51b815260206004820152601960248201527822a9219b99189d1030b8383937bb32903a379031b0b63632b960391b60448201526064016106b6565b6001600160a01b03838116600081815260056020908152604080832094871680845294825291829020805460ff191686151590811790915591519182527f17307eab39ab6107e8899845ad3d59bd9653f200f220920489ca2b5937696c31910160405180910390a3505050565b6116a68484846112bf565b6116b2848484846118c5565b610ea85760405162461bcd60e51b81526004016106b690612156565b6060600c80546105cb906122bc565b6060816117015750506040805180820190915260018152600360fc1b602082015290565b8160005b811561172b5780611715816122f7565b91506117249050600a83612246565b9150611705565b6000816001600160401b038111156117455761174561237e565b6040519080825280601f01601f19166020018201604052801561176f576020820181803683370190505b5090505b84156112b757611784600183612279565b9150611791600a86612312565b61179c90603061222e565b60f81b8183815181106117b1576117b1612368565b60200101906001600160f81b031916908160001a9053506117d3600a86612246565b9450611773565b6001600160a01b0383166118355761183081600880546000838152600960205260408120829055600182018355919091527ff3f7a9fe364faab93b216da50a3214154f22a0a2b415b23a84c8169e8b636ee30155565b611858565b816001600160a01b0316836001600160a01b0316146118585761185883826119d2565b6001600160a01b03821661186f576107e781611a6f565b826001600160a01b0316826001600160a01b0316146107e7576107e78282611b1e565b61189c8383611b62565b6118a960008484846118c5565b6107e75760405162461bcd60e51b81526004016106b690612156565b60006001600160a01b0384163b156119c757604051630a85bd0160e11b81526001600160a01b0385169063150b7a02906119099033908990889088906004016120c2565b602060405180830381600087803b15801561192357600080fd5b505af1925050508015611953575060408051601f3d908101601f1916820190925261195091810190611f40565b60015b6119ad573d808015611981576040519150601f19603f3d011682016040523d82523d6000602084013e611986565b606091505b5080516119a55760405162461bcd60e51b81526004016106b690612156565b805181602001fd5b6001600160e01b031916630a85bd0160e11b1490506112b7565b506001949350505050565b600060016119df84610c35565b6119e99190612279565b600083815260076020526040902054909150808214611a3c576001600160a01b03841660009081526006602090815260408083208584528252808320548484528184208190558352600790915290208190555b5060009182526007602090815260408084208490556001600160a01b039094168352600681528383209183525290812055565b600854600090611a8190600190612279565b60008381526009602052604081205460088054939450909284908110611aa957611aa9612368565b906000526020600020015490508060088381548110611aca57611aca612368565b6000918252602080832090910192909255828152600990915260408082208490558582528120556008805480611b0257611b02612352565b6001900381819060005260206000200160009055905550505050565b6000611b2983610c35565b6001600160a01b039093166000908152600660209081526040808320868452825280832085905593825260079052919091209190915550565b6001600160a01b038216611bb85760405162461bcd60e51b815260206004820181905260248201527f4552433732313a206d696e7420746f20746865207a65726f206164647265737360448201526064016106b6565b611bc18161116a565b15611c0d5760405162461bcd60e51b815260206004820152601c60248201527b115490cdcc8c4e881d1bdad95b88185b1c9958591e481b5a5b9d195960221b60448201526064016106b6565b611c19600083836117da565b6001600160a01b0382166000908152600360205260408120805460019290611c4290849061222e565b909155505060008181526002602052604080822080546001600160a01b0319166001600160a01b03861690811790915590518392906000805160206123ab833981519152908290a45050565b828054611c9a906122bc565b90600052602060002090601f016020900481019282611cbc5760008555611d02565b82601f10611cd557805160ff1916838001178555611d02565b82800160010185558215611d02579182015b82811115611d02578251825591602001919060010190611ce7565b50611d0e929150611d12565b5090565b5b80821115611d0e5760008155600101611d13565b60006001600160401b0380841115611d4157611d4161237e565b604051601f8501601f19908116603f01168101908282118183101715611d6957611d6961237e565b81604052809350858152868686011115611d8257600080fd5b858560208301376000602087830101525050509392505050565b80356001600160a01b0381168114611db357600080fd5b919050565b600060208284031215611dca57600080fd5b61100382611d9c565b60008060408385031215611de657600080fd5b611def83611d9c565b9150611dfd60208401611d9c565b90509250929050565b600080600060608486031215611e1b57600080fd5b611e2484611d9c565b9250611e3260208501611d9c565b9150604084013590509250925092565b60008060008060808587031215611e5857600080fd5b611e6185611d9c565b9350611e6f60208601611d9c565b92506040850135915060608501356001600160401b03811115611e9157600080fd5b8501601f81018713611ea257600080fd5b611eb187823560208401611d27565b91505092959194509250565b60008060408385031215611ed057600080fd5b611ed983611d9c565b915060208301358015158114611eee57600080fd5b809150509250929050565b60008060408385031215611f0c57600080fd5b611f1583611d9c565b946020939093013593505050565b600060208284031215611f3557600080fd5b813561100381612394565b600060208284031215611f5257600080fd5b815161100381612394565b600060208284031215611f6f57600080fd5b81356001600160401b03811115611f8557600080fd5b8201601f81018413611f9657600080fd5b6112b784823560208401611d27565b600060208284031215611fb757600080fd5b5035919050565b60008151808452611fd6816020860160208601612290565b601f01601f19169290920160200192915050565b600084516020611ffd8285838a01612290565b8551918401916120108184848a01612290565b8554920191600090600181811c908083168061202d57607f831692505b85831081141561204b57634e487b7160e01b85526022600452602485fd5b80801561205f57600181146120705761209d565b60ff1985168852838801955061209d565b60008b81526020902060005b858110156120955781548a82015290840190880161207c565b505083880195505b50939b9a5050505050505050505050565b6001600160a01b0391909116815260200190565b6001600160a01b03858116825284166020820152604081018390526080606082018190526000906120f590830184611fbe565b9695505050505050565b6020808252825182820181905260009190848201906040850190845b818110156121375783518352928401929184019160010161211b565b50909695505050505050565b6020815260006110036020830184611fbe565b60208082526032908201527f4552433732313a207472616e7366657220746f206e6f6e20455243373231526560408201527131b2b4bb32b91034b6b83632b6b2b73a32b960711b606082015260800190565b6020808252818101527f4f776e61626c653a2063616c6c6572206973206e6f7420746865206f776e6572604082015260600190565b60208082526031908201527f4552433732313a207472616e736665722063616c6c6572206973206e6f74206f6040820152701ddb995c881b9bdc88185c1c1c9bdd9959607a1b606082015260800190565b6000821982111561224157612241612326565b500190565b6000826122555761225561233c565b500490565b600081600019048311821515161561227457612274612326565b500290565b60008282101561228b5761228b612326565b500390565b60005b838110156122ab578181015183820152602001612293565b83811115610ea85750506000910152565b600181811c908216806122d057607f821691505b602082108114156122f157634e487b7160e01b600052602260045260246000fd5b50919050565b600060001982141561230b5761230b612326565b5060010190565b6000826123215761232161233c565b500690565b634e487b7160e01b600052601160045260246000fd5b634e487b7160e01b600052601260045260246000fd5b634e487b7160e01b600052603160045260246000fd5b634e487b7160e01b600052603260045260246000fd5b634e487b7160e01b600052604160045260246000fd5b6001600160e01b03198116811461111757600080fdfeddf252ad1be2c89b69c2b068fc378daa952ba7f163c4a11628f55a4df523b3efa26469706673582212205a58e8a803edc5e6f4a37a5fb5aa8c9a8ab737ab01bc43630deea6493dc854ca64736f6c63430008070033a26469706673582212203b5b642c4b6c180791f3eca0edd6a1009795f649623c42f0cccf92eb7e39d8da64736f6c63430008070033",
  "immutableReferences": {},
  "source": "// SPDX-License-Identifier: MIT\r\npragma solidity 0.8.7;\r\npragma experimental ABIEncoderV2;\r\n\r\nimport \"@openzeppelin/contracts/access/Ownable.sol\";\r\nimport \"@openzeppelin/contracts/token/ERC721/extensions/IERC721Enumerable.sol\";\r\nimport \"@openzeppelin/contracts/utils/math/SafeMath.sol\";\r\nimport \"@openzeppelin/contracts/token/ERC721/IERC721Receiver.sol\";\r\nimport \"./NftBase.sol\";\r\nimport \"./Marketplace.sol\";\r\n\r\ncontract PicardyV1 is Ownable, Marketplace, IERC721Receiver {\r\n    using SafeMath for uint;\r\n\r\n    uint royaltyUpdate = 4 weeks;\r\n    \r\n    struct Artist{\r\n        address artistAddress;\r\n        string artistName;\r\n    }\r\n\r\n    struct Royalty{\r\n        address artist;\r\n        NftBase royaltyNft;\r\n        uint totalSupply;\r\n        uint saleCount;\r\n        uint percentage;\r\n        uint price;\r\n        bool saleComplete;\r\n        string artistName;\r\n        string name;\r\n        uint RewardlastUpdated;\r\n    }\r\n\r\n    struct Ticket{\r\n        address artist;\r\n        NftBase ticketNft;\r\n        uint totalSupply;\r\n        uint saleCount;\r\n        uint price;\r\n        bool saleComplete;\r\n        string artistName;\r\n        string name;\r\n    }\r\n\r\n    mapping (string => mapping(string => NftBase)) ticketSale;\r\n    mapping (string => mapping(string => NftBase)) royaltySale;\r\n    mapping (string => Royalty[]) artistToRoyaltyLog;\r\n    mapping (string => Ticket[]) artistToTicketLog;\r\n    mapping (address => Artist[]) artistMap;\r\n    mapping (string => mapping(string => Royalty)) artistToRoyalty;\r\n    mapping (string => mapping(string => Ticket)) artistToTicket;\r\n    mapping (string => bool) artistExist;\r\n    mapping (string => mapping(string => uint)) artistRoyaltyBalance;\r\n    mapping (string => mapping(string => uint[])) royaltyTokenId;\r\n    mapping (string => mapping(string => mapping(uint => uint))) tokenRewardBalance;\r\n    mapping (string => mapping(string => mapping(uint => uint))) tokenRewardClaimTime;\r\n    mapping (string => mapping(string => bool)) isUpdated;\r\n\r\n    Royalty[] royaltySaleLog;\r\n    Ticket[] ticketSaleLog;\r\n\r\n    modifier onlyArtist(string memory _artistName){\r\n        require(artistExist[_artistName] == true, \"This artist doesnt exist\");\r\n        _;\r\n    }\r\n\r\n    function join(string memory _artistName) external {\r\n        Artist[] storage newArtist = artistMap[msg.sender];\r\n        require(artistExist[_artistName] == false);\r\n        newArtist.push(Artist(msg.sender, _artistName));\r\n        artistExist[_artistName] = true;\r\n    }\r\n\r\n    function createRoyaltySale(\r\n        uint _maxSupply, \r\n        uint _maxMintAmount, \r\n        uint _cost, \r\n        uint _percentage, \r\n        string memory _name, \r\n        string memory _symbol, \r\n        string memory _initBaseURI, \r\n        string memory _artistName\r\n    ) external onlyArtist(_artistName){\r\n        require(_cost > 0);\r\n        NftBase newRoyaltySale = new NftBase(\r\n            _maxSupply,\r\n            _maxMintAmount,\r\n            _cost,\r\n            _name,\r\n            _symbol,\r\n            _initBaseURI,\r\n            _artistName,\r\n            address(this),\r\n            msg.sender\r\n        );\r\n\r\n        royaltySale[_artistName][_name] = newRoyaltySale;\r\n        \r\n        Royalty memory royalty = (\r\n            Royalty(\r\n                msg.sender, \r\n                newRoyaltySale, \r\n                _maxSupply, \r\n                0, \r\n                _percentage, \r\n                _cost, \r\n                false, \r\n                _artistName, \r\n                _name,\r\n                0\r\n            )\r\n        );\r\n\r\n        artistToRoyalty[_artistName][_name] = royalty;\r\n        artistToRoyaltyLog[_artistName].push(royalty);\r\n        royaltySaleLog.push(royalty);\r\n    }\r\n\r\n    function buyRoyalty(string memory _artistName, string memory _name, uint _amount) external payable{\r\n        require(artistExist[_artistName] == true, \"Artist Does Not Exist\");\r\n        require(artistToRoyalty[_artistName][_name].saleComplete == false, \"Royalty Sale Completed\");\r\n        require(msg.value >= artistToRoyalty[_artistName][_name].price.mul(_amount), \"Not Enough Token To Make Purchase\");\r\n       \r\n        royaltySale[_artistName][_name].mint(_amount);\r\n        uint[] memory tokenId = getRoyaltyNft(_artistName, _name);\r\n        \r\n        \r\n        uint saleCount = artistToRoyalty[_artistName][_name].saleCount;\r\n        saleCount = saleCount.add(_amount);\r\n\r\n        for(uint tokenIdIndex = 0; tokenIdIndex < tokenId.length; tokenIdIndex++){\r\n            royaltyTokenId[_artistName][_name].push(tokenId[tokenIdIndex]);\r\n            transferRoyalty(_artistName, _name, tokenId[tokenIdIndex]);\r\n        } \r\n\r\n        if(saleCount == artistToRoyalty[_artistName][_name].totalSupply){\r\n            artistToRoyalty[_artistName][_name].saleComplete = true;\r\n        }\r\n    }\r\n\r\n    function claimRoyalty(string memory _artistName, string memory _name) external payable {\r\n        require(artistExist[_artistName] == true, \"Artist Does Not Exist\");\r\n        require(artistToRoyalty[_artistName][_name].saleComplete == true, \"Royalty Sale Not Complete\");\r\n        \r\n        uint[] memory tokenId = getOwnerRoyaltyNft(_artistName, _name);\r\n\r\n        for(uint tokenIdIndex = 0; tokenIdIndex < tokenId.length; tokenIdIndex++){\r\n            require(tokenRewardBalance[_artistName][_name][tokenId[tokenIdIndex]] > 0, \"No royality to claim\");\r\n            \r\n            uint newTokenBalance =  tokenRewardBalance[_artistName][_name][tokenId[tokenIdIndex]];\r\n            artistRoyaltyBalance[_artistName][_name] = artistRoyaltyBalance[_artistName][_name].sub(newTokenBalance);\r\n            (bool os, ) = payable(msg.sender).call{value: newTokenBalance }(\"\");\r\n            require(os); \r\n            \r\n            newTokenBalance = 0;\r\n            tokenRewardClaimTime[_artistName][_name][tokenId[tokenIdIndex]] = block.timestamp;\r\n            \r\n        }\r\n\r\n    }\r\n\r\n    function updateRoyaltyBalance(string memory _artistName, string memory _name, uint _amount) external onlyOwner{\r\n        require(artistExist[_artistName] == true, \"Artist Does Not Exist\");\r\n        require(artistToRoyalty[_artistName][_name].RewardlastUpdated > artistToRoyalty[_artistName][_name].RewardlastUpdated.add(royaltyUpdate), \"Not time for update\");\r\n\r\n        artistRoyaltyBalance[_artistName][_name] = _amount;\r\n\r\n        uint[] memory tokenIds = royaltyTokenId[_artistName][_name];\r\n\r\n        uint royaltyBalance = artistRoyaltyBalance[_artistName][_name] * artistToRoyalty[_artistName][_name].percentage / 100;\r\n        uint percentagePerToken = artistToRoyalty[_artistName][_name].percentage.div(artistToRoyalty[_artistName][_name].totalSupply);\r\n        uint rewardPerToken = royaltyBalance * percentagePerToken / 100;\r\n\r\n        for(uint tokenIdIndex = 0; tokenIdIndex < tokenIds.length; tokenIdIndex++){\r\n            uint tokenReward = tokenRewardBalance[_artistName][_name][tokenIds[tokenIdIndex]];\r\n            tokenReward = tokenReward + rewardPerToken;\r\n        }   \r\n\r\n        artistToRoyalty[_artistName][_name].RewardlastUpdated = block.timestamp;\r\n    }\r\n\r\n    function getRoyaltyNft(string memory _artistName, string memory _name) internal view returns (uint256[] memory tokenId) {\r\n       NftBase(royaltySale[_artistName][_name]).walletOfOwner(address(this));\r\n       return tokenId;\r\n   }\r\n\r\n    function getOwnerRoyaltyNft(string memory _artistName, string memory _name) public view returns(uint256[] memory tokenId) {\r\n       NftBase(royaltySale[_artistName][_name]).walletOfOwner(msg.sender);\r\n       return tokenId;\r\n   }\r\n\r\n    function transferRoyalty(string memory _artistName, string memory _name, uint256 tokenId) internal {\r\n        IERC721Enumerable(royaltySale[_artistName][_name]).safeTransferFrom(address(this), msg.sender, tokenId);\r\n    }\r\n\r\n    function transferTicket(string memory _artistName, string memory _name, uint256 tokenId) internal {\r\n        IERC721Enumerable(ticketSale[_artistName][_name]).safeTransferFrom(address(this), msg.sender, tokenId);\r\n    }\r\n\r\n   function onERC721Received(\r\n        address operator,\r\n        address from,\r\n        uint256 tokenId,\r\n        bytes calldata data\r\n    ) public override returns (bytes4) { \r\n\r\n        return this.onERC721Received.selector;\r\n    }\r\n\r\n   function createTicket(\r\n        uint _maxSupply, \r\n        uint _maxMintAmount,\r\n        uint _cost,\r\n        string memory _name, \r\n        string memory _symbol, \r\n        string memory _initBaseURI, \r\n        string memory _artistName\r\n    ) external onlyArtist(_artistName){\r\n        NftBase newNftTicket = new NftBase(\r\n            _maxSupply,\r\n            _maxMintAmount,\r\n            _cost,\r\n            _name,\r\n            _symbol,\r\n            _initBaseURI,\r\n            _artistName,\r\n            address(this),\r\n            msg.sender\r\n        );\r\n        \r\n        ticketSale[_artistName][_name] = newNftTicket;\r\n\r\n        Ticket memory ticket = Ticket(\r\n            msg.sender,\r\n            newNftTicket,\r\n            _maxSupply,\r\n            0,\r\n            _cost,\r\n            false,\r\n            _artistName,\r\n            _name\r\n        );\r\n\r\n        artistToTicket[_artistName][_name] = ticket;\r\n        artistToTicketLog[_artistName].push(ticket);\r\n        ticketSaleLog.push(ticket);\r\n    }\r\n\r\n    function buyTicket(string memory _artistName, string memory _name, uint _amount) external payable{\r\n        require(artistExist[_artistName] == true, \"Artist Does Not Exist\");\r\n        require(artistToTicket[_artistName][_name].saleComplete == false, \"Ticket Sale Completed\");\r\n        require(msg.value >= artistToTicket[_artistName][_name].price.mul(_amount), \"Not Enough Token To Make Purchase\");\r\n       \r\n        ticketSale[_artistName][_name].mint(_amount);\r\n        uint[] memory tokenId = getTicketNft(_artistName, _name);\r\n        \r\n        \r\n        uint saleCount = artistToTicket[_artistName][_name].saleCount;\r\n        saleCount = saleCount.add(_amount);\r\n\r\n        for(uint tokenIdIndex = 0; tokenIdIndex < tokenId.length; tokenIdIndex++){\r\n            royaltyTokenId[_artistName][_name].push(tokenId[tokenIdIndex]);\r\n            transferTicket(_artistName, _name, tokenId[tokenIdIndex]);\r\n        } \r\n\r\n        if(saleCount == artistToTicket[_artistName][_name].totalSupply){\r\n            artistToTicket[_artistName][_name].saleComplete = true;\r\n        }\r\n    }\r\n\r\n    function getTicketNft(string memory _artistName, string memory _name) internal view returns (uint256[] memory tokenId) {\r\n       NftBase(ticketSale[_artistName][_name]).walletOfOwner(address(this));\r\n       return tokenId;\r\n   }\r\n\r\n    function getOwnerTicketNft(string memory _artistName, string memory _name) public view returns(uint256[] memory tokenId) {\r\n       NftBase(ticketSale[_artistName][_name]).walletOfOwner(msg.sender);\r\n       return tokenId;\r\n   }\r\n\r\n    function getRoyaltyAdress(string memory _artistName, string memory _name) external view returns(NftBase){\r\n        return royaltySale[_artistName][_name];\r\n    }\r\n\r\n    function getTicketAdress(string memory _artistName, string memory _name) external view returns(NftBase){\r\n        return ticketSale[_artistName][_name];\r\n    }\r\n\r\n}",
  "sourcePath": "C:\\Users\\USER\\Desktop\\Picardy\\contracts\\PicardyV1.sol",
  "compiler": {
    "name": "solc",
    "version": "0.8.7+commit.e28d00a7.Emscripten.clang"
  },
  "schemaVersion": "3.4.6",
  "updatedAt": "2022-04-13T14:14:25.107Z",
  "networkType": "ethereum",
  "devdoc": {
    "kind": "dev",
    "methods": {
      "onERC721Received(address,address,uint256,bytes)": {
        "details": "Whenever an {IERC721} `tokenId` token is transferred to this contract via {IERC721-safeTransferFrom} by `operator` from `from`, this function is called. It must return its Solidity selector to confirm the token transfer. If any other value is returned or the interface is not implemented by the recipient, the transfer will be reverted. The selector can be obtained in Solidity with `IERC721.onERC721Received.selector`."
      },
      "owner()": {
        "details": "Returns the address of the current owner."
      },
      "renounceOwnership()": {
        "details": "Leaves the contract without owner. It will not be possible to call `onlyOwner` functions anymore. Can only be called by the current owner. NOTE: Renouncing ownership will leave the contract without an owner, thereby removing any functionality that is only available to the owner."
      },
      "transferOwnership(address)": {
        "details": "Transfers ownership of the contract to a new account (`newOwner`). Can only be called by the current owner."
      }
    },
    "version": 1
  },
  "userdoc": {
    "kind": "user",
    "methods": {},
    "version": 1
  }
}